:020000040800F2
:10C000007098012071C2000871180108B3FF000880
:10C0100071160108D1CE00080130010800000000AF
:10C02000000000000000000000000000B1C1000896
:10C03000F1D20008000000000DC200080D27010821
:10C040008BC200088BC200088BC20008CD1E0108FD
:10C050008BC200088BC200088BC200088BC200088C
:10C0600081D400088BC2000891D400088BC200085C
:10C070008BC200088BC200088BC200088BC200086C
:10C080008BC200088BC200088BC2000800000000B1
:10C0900000000000000000000000000097D400082D
:10C0A0008BC20008D92701088BC200088BC2000888
:10C0B0008BC200088BC200088BC200088BC200082C
:10C0C0008BC200088BC200088BC200088BC200081C
:10C0D0008BC20008C12F01088BC2000800000000BD
:10C0E00071D400088BC200088BC200080000000059
:10C0F0000000000000000000000000008BC20008EB
:10C10000000000008BC200088BC200088BC2000830
:10C11000000000000000000000000000000000001F
:10C120008BC200088BC200087DD100088BC20008BA
:10C130008BC20008000000000000000000000000AA
:10C140000000000000000000000000008BC200089A
:10C1500089D100088BC2000895D100088BC2000865
:10C160008BC200088BC20008000000000000000025
:10C1700000000000000000000000000000000000BF
:10C18000000000008BC2000800000000000000005A
:10C190008BC200088BC20008DFF810D000F0DEFB75
:10C1A00000480047E5010308AFF3008070980120C4
:10C1B0002C4B19680868B0E8F04F80F30988BFF38A
:10C1C0006F8F4FF0000080F311887047000000006F
:10C1D00008480068006880F308884FF0000080F38A
:10C1E000148862B661B6BFF34F8FBFF36F8F00DF65
:10C1F00000BF00BF08ED00E0DFF80C00016841F46B
:10C2000070010160704700BF88ED00E0EFF3098026
:10C21000BFF36F8F134B1A681EF0100F08BF20ED8D
:10C22000108A20E9F04F106009B44FF0500080F3FD
:10C230001188BFF34F8FBFF36F8F30F0D1F84FF0FD
:10C24000000080F3118809BC19680868B0E8F04F55
:10C250001EF0100F08BFB0EC108A80F30988BFF3FE
:10C260006F8F7047EC070020EFF3058070470000E8
:10C270000648804706480047FEE7FEE7FEE7FEE780
:10C28000FEE7FEE7FEE7FEE7FEE7FEE7BD27010863
:10C2900099C100082DE9F05F0546002092469B46B3
:10C2A00088460646814640241BE0284641464746CC
:10C2B000224600F06BFA53465A46C01A914110D3F9
:10C2C00011461846224600F052FA2D1A67EB010873
:10C2D0004F4622460120002100F049FA17EB0009E1
:10C2E0004E41201EA4F10104DFDC484631462A46B7
:10C2F0004346BDE8F09F00000649074A08685043DE
:10C3000043F2390210440860400870470149086050
:10C3100070470000140A00206D4EC64140EA010338
:10C320009B0703D009E008C9121F08C0042AFAD2EB
:10C3300003E011F8013B00F8013B521EF9D27047AF
:10C34000D2B201E000F8012B491EFBD27047002257
:10C35000F6E710B513460A4604461946FFF7F0FF04
:10C36000204610BD421C10F8011B0029FBD1801A89
:10C37000704710B5002200E0521C835C8C5CA34225
:10C3800001D1002BF8D1D8B2E1B2401A10BD30B5BE
:10C3900004460020034600E05B1C934203D2E05CAD
:10C3A000CD5C401BF8D030BD034611F8012B00F8DE
:10C3B000012B002AF9D1184670472DE9FE4F80461F
:10C3C00081EA0300C00F0C46009021F0004123F0E9
:10C3D0000045B8EB0200A94105D2404621469046EF
:10C3E0001C460B46024623F00040104347D0270D61
:10C3F000C7F30A00C3F30A510290401A0190402883
:10C400006BDAC3F3130040F4801B0098924620B10E
:10C410000023D2EB030A63EB0B0B01985946C0F1E2
:10C420004002504600F0A3F906460D4650465946D4
:10C43000019A00F0BBF910EB08006141002487EA83
:10C44000115284EAE7731A4340D0009A62B3019A0A
:10C45000012A4FEA075215DC001B61EB02014FF085
:10C46000004202EA0752CDE90042001C41F580116A
:10C4700032462B4600F0F2F903B0BDE8F08F40469B
:10C480002146F9E7001B61EB0201001C41F5801316
:10C4900000185B412018A2F5001747EB030140EAA2
:10C4A000D570B6196D4111E06D084FEA360645EAC0
:10C4B000C0754FEA0752001B61EB0201001C41F5F9
:10C4C000801149084FEA30000019514132462B468D
:10C4D00003B0BDE8F04F00F0B2B90098012240006F
:10C4E0000023D0EB020263EBE073009821464FEA91
:10C4F000E074B8EB000061EB0401E9E783F000436E
:10C500005BE781F0004158E72DE9FE4F81EA030423
:10C5100004F0004421F0004100944FF0000B23F0A0
:10C52000004350EA01045ED052EA03045BD0C3F337
:10C530000A54C1F30A552C44A4F2F3340194A0FB2D
:10C540000254C1F3130141F48011C3F3130343F404
:10C55000801301FB024400FB034E840A970A44EA5D
:10C56000815447EA8357A4FB076802958D0A05FBAF
:10C5700007854FEA932C04FB0C542705029D4FEAD4
:10C58000065847EA1637B5EB08056EEB070C870E21
:10C59000920E47EA811742EA8312A7FB0201B6EB2B
:10C5A0000B0164EB00042B0D43EA0C335E1844EBE3
:10C5B0001C50DA465146E7FB0201C5F313044FEA6B
:10C5C0000B3343EA14534FEA0432019C43EA060357
:10C5D000A4F10C040294009CCDE900B400F03EF9F3
:10C5E00003B0BDE8F08F00200146F9E72DE9F04DDA
:10C5F00081EA030404F0004B21F0004514464FF09B
:10C60000000A23F0004150EA050220D054EA01025A
:10C610001DD0C5F30A570246C5F31303C1F3130037
:10C62000C1F30A5640F4801543F48013A7EB0608C3
:10C63000101BD64608F2FD3873EB050002D308F153
:10C64000010801E092185B41B8F1000F03DA002005
:10C650000146BDE8F08D00204FF480110646844667
:10C660000EE0171B73EB050705D3121B63EB0503E5
:10C6700006434CEA010C49084FEA300092185B412E
:10C6800050EA0107EDD152EA030012D082EA040019
:10C6900083EA0501084305D0101BAB4106D20122F5
:10C6A000002306E000224FF0004302E06FF0010299
:10C6B00053101AEB06004CEB085110EB0A0041EB4B
:10C6C0000B01BDE8F04D00F0BAB80EB540F23341B1
:10C6D00002910021CDE900110A460B4600F0BEF898
:10C6E00003B000BD00F0004230F000400AD0C10DA0
:10C6F00001F56071C0F3160042EA0151C20840071B
:10C700001143704700200146704701F0004330B4E8
:10C7100021F0004150EA010206D00A0DA2F5607234
:10C72000C1F31301002A02DC30BC00207047440F23
:10C7300044EAC104C100E01830BC00EBC25000F074
:10C7400047B830B50B46014600202022012409E0FD
:10C7500021FA02F59D4205D303FA02F5491B04FABA
:10C7600002F52844151EA2F10102F1DC30BD202A99
:10C7700004DB203A00FA02F1002070479140C2F138
:10C78000200320FA03F3194390407047202A04DB6A
:10C79000203A21FA02F00021704721FA02F3D0403A
:10C7A000C2F120029140084319467047202A06DB57
:10C7B000CB17203A41FA02F043EAE07306E041FA6F
:10C7C00002F3D040C2F1200291400843194670475D
:10C7D0000029A8BF7047401C490008BF20F0010095
:10C7E000704710B4B0FA80FC00FA0CF050EA010473
:10C7F00004BF10BC704749B1CCF1200421FA04F405
:10C8000011FA0CF118BF012121430843A3EB0C01DD
:10C81000CB1D4FEA00614FEA102042BF002010BC40
:10C82000704700EBC35010440029A4BF10BC7047F0
:10C83000401C490008BF20F0010010BC704710B533
:10C84000141E73F1000408DA401C41F10001921833
:10C850005B411A4301D120F0010010BD2DE9F04DDC
:10C8600092469B4611B1B1FA81F202E0B0FA80F231
:10C8700020329046FFF77BFF04460F4640EA0A004D
:10C8800041EA0B0153465A46084313D0114653EA76
:10C89000010019D0C8F140025046FFF777FF054666
:10C8A0000E46504659464246FFF761FF084305D001
:10C8B000012004E020463946BDE8F08D0020054304
:10C8C00046EAE0762C4337430A986305E40AA0EB76
:10C8D00008000022FD0A44EA47540A3002D500202D
:10C8E0000146E9E7010510196941DDE9084500192C
:10C8F0006941BDE8F04DA2E7C1F30A52C1F313014B
:10C9000040F2FF3341F480119A4202DA00200146DE
:10C91000704740F233439A42A2F2334202DC524261
:10C92000FFF734BFFFF723BF30B5041E71F10004D9
:10C9300004DB4FF00044404264EB0101141E73F12C
:10C94000000405DB1C464FF00043524263EB040336
:10C95000994208BF904230BD00207047064C074DF9
:10C9600006E0E06840F0010394E8070098471034BF
:10C97000AC42F6D3FFF714FCE4D0060804D1060855
:10C9800070B58C1810F8015B15F0070301D110F891
:10C99000013B2A1106D110F8012B03E010F8016BBE
:10C9A00001F8016B5B1EF9D12B0705D40023521E41
:10C9B0000DD401F8013BFAE710F8013BCB1A921CA9
:10C9C00003E013F8015B01F8015B521EF9D5A142A7
:10C9D000D8D3002070BD0000464910B54A6822F443
:10C9E00040324A604A6843681A434A6001684A68AC
:10C9F00022F480724A6001684A68036942EA0322AD
:10CA00004A6001684A6822F040724A6001684A68D8
:10CA100083681A434A6001688A6822F400628A6067
:10CA200001688A68C3681A438A60816A6FF070621D
:10CA3000D14201688A6822F070628A6001688A685F
:10CA40000CD0836A1A438A6001688A6822F04052D7
:10CA50008A6001688A68C36A1A4301E022F0405282
:10CA60008A6001688A6822F002028A6001688A6826
:10CA7000037E42EA43028A6090F820100029016890
:10CA80004A680FD042F400624A6001684A6822F4A2
:10CA900060424A6001684A68174C436A04EB4333BA
:10CAA0001A4301E022F400624A600168CA6A22F473
:10CAB0007002CA620168CA6A838B104C04EB03538C
:10CAC0001A43CA6201688A6822F400728A600168A7
:10CAD0008A6890F8303042EA43228A6001688A68A6
:10CAE00022F480628A6001688A68406942EA802094
:10CAF000886010BD0023014000E0FFFF0000F0FF50
:10CB0000094808B5016841F002010160006800F0C1
:10CB100002000090054803F03BFC28200BF056FB78
:10CB200000F0AAF8002008BD303802405407002069
:10CB30002DE9F05F82468B46052400254C4803F022
:10CB4000C5FC70214A4803F07DFC494803F0FCFC19
:10CB5000AC21474803F076FC454803F0F5FC33214F
:10CB6000434803F06FFC424803F0EEFC00214048CC
:10CB700003F068FC3E4803F0E7FC3D4803F0C5FCC9
:10CB800050200BF023FB06E005200BF01FFB641E7A
:10CB9000E4B200F071F800F06FF8C00702D0002C8A
:10CBA000F2D162E0002C60D0314803F08FFC71219B
:10CBB0002F4803F047FC2E4803F0C6FC2C4803F036
:10CBC00001FC2B4803F025FC294803F0FBFB8146C0
:10CBD000274803F01EFC264803F0F4FB8046244857
:10CBE00003F017FC224803F0EDFB0746204803F052
:10CBF00010FC1F4803F0E6FB06461D4803F009FC45
:10CC00001B4803F0DFFB0446194803F047FC1848B3
:10CC100003F07BFC45EA090548EA052147EA0121C2
:10CC200008094FF47A714843000D00EE100A3807E6
:10CC300046EA1051F8EE400AB2EE040A44EA012036
:10CC40004FF4FA6180EE801A48430A4901EB105014
:10CC500000EE900A0020F8EE600A8AED001A80EEDD
:10CC6000801A8BED001ABDE8F09F0120FBE7000061
:10CC7000540700200CFEFFFF10B50B4803F026FC04
:10CC80007121094803F0DEFB074803F05DFC06480C
:10CC900003F098FB0446044803F000FC024803F04C
:10CCA00034FC204610BD00005407002010B505F0EC
:10CCB00031F89FED091AF0EE400A80EE810ADFEDAF
:10CCC000070A06F08FFDF7EE000A30EEC00ADFED2E
:10CCD000040A20EE200A10BD80E6C54701DE423E70
:10CCE000002A2D472DE9F0411D462DED068B1446F7
:10CCF0000E4607469DED0D8ADDED0C8A11FB06F010
:10CD000012FB040000EE100AB8EEC00A07F064F946
:10CD1000F0EE400A00EE107AB8EEC00A06F0B4FA5F
:10CD2000F0EE409A17FB07F014FB040000EE100A27
:10CD3000B8EEC00A07F050F9F0EE400A00EE106AB3
:10CD4000B8EEC00A06F0A0FAB0EE409A06F0A2FCD7
:10CD5000F8EEE80A60EE208AB0EE490A07F074F8AF
:10CD6000F0EE400A00EE105AB8EEC00A20EE80AA9B
:10CD7000B0EE690A07F068F84AEE008AB0EE690A78
:10CD800006F088FCF8EEC80A20EE20AAB0EE490AA8
:10CD900007F05AF84AEE408AB0EE690A06F07AFCCB
:10CDA000F0EE400A00EE105AB8EEC00A20EE809A6B
:10CDB000B0EE690A07F048F8F8EEC80A00EE809A6B
:10CDC000B0EE680AF0EE490A06F05EFA10EE100ABC
:10CDD000FFF788FC9FED091B53EC112BFFF794FB29
:10CDE0009FED081B53EC112BFFF700FCFFF78DFCA8
:10CDF000BDEC068B00EE100ABDE8F08100000000DB
:10CE0000008066404AD8124DFB210940064882B096
:10CE1000016841F001010160006800F0010000902C
:10CE2000024802B003F0B4BA303802406007002074
:10CE300008B50B46009202465021024803F0AEFBB3
:10CE400008BD00006007002008B50B4600920246AE
:10CE50005021024803F014FC08BD000060070020C8
:10CE600070B500252C46154800F06EFD05211348CD
:10CE700000F014FD114800F0B3FC05440F4800F029
:10CE8000C9FD01200BF0A2F9641CE4B2082CEAD31E
:10CE9000E8084000FFF719FC9FED091B53EC112B2C
:10CEA000FFF732FB9FED081B53EC112BFFF72CFB18
:10CEB000FFF72BFC00EE100A70BD0000200A0020D6
:10CEC0006666666666660A40000000000000303F45
:10CED000FEE7000030B587B014216846FFF737FA47
:10CEE0001348016841F002010160016801F002018C
:10CEF0000591016841F00101016000684FF40044B0
:10CF000000F0010005900120CDE9004002900320CF
:10CF1000084D03906946284601F04EF8012221464B
:10CF2000284601F046F9044803F032FA07B030BD54
:10CF3000303802400000024048070020022000F084
:10CF400023B800001CB501A800900423032215217A
:10CF50000C4803F023FB9DF804109DF8050001F038
:10CF60000F0140EA01210748083801609DF80710C9
:10CF70009DF806200F3102F00F0241EA02214160C4
:10CF80001CBD00004807002002461521014803F09F
:10CF900049BB0000480700200B4602461521014806
:10CFA00003F0A2BB4807002070B50A4D4FF40044BF
:10CFB00000222146284601F0FCF80A2000F046FF36
:10CFC00001222146284601F0F4F8BDE870406420B3
:10CFD00000F03CBF000002400321E520FFF7DCBF6A
:10CFE000FFF7E2BF10B50C4603464979601E085CA6
:10CFF0002B2806D02D280ED02A2816D02F281ED058
:10D0000026E0187D03EB800010ED020A50ED010AC6
:10D0100070EE200A1CE0187D03EB800010ED020A80
:10D0200050ED010A70EE600A12E0187D03EB8000FB
:10D0300010ED020A50ED010A60EE200A08E0187DAA
:10D0400003EB800010ED020A10ED011AC0EE010A98
:10D05000184604F01BFC184604F018FCB0EE600AF9
:10D06000184604F023FC2046BDE8104005F023BB21
:10D07000114D124F124E00244FF4FA782878B8B1AF
:10D080003C802C7000F074F840B104F02BFD8068F7
:10D09000B04203D00B4804F031FD09E000F068F81D
:10D0A00030B904F01FFD8068B04201D104F0CCFC1F
:10D0B000404624F0E9FBE1E7060000205C00002088
:10D0C00008010020FC0000207FB504F00BFD806803
:10D0D0001E49884236D11E4D02A8296888471D483E
:10D0E0009DF80D20194C01788A4208D002701AA1CF
:10D0F000684606F091F8694660691BF051FF1848D0
:10D100009DF80C2001788A4208D0027012A168466E
:10D1100006F082F8694620691BF042FF686A804782
:10D12000104D01462870401E63280CD8606814F02A
:10D130009AFF2A780CA1684606F06EF86946E06806
:10D140001BF02EFF7FBD002028707FBD080100204E
:10D15000640000203D030020253032640000000000
:10D160003C030020410300202532642525000000F7
:10D170000421014801F010B800000240014800F00D
:10D18000F3BC0000E00A0020014800F0EDBC000004
:10D19000CC0B0020014800F0E7BC00002C0C002064
:10D1A00001681823CAB2103AB2FBF3F2054B6FF3D1
:10D1B0000901032A9B5CC36500D9091D81650846E6
:10D1C00070470000703A050810B5014600208B69D1
:10D1D0008A6A4FF0C07453B1B3F5005F15D072B1D5
:10D1E000012A0CD0022A0AD0032A09D104E01AB17C
:10D1F000012A06D0022A03D1C96AC90100D501203B
:10D2000010BDC96AA142FAD010BD002AF7D0012A88
:10D21000F2D0022AF3D0032AF3D010BD30B504684F
:10D22000256825F480252560046863608368402BA9
:10D23000036803D099600068C26030BD9A600068DE
:10D24000C16030BD0EB5264E264C00258DF8085025
:10D250000123002202A9306824F052FB78BB94F825
:10D2600031008DF8000020480222102100788DF84E
:10D270000100684605F0F9F8002201A91B4801F0F9
:10D280009FFC03222021684605F0DCF89DF8000091
:10D290009DF80610884216D094F82C0010B9616CE5
:10D2A000002088479DF806008DF800008DF8025098
:10D2B0008DF8015003222021684605F0D6F864203D
:10D2C00024F0E2FAC2E7206C80479DF806108DF842
:10D2D00000108DF80200000A8DF80100EAE7000056
:10D2E0005800002064000020DC010020680A0020B3
:10D2F000704708B50A200AF069FF6A46022100203B
:10D30000FFF796FD9DF80000552803D19DF8010018
:10D31000AA2821D055208DF80000AA208DF8010000
:10D320000A200AF053FF6A4602210020FFF78CFD15
:10D33000002000900A200AF049FF6A4602210020DE
:10D34000FFF776FD9DF80000552803D19DF80100F8
:10D35000AA2801D0012008BD002008BDFFF756BD56
:10D3600010B5292000F00CF84FF6FF7101EA0024F7
:10D37000282000F005F8204310BD0020AFF3008006
:10D3800002462421014803F04DB90000AC070020FB
:10D390000B4602462421014803F0A6B9AC07002041
:10D3A00010B5052404E0642000F050FD641EE4B2D2
:10D3B000FFF7E3FF362802D0002CF4D106E02CB1B1
:10D3C00000210120FFF7E4FF002010BD012010BD67
:10D3D00010B5052404E0642000F038FD641EE4B2BA
:10D3E000FFF7CBFF362802D0002CF4D106E02CB199
:10D3F00008210120FFF7CCFF002010BD012010BD47
:10D4000038B519480524016841F00201016000683F
:10D4100000F002000090154802F0BAFF04E064201A
:10D4200000F014FD641EE4B2FFF7A7FF362802D017
:10D43000002CF4D116E0ACB100210120FFF7A8FFC9
:10D4400000210820FFF7A4FF7F210A20FFF7A0FF9B
:10D4500047210D20FFF79CFF00210E20FFF798FFCA
:10D46000002038BD012038BD30380240AC07002014
:10D47000024901204870000300F092BD0400002022
:10D48000024901208870042000F08ABD04000020B9
:10D49000102000F085BD202000F082BD7CB50F4C2F
:10D4A0000F4DB4F85E00563400EB8000400001B22E
:10D4B000A8681AF0E9FB22890AA1684605F0ACFECB
:10D4C000694628691BF06CFD228807A1684605F0B3
:10D4D000A3FE6946E8691BF063FD7CBD6400002083
:10D4E000340100203A2564003A25646D00000000F4
:10D4F0007CB5104C104D002214F8491F686815F0D7
:10D500000EF861780022A86815F009F822780BA1BE
:10D51000684605F081FE6946E8681BF041FD6278C7
:10D5200006A1684605F078FE694628691BF038FDBB
:10D530007CBD00006400002074020020256400000F
:10D5400072B6FEE72DE9F0411A4F002507F12400DD
:10D550003D803C4687F8745014210646FEF7F7FEDE
:10D5600015A0606314A0A06413A0E06513A0206759
:10D570000020A41C002104EBC00200BF22F81150BF
:10D58000491CC9B20429F9D3401CC0B20428F1D304
:10D59000204609F005FA204609F002FAB91C304687
:10D5A0002EF000FC064831468068BDE8F04115F0D9
:10D5B00091BB0000680D00200A0000000000000080
:10D5C0009C020020054900200A5C0AB10020704737
:10D5D000401C80B21028F7D301207047E00D0020D6
:10D5E00010B500200F4A01461154401CC0B211284A
:10D5F000FAD300201318401CC0B283F8641010281E
:10D60000F8D3FF2002F8740F10215070082205484B
:10D6100013F08EFF0349BDE8104001F114002EF015
:10D620009DBB0000E00D002070B5022004F06AFDF3
:10D630000546012004F066FD0446002004F062FD6A
:10D6400044EA002145EA0120010201D540F07F4073
:10D6500070BD70B5052004F055FD0546042004F0AA
:10D6600051FD0446032004F04DFD44EA002145EA43
:10D670000120010201D540F07F4070BD78B5002443
:10D68000009490F83C20012A19D0012280F83C2017
:10D690000A6807230568092A13D9EE680A3A02EBDB
:10D6A000420293409E43EE600B788A680A3B03EB8C
:10D6B00043039A400368DD682A43DA6010E00220E1
:10D6C00078BD2E6902EB420293409E432E610B7897
:10D6D0008A6803EB43039A4003681D692A431A6171
:10D6E0004A681F23072A13D205686E6B521E02EB8D
:10D6F000820293409E436E630A8893B20A79521E57
:10D7000002EB820293400268556B2B43536327E080
:10D7100005680D2A12D22E6BD21F02EB82029340B3
:10D720009E432E630B790A88DB1F92B203EB8303BF
:10D730009A4003681D6B2A431A6311E0EE6A0D3AA2
:10D7400002EB820293409E43EE620B790A880D3B06
:10D7500092B203EB83039A400368DD6A2A43DA62DC
:10D760001B4B0568194A9D420AD10D68122D07D13D
:10D77000556825F400055560556845F480055560E9
:10D7800005689D421DD1134D0B68AB4201D0112B92
:10D7900017D1536823F480035360536843F40003A4
:10D7A00053600968A9420CD10B490C4A0968B1FBC6
:10D7B000F2F101EB8101490000E0491E00910029CE
:10D7C000FBD180F83C40002078BD000000230140E0
:10D7D00000200140120000103C07002040420F00D2
:10D7E0000068C06C704770B504004FF0000503D0AE
:10D7F000206C002610B107E0012070BD204600F02B
:10D800001DF8666484F83C60206CC00610D4206C5F
:10D8100020F4885040F0020020642046FFF7DCF836
:10D820006664206C20F0020040F00100206400E0FB
:10D83000012584F83C60284670BD000010B586B014
:10D84000044614216846FEF782FD1149206888428B
:10D850001CD110480021026842F480720260006806
:10D8600000F4807005900B481438026842F0010201
:10D870000260006800F00100059002200090032083
:10D88000CDE901016946044800F096FB06B010BDE1
:10D890000020014044380240000002402DE9F041E0
:10D8A000044600680D4681684FF0000749050BD516
:10D8B0008068C00508D5206C40F02000206484F802
:10D8C0003C700120BDE8F08100F078FC064613E0D2
:10D8D000681C11D025B100F071FC801BA8420BD947
:10D8E00020680068800707D4206C40F004002064A2
:10D8F00084F83C700320E5E7206800688007E7D5DE
:10D9000021686FF012000860206C40F40070206401
:10D910002068816811F0405F13D1217E89B9C16A06
:10D9200011F4700F02D0806840050AD4206C20F4F6
:10D9300080702064206CC00403D4206C40F001008F
:10D9400020640020BEE7000018B50021009190F887
:10D950003C20012A07D0012280F83C20026893680D
:10D96000DB0702D011E0022018BD936843F00103E9
:10D970009360244A244B1268B2FBF3F202EB42029A
:10D9800000E0521E0092002AFBD102689368DB0778
:10D990002ED0036C40F20164A34343F4807303640C
:10D9A00053685B0505D5036C23F4005343F480539F
:10D9B0000364036CDB0404D5436C23F00603436467
:10D9C00000E0416480F83C1010496FF022031360BE
:10D9D00049680068C90602D00D49884210D18168A3
:10D9E00011F0405F0CD1816841F08041816007E017
:10D9F000016C41F010010164416C41F0010141648E
:10DA0000002018BD3C07002040420F0000230140C9
:10DA10000020014090F83C1001290CD0012180F831
:10DA20003C1001688A6822F001028A6001688968F6
:10DA3000C90702D007E002207047016C21F4885129
:10DA400041F001010164002180F83C100846704754
:10DA50002DE9F0410446876D00F0B0FB064694F8CE
:10DA600035000025022806D08020606584F83450F7
:10DA70000120BDE8F0812068016821F016010160F5
:10DA80002068416921F080014161206C08B9A06CD7
:10DA900020B12068016821F0080101602068016858
:10DAA00021F0010101600CE000F088FB801B0528DB
:10DAB00007D920206065032084F8350084F83450AD
:10DAC000D7E720680068C007EED194F85C103F20CB
:10DAD0008840B860012084F8350084F83450002074
:10DAE000C7E790F83510022903D080214165012055
:10DAF0007047052180F835100068016821F00101A8
:10DB000001600020704770B504002BD094F83500F8
:10DB1000022826D02068016821F0010101602068F8
:10DB20000025056020684560206885602068C56024
:10DB3000206805612168212048612046FFF730FBFD
:10DB4000E56325646564A564E564256594F85C2057
:10DB50003F2191408160656584F8355084F83450E8
:10DB6000002070BD012070BD2DE9F84304464FF040
:10DB70000009CDF8009063484FF41651A56D006878
:10DB8000B0FBF1F72E6894F85C10082000FA01F160
:10DB900031420FD021680A6852070BD50A6822F07B
:10DBA00004020A6094F85C108840A860606D40F040
:10DBB0000100606594F85C104FF0010808FA01F06C
:10DBC000304208D021684969090604D5A860606D13
:10DBD00040F00200606594F85C10042088403042F8
:10DBE00008D021680968890704D5A860606D40F0F5
:10DBF0000400606594F85C1010208840304218D012
:10DC000021680968090714D5A860206801684903DC
:10DC100004D50068000308D5A16C07E00168C905B8
:10DC200003D4016821F008010160216C09B120468C
:10DC3000884794F85C1020208840304231D0216819
:10DC40000968C9062DD5A86094F835000528206814
:10DC5000016806D0490347D5006800031DD4616CF4
:10DC60001CE021F0160101602068416921F080016B
:10DC70004161206C08B9A06C20B12068016821F0D6
:10DC80000801016094F85C103F208840A86084F887
:10DC9000358084F83490216D1FE0E16B09B1204696
:10DCA0008847606D00282BD0606DC00714D0052018
:10DCB00084F835002068016821F0010101600098B6
:10DCC000401C0090B84203D820680068C007F6D115
:10DCD00084F8358084F83490E16C002910D001B0CC
:10DCE0002046BDE8F04308470168C905D5D401685E
:10DCF00021F01001016084F8358084F83490CCE77D
:10DD0000BDE8F8833C0700202DE9F041044600F00F
:10DD100055FA06465CB1022084F83500002584F8E7
:10DD200034502068016821F0010101600DE00120FC
:10DD3000BDE8F08100F042FA801B052805D92020BB
:10DD40006065032084F83500F2E720680068C007AA
:10DD5000F0D12268116820480140D4E9010318433A
:10DD6000D4E903363343184363691843A36918435E
:10DD7000E3691843236A18430843616A042903D1FD
:10DD8000D4E90B1319430843106020684069666AA0
:10DD900020F0070130460E43012704280CD1A06A69
:10DDA0000643E06A40B12046FFF70EFA20B140205A
:10DDB000606584F83570BAE7206846612046FFF751
:10DDC000EFF994F85C203F2191408160656584F80B
:10DDD00035700020ACE700003F8010F02DE9F041E5
:10DDE0000446866D90F83400002501280DD00120EE
:10DDF00084F8340094F835700020012F07D084F89F
:10DE0000340002252846BDE8F0810220FBE7022706
:10DE100084F8357060652046FFF700FA94F85C10CE
:10DE20003F208840B0602068016841F01601016021
:10DE3000206C20B12068016841F008010160206871
:10DE4000016841F001010160DCE7000070B50446A3
:10DE500000F0B4F90546601C02D004480078044480
:10DE600000F0ACF9401BA042FAD370BD300700208F
:10DE70002DE9F04F0022DFF808B101264FF00F091D
:10DE800006FA02F401EA0403A34274D122F0030764
:10DE90005F44D7F8088895074FEA157C09FA0CFA11
:10DEA0000AEA0805DFF8DC80404502D14FF000089F
:10DEB0001DE0DFF8D480404502D14FF0010816E0A4
:10DEC000DFF8C880404502D14FF002080FE0DFF8CC
:10DED000C080404502D14FF0030808E0DFF8B4806D
:10DEE000404502D14FF0040801E04FF0070808FA5E
:10DEF0000CF8A84522D1284DD5F800C02CEA030C17
:10DF0000C5F800C02D1DD5F800C02CEA030CC5F8DB
:10DF100000C0214D0C35D5F800C02CEA030CC5F823
:10DF200000C02D1FD5F800C02CEA030CC5F800C0B6
:10DF3000D7F8085825EA0A05C7F8085805685700B1
:10DF40000323BB409D430560D50800EB8505D5F84C
:10DF500020C057074FEAD76809FA08F72CEA070CE0
:10DF6000C5F820C0C5689D43C5604568A5434560A8
:10DF700084689C438460521C102A81D3BDE8F08FD2
:10DF8000003001400000024000040240000802404E
:10DF9000000C024000100240003C014070470000AD
:10DFA000044910B50A68024202D00860FFF7F6FF84
:10DFB00010BD0000143C01402DE9F84FDFF8B8A176
:10DFC0000022012403254FF00F090AF1040BAAF1E6
:10DFD000040E00BF0B6804FA02F63340B34273D15B
:10DFE0000F7907F00307012F01D0022F16D18768A0
:10DFF0004FEA420805FA08FC27EA0C07D1F80CC0E2
:10E000000CFA08FC4CEA070CC0F808C04768B74394
:10E010000E79C6F3001696403E4346600E79F643ED
:10E02000B6070DD0C768560005FA06FC27EA0C07AC
:10E03000D1F808C00CFA06FC4CEA070CC0F80CC07A
:10E040000E7906F00306022E10D1D60800EB8608E2
:10E05000D8F8206057074FEAD76C09FA0CF7BE438F
:10E060000F6907FA0CF73743C8F8207006684FEAC3
:10E07000420C05FA0CF7BE430F7907F0030707FAC5
:10E080000CF7374307604E6816F4403F6DD03B4EA7
:10E09000376847F480473760366822F0030706F494
:10E0A00080460096364E07EB060CDCF808689707AA
:10E0B0003F0F09FA07F826EA0806DFF8C88040454E
:10E0C00003D14FF000081EE04FE0DFF8BC80404570
:10E0D00002D14FF0010816E0DFF8B080404502D1D0
:10E0E0004FF002080FE0DFF8A880404502D14FF062
:10E0F000030808E0DFF89C80404502D14FF0040897
:10E1000001E04FF0070808FA07F848EA0608CCF8DB
:10E110000888DAF800605746D1F804C09E435FEAE9
:10E12000CC2C00D51E433E60DBF800605F46D1F882
:10E1300004C09E435FEA8C2C00D51E433E60DEF88F
:10E1400000607746D1F804C09E435FEA8C3C00D55E
:10E150001E433E60084F083F3E68D1F804C09E430E
:10E160005FEACC3C00D51E433E60521C102AFFF4EF
:10E1700031AFBDE8F88F0000083C01404438024050
:10E18000003001400000024000040240000802404C
:10E19000000C0240001002400069084000D001203D
:10E1A0007047426921EA02030A4043EA0241816161
:10E1B00070470AB1816170470904FBE70148806834
:10E1C000704700003007002002488168027811443F
:10E1D00081607047300700200B4810B5016841F49A
:10E1E00000710160016841F480610160016841F4DF
:10E1F00080710160032000F0A9F80F2000F006F8FC
:10E2000000F04AF8002010BD003C024030B5054641
:10E210001C4887B00024016841F0010101600068DA
:10E2200006A900F00100009001A800F001FA00F03A
:10E230002FFA1549154AB0FBF1F11548491E026045
:10E2400040F2E732C0E90324C0E90114846101F01F
:10E2500069F8040012D10E4801F092F804000DD1C3
:10E26000192000F046F8102D07D200222946192067
:10E2700000F04CF80748056000E0012407B0204694
:10E2800030BD00004438024040420F000000014011
:10E29000A80C0020340700200C4882B0016841F42B
:10E2A00080410160006800F4804000900748001F32
:10E2B000016841F0805101600068002200F0805048
:10E2C00000900F21901E02B000F020B844380240A8
:10E2D00000280DDB00F01F02012191404009800061
:10E2E00000F1E020C0F88011BFF34F8FBFF36F8FB4
:10E2F0007047002809DB00F01F020121914040090E
:10E30000800000F1E020C0F800117047F0B40E4B1F
:10E310001B680C46C3F30223C3F10705042D00D983
:10E320000425191D072901D2002300E0DB1E012668
:10E3300006FA05F1491E214099409E40761E16407E
:10E340003143F0BC04F08FBF0CED00E0064900F053
:10E35000070208684FF6FF03184040EA0220034A0C
:10E3600010430860704700000CED00E00000FA0563
:10E370000B4A136823F00303034313600948026840
:10E3800042F004020260012907D040BF20BF20BF35
:10E39000016821F004010160704730BFF8E7000018
:10E3A0000070004010ED00E02DE9F84304460068DD
:10E3B0004FF00109C1074FF0000601D1400729D5F0
:10E3C000DFF82081C8F86860FFF7F8FE0746464D81
:10E3D00005E000BFFFF7F2FEC01B022859D82868ED
:10E3E0000001F7D4A068217B800140EA01706168D8
:10E3F00008433D4984310860C8F86890FFF7DEFEA5
:10E40000074604E0FFF7DAFEC01B022841D828685F
:10E410000001F7D52078800752D533484030016895
:10E4200041F0805101600068304D00F08050009054
:10E43000286840F480702860FFF7C0FE074604E0BB
:10E44000FFF7BCFEC01B022823D82868C005F7D5FB
:10E45000254D7035286810F4407020D0218A01F4D1
:10E46000407181421BD02868214920F44070C1F8D6
:10E4700000900E6028602868C00710D0FFF79EFE4D
:10E48000064641F2883707E0FFF798FE801BB84246
:10E4900002D90320BDE8F88328688007F4D52169F4
:10E4A0001148C1F301220830032A12D0016821F477
:10E4B000F81101602868218AC1F30B010843286024
:10E4C0002078000703D50B49207DC1F8E00100202A
:10E4D000E0E70268084B22F4F81219400A43026090
:10E4E000E8E70000000047420038024000700040AA
:10E4F000400E474200104742FFFCFF0F2DE9F04756
:10E500000E46050065D0DFF81481D8F80000F7B298
:10E5100000F00700B04207D288F80070D8F8000079
:10E5200000F00700B04254D128683D4C810712D555
:10E53000400703D5206840F4E050206028780007A9
:10E5400003D5206840F4604020602068A96820F06E
:10E55000F000084320602878C0072DD03049686853
:10E560000839012812D0022813D0032811D00968D5
:10E57000890700292DDA216821F003010143216078
:10E58000FFF71CFE814641F2883A0EE009688903D4
:10E59000EFE709688901ECE7FFF710FEA0EB09013E
:10E5A000514502D90320BDE8F0872068696800F072
:10E5B0000C00B0EB810FEFD1D8F80010404601F00D
:10E5C0000701B14207D90770006800F00700B042A8
:10E5D00001D00120E7E72878400705D52068E968E1
:10E5E00020F4E050084320602878000706D5206812
:10E5F000296920F4604040EAC100206000F058F82A
:10E600002168084AC1F30311515CC84006490860FB
:10E6100006480068FFF7FAFD0020C4E7003C02400E
:10E6200008380240783A05083C07002034070020EB
:10E630000F2202600C4A136803F00303436013685F
:10E6400003F0F0038360136803F4E053C3601268BF
:10E650004FF4E05303EAD20202610448006800F07C
:10E66000070008607047000008380240003C024084
:10E670000448054900680968044AC1F38221515CD5
:10E68000C84070473C07002008380240883A050817
:10E690000448054900680968044AC1F34231515CE5
:10E6A000C84070473C07002008380240883A0508F7
:10E6B000154810B5006810F00C02144813D0144926
:10E6C000042A0FD0082A0ED10F4C241F2268236879
:10E6D00002F03F025B0207D52068C0F38810A0FB60
:10E6E000010106E0084610BD2168C1F38811A1FBB5
:10E6F00000010023FDF7CEFD2168C1F30141491C53
:10E700004900B0FBF1F010BD083802400024F400CD
:10E7100040787D012DE9F84F04006ED02078DFF8B5
:10E720004C93C007A9F104054AD009F1040001681F
:10E73000C1F38101012908D00068C0F381000228DB
:10E740000AD1D9F80000400206D52868800337D5E1
:10E7500060680028E1D033E06068B0F5803F10D0F9
:10E76000B0F5A02F286810D020F4803028602868E9
:10E7700020F4802028606068A8B1FFF71FFD0646DE
:10E780000DE0286840F48030F4E740F480202860F1
:10E79000F7E700BFFFF712FD801B642873D82868D5
:10E7A0008003F7D50CE0FFF709FD064605E000BF42
:10E7B000FFF704FD801B6428F0D828688003F7D495
:10E7C0002078DFF8AC8280074FF0000A3ED5A748DA
:10E7D000001D016811F00C0F08D00068C0F3810023
:10E7E00002280BD1D9F80000400207D4286880071E
:10E7F00016D5E068012800D112E033E1E068B8B135
:10E800000120C8F80000FFF7D9FC064605E000BF6C
:10E81000FFF7D4FC801B0228C0D828688007F7D5F2
:10E820002868216920F0F80040EAC10028600DE066
:10E83000C8F800A0FFF7C2FC064604E0FFF7BEFCE4
:10E84000801B02281FD828688007F7D4207800078B
:10E8500022D5864F87486169703771B10121016007
:10E86000FFF7ACFC064604E0FFF7A8FC801B02287B
:10E8700009D838688007F7D50EE0C0F800A0FFF788
:10E880009DFC064605E082E0FFF798FC801B02280D
:10E890007DD838688007F7D42078400768D5DFF83E
:10E8A000CCB100270BF13C0BDBF80000C0000BD40F
:10E8B000DBF8001041F08051CBF80010DBF80000CD
:10E8C000012700F0805000906B4E3068C00510D4D6
:10E8D000306840F480703060FFF770FC009005E015
:10E8E000FFF76CFC0099401A022850D83068C00528
:10E8F000F6D55E4EA0686C3601280FD0052830682A
:10E9000010D020F001003060306820F0040030604A
:10E91000A068B8B1FFF752FC00900FE0306840F0FB
:10E920000100F4E740F004003060F7E7FFF746FC31
:10E930000099411A41F28830814266D830688007D8
:10E94000F4D50EE0FFF73AFC009007E0FFF736FC45
:10E950000099411A41F28830814256D830688007C8
:10E96000F4D42FB1DBF8001021F08051CBF8001067
:10E97000A069C8B33D49091D0968C1F38101022995
:10E980004AD00228504607D0C8F8600000E03CE0BA
:10E99000FFF714FC04463BE04746C8F86000FFF769
:10E9A0000DFC064605E000BFFFF708FC801B0228AF
:10E9B0002BD828688001F7D4D4E907010843A16A5D
:10E9C0002E4A490802EB0141626A41EA821108437A
:10E9D00094F82C1040EA0161C9F800100120386653
:10E9E000FFF7ECFB044606E03EE000BFFFF7E6FB66
:10E9F000001B022809D828688001F7D534E000BF41
:10EA0000FFF7DCFB001B022802D90320BDE8F88FCA
:10EA100028688001F4D427E00128F7D0D9F8000055
:10EA2000E26900F4800191421CD1226A00F03F01AA
:10EA3000914217D147F6C071626A0140B1EB821F63
:10EA400010D1A26A4FF0FF3300F4403103EB5202C1
:10EA5000B1EB024F06D194F82C1000F07060B0EBCF
:10EA6000016F01D00120D1E70020CFE70438024038
:10EA700000004742800E4742007000400000FFFF48
:10EA80000068503050F8210070470068503040F85E
:10EA9000212070472DE9F8478A4639494FF4FA4C4E
:10EAA00091460F684FF47A72B7FBFCF15143009125
:10EAB000017F012962D00125057702214177026893
:10EAC000CA21516202685321516201688A684FF07D
:10EAD000000352054FF0FF044FF0030608D5009ADB
:10EAE000B2F10108CDF8008018D3CA685207F6D4F5
:10EAF0008A6822F480628A600168CA6802F0800233
:10EB000062F49062CA60B7FBFCF14FF47A72514331
:10EB100000910168009A571E009705D24C62467713
:10EB200003770320BDE8F887CA685207F2D58A68E0
:10EB300022F007028A6001688A6842EA09028A6054
:10EB40000268C2F814A00F490A6842F480020A6001
:10EB50000C4908310A6842F480020A6001688A6838
:10EB600042F480428A6001688A6842F480628A6066
:10EB700001684C62457703770020D3E70220D1E794
:10EB80003C070020003C01407047000010B50446DF
:10EB90000068C068400509D52046FFF7F5FF2068EA
:10EBA000C16801F0800161F49061C16003494FF4D4
:10EBB000800008600120607710BD0000143C014017
:10EBC00010B500680B4641680D480140080CD8702C
:10EBD000C1F304245C7001F03F049C70C1F3423126
:10EBE000197052B903F0ECF8D870587803F0E8F8CF
:10EBF0005870987803F0E4F89870002010BD000079
:10EC00003FFFFF0010B50B460168896A5960016833
:10EC10000969C1F30E019960006801680D4801405F
:10EC2000C1F305401870C1F306245C7001F07F0445
:10EC30009C70890DD97052B903F0C2F818705878D9
:10EC400003F0BEF85870987803F0BAF89870002076
:10EC500010BD00007F7F7F0010B5040002D0607FF0
:10EC600010B106E0012010BD00202077204600F002
:10EC700039F8022060772168CA2048622168532051
:10EC80004862204603F0B2F830BB20688168144A1D
:10EC9000114081602168886862681043D4E90423C8
:10ECA0001A43104388602168E068086120680169A0
:10ECB000228941EA02410161204603F0BBF858B9BC
:10ECC00021680A6C22F480220A6421680A6CA36914
:10ECD0001A430A64012161772268FF21516210BD45
:10ECE000BFFF8FFF10B586B0044618216846FDF7B8
:10ECF0002EFB0D492068884214D102200090C001EB
:10ED000004906846FFF750FB08B1FEF719FC07496D
:10ED100001200860002205210320FFF7F7FA0320F5
:10ED2000FFF7E7FA06B010BD002800403C0E47424E
:10ED300070B50446007F0B46012819D001262677BE
:10ED400002206077B2B19878D97840EA01455878C6
:10ED50001978000240EA413005432168CA20486220
:10ED6000216853204862204603F040F8D0B122E0E9
:10ED7000022070BD5878C10603D500F0EF000A30BC
:10ED80005870D87803F025F80204587803F021F879
:10ED900042EA0022987803F01CF80243187842EA0D
:10EDA0004035DAE70748054020684560204603F013
:10EDB00041F800B966772268FF215162002121776E
:10EDC00070BD00003FFFFF002DE9F0410446007FC9
:10EDD0000D46012823D04FF0010884F81C80022042
:10EDE00060772068002780684FEA4060D2B1002831
:10EDF00000DBEF70A878297840EA01466878E97866
:10EE0000000240EA815006432168CA204862216816
:10EE100053204862204602F0E9FFB8B12CE00220FE
:10EE2000BDE8F081002800DBEF70287802F0D1FF08
:10EE30000204687802F0CDFF42EA0022A87802F0CE
:10EE4000C8FF0243E87842EA8056DDE70D480640F5
:10EE5000206806602068816821F480218160D5E9FE
:10EE60000301084321688A6810438860204602F045
:10EE7000E1FF08B984F81D802268FF2151622777DD
:10EE8000CEE700007F7F7F0070B504460068C16850
:10EE900021F0A001C160FFF791F905464FF47A76A1
:10EEA00007E000BFFFF78AF9401BB04201D90320F9
:10EEB00070BD2068C0688006F4D5002070BD704722
:10EEC00070B5040009D0606A002540B12561656114
:10EED000A56294F8510040B10CE0012070BD60685B
:10EEE000B0F5827FF4D0E561F2E784F85050204617
:10EEF00000F044F8022084F851002068016821F0F5
:10EF000040010160A088218900F4827001F404416D
:10EF10000843A18901F400610843217C01F002014A
:10EF20000843217D01F001010843218B01F40071A8
:10EF30000843217F01F03801084394F8201001F0C4
:10EF400080010843218D01F40051084321680860C5
:10EF5000A069042101EA104094F8241001F0100186
:10EF60000843216848602068C16921F40061C161DB
:10EF70006565012084F85100002070BD70B586B031
:10EF8000064614216846FDF7E2F9204930688842B8
:10EF90003AD11F480025016841F4805101600068A2
:10EFA00000F4805005901A481438016841F00201BD
:10EFB00001600068694600F002000590282000907A
:10EFC0000220CDE90105032003900520049011489B
:10EFD000FEF7F2FF114C104820604FF08060606037
:10EFE0004020C4E90205000120614000606180000A
:10EFF000C4E90605256220466562FEF785FE08B174
:10F00000FEF79EFAB464A66306B070BD00300140FE
:10F01000443802400004024040640240E00A0020FC
:10F020002DE9F84F044690F8500000271D4616467B
:10F03000894601280DD04FF0010B84F850B0FFF73E
:10F04000BDF8804694F85100BA46012804D0022742
:10F0500093E00220BDE8F88FB9F1000F73D0002EC5
:10F0600071D0032084F85100C4F854A0C4F8309043
:10F07000A686E686C4F838A0A4F83CA0A4F83EA072
:10F08000C4F844A0C4F840A0A068B0F5004F09D16E
:10F090002068016821F0400101602068016841F4A6
:10F0A0008041016020680168490603D4016841F08D
:10F0B00040010160E068B0F5006F606803D030B3D4
:10F0C000012E24D041E008B1012E1CD1206B216813
:10F0D0000088C86006E020688168890709D5216B2F
:10F0E0000988C160206B801C2063E08E401EE08692
:10F0F00009E0FFF763F8A0EB0800A84202D3681C00
:10F1000001D031E07DB3E08E0028E4D120E0206B17
:10F1100021680078087306E020688168890709D5AE
:10F12000216B09780173206B401C2063E08E401E28
:10F13000E0860AE0FFF742F8A0EB0800A84203D3FC
:10F14000681C02D010E017E06DB1E08E0028E3D11A
:10F1500042462946204602F04DFF08B12020606556
:10F16000A06818B106E0FFE7032706E02068C16841
:10F1700080680090606D00B1012784F851B084F878
:10F1800050A0384666E700002DE9F041044690F8AB
:10F1900050000026012809D0012784F8507094F807
:10F1A00051000025012804D002264EE00220BDE8CF
:10F1B000F08189B182B1032084F851006565216333
:10F1C000A286E286A56365642564A587E587A068B5
:10F1D000B0F5004F02D00BE0012636E02068016850
:10F1E00021F0400101602068016841F48041016024
:10F1F000A16C18480864A16C1748C863A16C174833
:10F20000C864A06C0565E38E2268216B0C32A06C8B
:10F21000FEF7E4FD38B1606D40F010006065012636
:10F2200084F8517011E020680168490603D4016830
:10F2300041F0400101602068416841F020014160D7
:10F240002068416841F00201416084F85050304626
:10F25000ADE70000851F01088F1F0108631F01082B
:10F26000704770474FF0E0210428086903D020F070
:10F2700004000861704740F00400FAE710B5401E32
:10F28000B0F1807F01D3012010BD4FF0E024606118
:10F290000F21601703F0E7FF0020A0610720206125
:10F2A000002010BD7047704770B590F83C20012ACF
:10F2B0002CD0012480F83C40022280F83D200368D5
:10F2C0005A689D6822F070060A6832435A60104BF3
:10F2D00002689A420ED0B2F1804F0BD00D4B9A4289
:10F2E00008D00D4B9A4205D00C4B9A4202D00C4BE1
:10F2F0009A4204D1496825F080031943916080F84F
:10F300003D40002180F83C10084670BD022070BDD1
:10F31000000001400004004000080040000C0040D4
:10F320000040014010B5040003D094F83D0010B136
:10F3300007E0012010BD002084F83C00204600F0CA
:10F340001EF8022084F83D00211D206803F064FAB5
:10F35000012084F8460084F83E0084F83F0084F8D9
:10F36000400084F8410084F8420084F8430084F8A7
:10F37000440084F8450084F83D00002010BD70472B
:10F3800090F83D10012901D001207047022180F83A
:10F390003D100168CA6842F00102CA6000680E4967
:10F3A00088420ED0B0F1804F0BD00C49884208D073
:10F3B0000B49884205D00B49884202D00A4988424D
:10F3C00004D1816801F00701062903D0016841F0EA
:10F3D000010101600020704700000140000400406E
:10F3E00000080040000C004000400140704770B52C
:10F3F0000446006801694FF00005C943890715D428
:10F40000C168C943890711D4E91E01610120207731
:10F41000206880698007204602D0FFF7E7FF04E0FC
:10F4200000F0C0F8204600F065F9257720680169F2
:10F43000C943490717D4C168C943490713D46FF0BA
:10F4400004010161022020772068806910F4407F68
:10F45000204602D0FFF7CAFF04E000F0A3F82046E0
:10F4600000F048F9257720680169C943090716D4D7
:10F47000C168C943090712D46FF008010161042073
:10F4800020772068C0698007204602D0FFF7AEFFD2
:10F4900004E000F087F8204600F02CF9257720687A
:10F4A0000169C943C90617D4C168C943C90613D441
:10F4B0006FF010010161082020772068C06910F406
:10F4C000407F204602D0FFF791FF04E000F06AF889
:10F4D000204600F00FF9257720680169C943C90764
:10F4E00008D1C168C943C90704D1891E01612046FA
:10F4F00000F05AF920680169C943090609D4C168B6
:10F50000C943090605D46FF0800101612046FFF769
:10F51000C9FE20680169C943490609D4C168C943C5
:10F52000490605D46FF040010161204600F046F91C
:10F5300020680169C94389060BD4C168C94389069B
:10F5400007D46FF0200101612046BDE87040FFF74D
:10F55000AABE70BD10B586B0044614216846FCF7FB
:10F56000F6FE0D492068884214D10C48002102683B
:10F5700042F002020260006800F0020005900120E3
:10F5800000900220CDE90101CDE90310694604484D
:10F59000FEF712FD06B010BD0004004030380240F6
:10F5A00000040240704770B5044690F83C00002605
:10F5B0000D4601280FD0012084F83C006AB1042ACE
:10F5C0001DD0082A2FD00C2A3FD00126002084F815
:10F5D0003C00304670BD022070BD206803F076F913
:10F5E0002068816941F0080181612068816921F00A
:10F5F00004018161206881692A69114311E0206852
:10F6000003F08CF92068816941F400618161206810
:10F61000816921F480618161206881692A6941EAF8
:10F6200002218161D2E7206803F0A4F92068C16952
:10F6300041F00801C1612068C16921F00401C16184
:10F640002068C1692A69114311E0206803F0BEF9FE
:10F650002068C16941F40061C1612068C16921F479
:10F660008061C1612068C1692A6941EA0221C161E2
:10F67000ACE710B5040003D094F83D0010B107E0EA
:10F68000012010BD002084F83C00204600F01EF848
:10F69000022084F83D00211D206803F0BDF8012000
:10F6A00084F8460084F83E0084F83F0084F8400067
:10F6B00084F8410084F8420084F8430084F8440050
:10F6C00084F8450084F83D00002010BD08B50068AE
:10F6D0000649884208D10648016841F002010160EC
:10F6E000006800F00200009008BD00000004004027
:10F6F000403802407047000010B50446022249B16C
:10F7000004290ED0082913D094F84100012816D0FE
:10F71000012010BD94F83E000128F9D184F83E2064
:10F720000FE094F83F000128F2D184F83F2008E070
:10F7300094F840000128EBD184F8402001E084F8DF
:10F7400041200122206803F0B3F812492068884262
:10F7500003D1426C42F400424264206888420ED0D9
:10F76000B0F1804F0BD00C49884208D00B49884239
:10F7700005D00B49884202D00A49884204D18168E9
:10F7800001F00701062903D0016841F00101016081
:10F79000002010BD000001400004004000080040AF
:10F7A000000C00400040014000680349884201D13C
:10F7B000FEF70ABD70470000000001407047704727
:10F7C00010B504460068406994F83D10C0F3C010BD
:10F7D000212911D180B12068143050E8001F21F098
:10F7E000800140E80012002AF5D1606B08B1FEF7F5
:10F7F0002FF9204603F06AFA2068406994F83E1019
:10F80000C0F38010222911D180B12068143050E853
:10F81000001F21F0400140E80012002AF5D1A06B42
:10F8200008B1FEF715F9204603F029FA002010BDB3
:10F8300070470000F8B5016804460868CA684B695B
:10F8400010F00F0F4FF0000559D003F0010602F43D
:10F850009077374365D0C10705D0D10503D5216C1A
:10F8600041F001012164410705D5D90703D0216C7E
:10F8700041F002012164810705D5D90703D0216C2D
:10F8800041F004012164010707D502F02001314352
:10F8900003D0216C41F008012164216C00293AD089
:10F8A000800604D5900602D5204603F01DFA206894
:10F8B0004069216CC0F38010090700D460B3204672
:10F8C00003F0DDF920684069400621D52068143036
:10F8D00050E8001F21F0400140E80012002AF5D155
:10F8E000A06BA8B16C490165A06BFEF7FAF800287F
:10F8F00011D0A06B016D01B0BDE8F0400847830650
:10F900000FD593060DD52046BDE8F84003F0ECB9BD
:10F910002046FFF78DFFF8BD2046FFF789FF2564DD
:10F92000F8BD266B2023012E79D1C60677D5D606E1
:10F9300075D50868486800904869400640D5A16BB5
:10F94000086840680004000CEAD0A28D8242E7D922
:10F95000E085C869B0F5807F2DD020680C3050E874
:10F96000001F21F4807140E80012002AF5D12068C0
:10F97000143050E8001F21F0010140E80012002A75
:10F98000F5D12068143050E8001F21F0400140E814
:10F990000012002AF5D184F83E30256320680C302F
:10F9A00050E8001F21F0100140E80012002AF5D1B4
:10F9B000A06BFEF74DF8A08DE18D401A81B229E0D1
:10F9C000A08DE18D401A81B2E08D0028A8D00029D9
:10F9D000A6D020680C3050E8002F22F4907240E846
:10F9E0000026002EF5D12068143050E8002F22F0B8
:10F9F000010240E80026002EF5D184F83E30256350
:10FA000020680C3050E8002F22F0100240E800235C
:10FA1000002BF5D12046FFF7D2FEF8BDFFE7050623
:10FA20002BD5150629D594F83D002128F5D1A068DD
:10FA3000B0F5805F01D12069B0B1206A411C21621C
:10FA4000216800784860E08C401E0004000CE084CF
:10FA5000E3D12068C16821F08001C1602068C168DD
:10FA600041F04001C160D8E7206A0088C0F3080077
:10FA70004860206A801C2062E5E74006CDD550062C
:10FA8000CBD5CA68204622F04002CA6084F83D30D7
:10FA900000F03DF9C1E70000892B010870B50400B2
:10FAA00004D094F83D00002510B106E0012070BD9F
:10FAB00084F83C50204600F045F8242084F83D00AE
:10FAC0002068C16821F40051C160204603F06CF940
:10FAD0002068016921F4904101612068416921F0A9
:10FAE0002A0141612068C16841F40051C160256468
:10FAF000202084F83D0084F83E00002070BD000006
:10FB000010B5044600680C49884214D10B480168BE
:10FB100021F0100101604FF4C0610948FEF7A8F917
:10FB2000A06BFDF7F0FF606BFDF7EDFFBDE8104047
:10FB30002520FEF7CDBB10BD001001404438024027
:10FB4000000002402DE9F04186B0064614216846C7
:10FB5000FCF7FDFB30493068884259D12F4800241A
:10FB6000016841F010010160006800F0100005908C
:10FB70002A481438016841F00101016000686946B3
:10FB800000F0010005904FF4C06000900220CDE924
:10FB9000010403200390072004902148FEF70CFA8B
:10FBA000214D20484FF000672860C5E901744FF4EB
:10FBB0008068C5E903486C61AC61EC612C62284641
:10FBC0006C62FEF7A1F808B1FDF7BAFCB563AE634D
:10FBD000154D144860353030E5E802074020A5E8AF
:10FBE0001101114845F814496030AC61EC612C6298
:10FBF0006C62FEF789F808B1FDF7A2FC756300227C
:10FC000005212520AE63FEF781FB2520FEF771FB61
:10FC100006B0BDE8F0810000001001404438024009
:10FC20000000024088640240CC0B002090F83E3077
:10FC3000202B0ED159B152B190F83C30012B08D095
:10FC4000012380F83C300023036303F033B9012023
:10FC50007047022070477047704700002DE9F84355
:10FC6000044690F83D001F4616460D4620284CD10C
:10FC7000C5B1BEB194F83C00012846D0012084F8FB
:10FC80003C004FF00008C4F84080212084F83D007B
:10FC9000FEF794FAA6848146E684A068B0F5805FFA
:10FCA00003D004E00120BDE8F883206928B12E4686
:10FCB0005FF0000584F83C800EE00026FAE7802122
:10FCC000204603F041F9A0B9AEB116F8010B216846
:10FCD0004860E08C401EE084E08C4B464FF0000210
:10FCE00000970028EBD14FF04001204603F02CF99B
:10FCF00030B10320D7E735F8020BC0F30800E6E780
:10FD0000202084F83D000020CDE70220CBE770479B
:10FD100008B50020184E194FDFF86480194C8DF893
:10FD2000000000BF01F0DEFE8068B0421FD1012359
:10FD300000226946386821F041FEFDF749FB94F83E
:10FD40006800A0B92CF044FBFDF70AFBD8F80010BE
:10FD500000F02EF8C5B22DF0F3F894F86900A8422F
:10FD600005D0322D03D9782D01D284F86950322084
:10FD700021F08AFDD6E70000280400205000002072
:10FD800060000020640000201CB5064806A190F821
:10FD90006920684603F040FA04486946406819F053
:10FDA000FFF81CBD6400002025640000280400202A
:10FDB00070B504460D462B4810F0F5FF10B12948E8
:10FDC00008F028FA2748203010F0EDFF18B1254838
:10FDD000203008F01FFA2348403010F0E4FF18B13B
:10FDE0002048403008F016FA21461E480DF0D6FF94
:10FDF0001C48294620300DF0D1FF1A481A4CD0E992
:10FE0000032191422CD38268914229D342689142C6
:10FE100026D94269914223D38269914220D3C06995
:10FE200081421DD90F48A11C203002690888131A8D
:10FE3000B3F5D57F14D3488092B20A80101A4EF6DB
:10FE4000602191FBF0F1074840300DF0A7FF054815
:10FE50004030C16921B10721001D00F08BFA2070EC
:10FE6000207870BD580E0020B8070020034A92F891
:10FE70004820002A01D1FCF75BBE704764000020D7
:10FE8000FCF73EBE00F0C2BC00F0C8BC02F04AB9AC
:10FE900001F020B801F072B8FDF7B2BAFDF780BAF0
:10FEA00000F034BF08B500200090054890F82C0001
:10FEB00010B9684608F02DFB009880B208BD00001C
:10FEC0006400002020F08CBE044991F82C1011B180
:10FED0004FF0FF30704708F075BB00006400002051
:10FEE0000249002081F831007047000064000020C2
:10FEF0000249012081F831007047000064000020B1
:10FF000001F032BE01F0C6BE01F0B4BE10B586B03D
:10FF100004001FD0002269460F48FEF773FE00223E
:10FF200005A90D48FEF74CFE9DF81700E0709DF8FE
:10FF3000151061709DF81620A27014232CF02AFB76
:10FF400020709DF8000020719DF8010060719DF8FF
:10FF50000200A07106B010BD680A002001F080BF49
:10FF600001F098BF10B5012901D0022903D1401E2C
:10FF70000C31C0B2C9B21A24491C11FB04F10A2485
:10FF8000B1FBF4F100EB900000EB93000844104447
:10FF9000594200EB4100401E00E0C01D0028FCDB80
:10FFA000072190FBF1F201FB120000B90720C0B25B
:10FFB00010BDFEE788B04FF4FA6ADFF8FC81DFF885
:10FFC000FC917F4C5FF000052CF002FA00225146B4
:10FFD0007C48FEF75FFD08B1FDF7B2FA19227A49B5
:10FFE0007548FFF723FED8F80000C16841F0100102
:10FFF000C16008217548FFF77FFB08F0D1F8E06980
:020000040801F1
:10000000804700F0CBFC032606E0761EE06CF6B2DB
:10001000804784F848001EB194F848000028F4D1C5
:10002000032606E0761E206EF6B2804784F85C0058
:1000300026B194F85C000028F4D102E094F85C004A
:1000400008B9606E8047032606E0761EA06DF6B202
:10005000804784F854001EB194F854000028F4D16D
:10006000032094F8341005E0401E10F0FF0084F8DF
:100070002C1003D094F82C20002AF5D1032606E09A
:10008000761EE06EF6B2804784F8680026B194F8D8
:1000900068000028F4D102E010F0FF0F01D1206FBA
:1000A0008047FDF75BF9FDF724F990BB0222102190
:1000B000684602F0C7F99DF8000008B1012804D194
:1000C0009DF8011031B1012904D084F8315089F82C
:1000D000005003E084F8310089F80010002201A9E3
:1000E0003848FEF76DFD03222021684602F0AAF988
:1000F0009DF800009DF8061088420AD19DF8010085
:100100009DF8021041EA002094F82C1009B908F07B
:1001100059FA00F08BFB00F079FBFCF7DBFEFCF7F3
:1001200043FF00F01DFD00214FF48C73F0220846C0
:10013000009500F0CCFC0A2008F048F8322000F0CE
:10014000E5FD1826CDE900564FF6FF773B4620A285
:100150008C214820029500F06FFE032000900423BC
:1001600002221EA103A803F057F8CDE900563B4632
:1001700003AABC212220029500F05EFE4FF47A70A3
:1001800008F024F8BD23F02274210020009500F02F
:100190009EFC18F039F81DF0BBF91DF0DDF92BF0CD
:1001A000FBFB2CF0CDFE00202CF044F84FF4FA704D
:1001B00021F06AFB08E70000880B0020DC0100202A
:1001C00064000020680A00208C0C0020400B0020F6
:1001D00057656C636F6D6521000000004F562D5709
:1001E00061746368205625642E25642E2564000002
:1001F00070B586B001F076FC8068534988427DD1A5
:10020000524D6846296888474F4C9DF80520103CA0
:100210006078824208D062704DA102A802F0FCFF13
:1002200002A9E06918F0BCFE9DF804202078824203
:1002300008D0227048A102A802F0EEFF02A960696E
:1002400018F0AEFE404E9DF80230E0789C368342B6
:1002500014D0E3709DF800002071A2783FA102A89D
:1002600002F0DAFF02A9E06A18F09AFE207906EBA4
:10027000800050F8041C206B18F092FE9DF80120BD
:10028000A078824216D0A2709DF80230E3709DF8EB
:100290000000207131A102A802F0BEFF02A9E06AAD
:1002A00018F07EFE207906EB800050F8041C206BCD
:1002B00018F076FE297E607981420CD06171206A47
:1002C00011F0D1FE627928A102A802F0A5FF02A9CF
:1002D000A06A18F065FEEA8DA089824208D0A2814A
:1002E00023A102A802F098FF02A9E06B18F058FEC3
:1002F00095F9491094F90900814200E022E00DD0FF
:100300006172606C11F0AFFE94F9092018A102A887
:1003100002F082FF02A9E06C18F042FE95F94A1043
:1003200094F90A0081420DD0A172606D11F09BFE1C
:1003300094F90A200EA102A802F06EFF02A9A06D96
:1003400018F02EFE06B070BD4C03002064000020A3
:100350002530326400000000253264002532642D0F
:10036000253032640000000025326425250000009D
:100370002564000010B5002205E000BF50F82240BF
:10038000521C2344D2B28A42F8D3B3FBF1F010BD21
:1003900010B586B0044614216846FBF7D8FF2089C3
:1003A000009001200190029002200390694620688D
:1003B000FDF702FE6089009069466068FDF7FCFD6C
:1003C00006B010BD70B506460824002501F096FD64
:1003D00013E06806050E0021304601F07DFD022085
:1003E00007F001FF0121304601F076FD012007F002
:1003F000FAFE304601F079FD0543641EE4B2E8D20E
:100400000021304601F068FD304601F095FD284698
:1004100070BD10B50446002101F085FD012007F0F4
:10042000E2FE0121204601F057FD012007F0DBFE2E
:100430000021204601F050FDBDE81040012007F0EA
:10044000D2BE000070B50C460646082519E000BF74
:1004500001F042FD022007F0C6FE04F080013046A4
:1004600001F061FD012007F0BEFE6006040E0120D0
:1004700007F0B9FE0121304601F02EFD012007F002
:10048000B2FE6D1EEDB24FF000013046E0D201F039
:1004900023FDBDE87040022007F0A5BE10B504465C
:1004A000012101F040FD012007F09DFE01212046C1
:1004B00001F012FD012007F096FE0021204601F018
:1004C0000BFDBDE81040022007F08DBE10B50446BC
:1004D000012101F028FD022007F085FE01212046C0
:1004E00001F0FAFC012007F07EFE0021204601F019
:1004F0001AFD012007F077FE0021204601F0ECFCF8
:10050000BDE81040012007F06EBE10B50446002182
:1005100001F0E2FC022007F066FE0021204601F017
:1005200002FD012007F05FFE0121204601F0D4FC0E
:10053000012007F058FE0121204601F0F4FCBDE83F
:100540001040012007F04FBE70B50546052401F0AC
:10055000D5FC0121284601F0BFFC05E0641EA4B2D1
:10056000012007F040FE84B1284601F0BEFC0028BF
:10057000F4D1284601F0E0FC0021284601F0ACFC53
:10058000022007F030FE002070BD284601F0D4FCA8
:100590002846FFF7BAFF012070BD00002DE9F041A9
:1005A0001D4617460C468046069EFFF78FFF6006E5
:1005B000010E4046FFF746FF4046FFF7C5FF28B152
:1005C0004046FFF7A2FF0120BDE8F08139464046D2
:1005D000FFF738FF4046FFF7B7FF4046FFF776FFCB
:1005E000012000EB4400C1B24046FFF72BFF40461C
:1005F000FFF7AAFF00246F1E0AE000BFFFF7E2FE2C
:100600003055BC4202DA4046FFF703FF641CE4B2F7
:10061000AC424046F2D3FFF741FF4046FFF775FF7B
:100620000020D1E770B516460C460546FFF74EFF91
:100630006006010E2846FFF705FF2846FFF784FFF6
:1006400031462846FFF7FEFE2846FFF77DFF284685
:10065000FFF73CFF012000EB4400C1B22846FFF742
:10066000F1FE2846FFF770FF2846FFF7ABFE044671
:100670002846FFF713FF2846FFF747FF204670BDC7
:100680002DE9F0411D4617460C468046069EFFF7B1
:100690001DFF6006010E4046FFF7D4FE4046FFF7FF
:1006A00053FF28B14046FFF730FF0120BDE8F0813D
:1006B00039464046FFF7C6FE4046FFF745FF002497
:1006C00008E0315D4046FFF7BDFE4046FFF73CFFC6
:1006D000641CE4B2AC42F4D34046FFF716FF01209D
:1006E00007F081FD0020E1E72DE9F0411D461646A7
:1006F0000C460746FFF7EAFE6006010E3846FFF794
:10070000A1FE3846FFF720FF28B13846FFF7FDFE6F
:100710000120BDE8F08131463846FFF793FE3846A8
:10072000FFF712FF29463846FFF78CFE3846FFF7E1
:100730000BFF3846FFF7E9FE012007F054FD0020CB
:10074000E7E700001CB50024114D124E124FDFF8F0
:100750004C808DF800408DF804400123002269464A
:10076000286821F0CDF810B9052000F0CFFA012358
:10077000002201A9306821F0C3F820B93C8098F824
:10078000000000F0C3FA0A2021F07EF8E5E700003F
:1007900048000020500000205C00002042030020A0
:1007A00038B5154C154900252088401C80B22080A2
:1007B000097801EB8101B0EB410F08D110488DF8A9
:1007C0000050012300226946006821F0F7F80D4827
:1007D0002188007800EB8000B1EB400F0AD10120A6
:1007E0008DF800000346084825800022694600680D
:1007F00021F0E4F838BD00005C000020B8050020BE
:1008000048000020B90500204C00002000224FF4D1
:1008100080710148FDF7CDBC0000024001221102A9
:100820000148FDF7C6BC00000000024070B586B06C
:1008300014216846FBF78BFD0E480025016841F046
:100840000101016000680C4E00F001004FF480745B
:1008500005902A4621463046FDF7ABFC0121CDE943
:100860000041CDE9021569463046FDF7A5FB06B00B
:1008700070BD000030380240000002402DE9F04118
:100880000027244CDFF8908001253E4610B12570EA
:10089000667001E02078E8B120214046FDF77CFC3D
:1008A00020B110214046FDF777FC98B1032020F0DD
:1008B000EBFF20214046FDF76FFC00B96570102169
:1008C0004046FDF769FC10B10220607001E06078DD
:1008D000E0B126706078C8B120214046FDF75CFC8D
:1008E000A0B110214046FDF757FC78B9032020F055
:1008F000CBFF20214046FDF74FFC38B11021404688
:10090000FDF74AFC10B92570677866703846BDE877
:10091000F0810000A8070020000002400EB5002072
:100920001A4FDFF86C801B4C1B4D8DF800008DF8C2
:1009300008008DF8040001264FF002090020FFF79F
:100940009DFF012802D002281CD102E08DF8006032
:100950000CE001F0C7F88068B84205D101230022FD
:1009600002A9D8F800000BE08DF8009001230022C6
:100970006946206821F022F80123002201A9286895
:1009800021F01CF8012020F07FFFD7E74C03002066
:100990004C000020440000205000002030B587B0FB
:1009A00014216846FBF7D3FC18480024016841F085
:1009B000010101600068164D00F001000590202043
:1009C00000904FF4041001900120029069462846DF
:1009D000FDF7F2FA102000904FF48810CDE90104E1
:1009E00069462846FDF7E8FA002211461720FDF770
:1009F0008DFC1720FDF77DFC002211460A20FDF733
:100A000085FC0A20FDF775FC07B030BD3038024088
:100A1000000002402DE9F04104461D4616460F46EF
:100A20002A2000F037FA204600F024FA304600F081
:100A300021FA2B2000F02EFA384600F01BFA284647
:100A400000F018FABDE8F0412C2000F023BA0000B5
:100A5000024900200968C86370470000400B00206D
:100A600070B55D1A141A641C6D1C143314316C4378
:100A70009BB289B2049EFFF7CDFF0D4D4FF400608D
:100A8000E8602868016841F400610160A2B2314663
:100A90002846FEF779FB0748006841680029FCD129
:100AA0000020E8602868016821F40061016070BDE1
:100AB000880A0020E00A002010B514460B460246C2
:100AC000FFF7A8FF2046BDE8104000F0D3B92DE99C
:100AD000F04780461F4603F1130083B21646501EAE
:100AE00082B20C4601F1140081B24046DDF820903C
:100AF000FFF790FF0AE0454604E0484600F0BAF9E7
:100B00006D1CADB2B542F8D3641CA4B2BC42F2D3A2
:100B1000BDE8F08730B587B014216846FBF717FCB5
:100B20000D48016841F00201016000684FF46074F3
:100B300000F0020005900120CDE900400320074DA0
:100B4000039069462846FDF737FA012221462846D8
:100B5000FDF72FFB07B030BD3038024000040240E3
:100B600010B5FFF7D7FF684C00224FF48071204684
:100B7000FDF71FFB002280212046FDF71AFB6420B1
:100B800007F024FB012280212046FDF712FB6420A0
:100B900007F01CFB112000F07DF9782007F016FB10
:100BA000362000F077F9002000F08AF93A2000F0B2
:100BB00071F9052000F084F9B22000F06BF90C20E7
:100BC00000F07EF90C2000F07BF9002000F078F9AD
:100BD000332000F075F9332000F072F9B72000F0EF
:100BE00059F9352000F06CF9BB2000F053F91920B9
:100BF00000F066F9C02000F04DF92C2000F060F9FB
:100C0000C22000F047F9012000F05AF9C32000F09B
:100C100041F9122000F054F9C42000F03BF92020E3
:100C200000F04EF9C62000F035F90F2000F048F929
:100C3000D02000F02FF9A42000F042F9A12000F00C
:100C40003FF9E02000F026F9D02000F039F9042027
:100C500000F036F90D2000F033F9112000F030F9E2
:100C6000132000F02DF92B2000F02AF93F2000F08E
:100C700027F9542000F024F94C2000F021F9182025
:100C800000F01EF90D2000F01BF90B2000F018F900
:100C90001F2000F015F9232000F012F9E12000F0E8
:100CA000F9F8D02000F00CF9042000F009F90C202C
:100CB00000F006F9112000F003F9132000F000F90C
:100CC0002C2000F0FDF83F2000F0FAF8442000F05E
:100CD000F7F8512000F0F4F82F2000F0F1F81F2071
:100CE00000F0EEF81F2000F0EBF8202000F0E8F80C
:100CF000232000F0E5F8212000F0CCF8BDE81040FA
:100D0000292000F0C7B8000000040240411F5F29FD
:100D100009D84FF4967110FB01F06421B0FBF1F09B
:100D200001490968C8637047400B00202DE9FF4F57
:100D300081B00446DDF83C9000904FEA59074FF02F
:100D40000008780700D0012000EBD70000FB09FB6A
:100D5000203AD0B20390029802994844401E83B2D0
:100D6000E019401E82B22046FFF754FE002553E0F2
:100D7000B9F10C0F2AD0B9F1100F2ED0B9F1180F1C
:100D80002ED0B9F1200F49D12749039801EB8010EB
:100D9000002610F805A0109800284FF0010000FA76
:100DA00006F000EA0A0022D020B12046049A0299F7
:100DB000FFF782FE641C0098A4B2201AB84225D125
:100DC0000298009C401C80B2029023E003981749CF
:100DD00000EB400001EB8000DAE71549039803E0DF
:100DE0000398144900EB400001EB0010D0E708B174
:100DF000049800E00E9800F03DF808F10100C0B240
:100E0000B0FBF7F1804607FB118050B1761CF6B2BB
:100E1000082EC0D36D1CADB25D45A9D305B0BDE8A9
:100E2000F08F4FF00008F5E7C4560508903A050822
:100E3000043F0508F44405082DE9FE4F9946DDE915
:100E40000D6714468A460546DDF830800CE0CDF883
:100E500000804B4651462846CDE90167FFF766FF03
:100E600005EB560085B2641C2278002AEFD1BDE85C
:100E7000FE8F000008B5010A8DF800108DF8010002
:100E80000123022269460248FEF7CAF808BD0000A5
:100E9000880A002070B5094D06464FF40074002200
:100EA00021462846FDF785F9304600F009F821462D
:100EB0002846BDE870400122FDF77BB900040240DE
:100EC00001B501231A4669460148FEF7A9F808BD95
:100ED000880A002038B527480024016841F0020143
:100EE0000160006800F0020000902348FFF750FA0C
:100EF0001021232000F0BEF80120FCF7A7FF2F21CE
:100F0000202000F0B7F80120FCF7A0FF202000F01F
:100F1000A5F82F2807D00A20FCF798FF641CE4B23C
:100F2000032CE5D324E00120FCF790FF00241021DE
:100F3000002000F09FF80120FCF788FF80210120AD
:100F400000F098F80120FCF781FF0021022000F05A
:100F500091F80120FCF77AFF022000F07FF80028CA
:100F600007D00A20FCF772FF641CE4B2032CDED326
:100F7000012038BD303802406C07002010B5032135
:100F8000022000F077F80F21BDE81040202000F08B
:100F900071B810B50021022000F06CF82F21BDE8D7
:100FA0001040202000F066B87CB514460D46064679
:100FB0006A460621282000F035F89DF801009DF8CA
:100FC000003043EA002333809DF8030001029DF8BE
:100FD0000200084328809DF8050001029DF80400E6
:100FE000084320807CBD7CB514460D4606466A4603
:100FF0000621032000F016F89DF800009DF801304E
:1010000043EA002333809DF8020001029DF80300AB
:10101000084320809DF8040001029DF80500084364
:1010200028807CBD2DE9F04190460E4605461928E2
:1010300001D9192700E01E27002409E02819C2B2AF
:1010400039460548FFF7EEFA08F80400641CE4B2DC
:10105000B442F3D3BDE8F0816C070020192801D910
:10106000192100E01E2102460148FFF7DBBA00000B
:101070006C0700200B46192801D9192100E01E2118
:1010800002460148FFF730BB6C07002038B50E4C14
:101090000EA16846627802F0BFF86946206A17F030
:1010A0007FFFA27809A1684602F0B6F86946A06AF7
:1010B00017F076FFE27805A1684602F0ADF86946C0
:1010C000206B17F06DFF38BD80060020253032649C
:1010D0000000000008B500200A4C8DF800004FF415
:1010E0007A75002012F062FCA84205D200231A464D
:1010F0006946606C20F062FC1EF02AFC012020F0A2
:10110000C3FBEEE70C00002008B501261B4FDFF8FB
:101110007090DFF870A0DFF870801C4C00254FF451
:10112000967B00BF94F8310018B300F013F910B1AA
:1011300084F830601DE094F83000012817D184F85D
:10114000305000F0CFFC8068B84209D000F0CAFCF3
:101150008168494504D000F0C5FC8168514506D13D
:10116000012300226946D8F8000020F027FC84F80B
:101170003050584620F088FBD4E700004C03002094
:101180006C040020F80500204C00002064000020C2
:10119000064882B0016841F002010160006800F079
:1011A00002000090024802B0FFF7F2B83038024067
:1011B000780700207CB514460D4606466B4606228D
:1011C0003B21682000F048F800280BD1BDF8001042
:1011D00049BA3180BDF8021049BA2980BDF804101F
:1011E00049BA21807CBD3EB50C46054601AA694638
:1011F00002A8FFF7DFFFBDF8000010FB00F1BDF80B
:10120000040010FB001000EE100AB8EEC00A02F055
:10121000E3FEBDF90800F0EE400A00EE100AB8EE59
:10122000C01A81EE200A02F085F9B1EE400A84ED81
:10123000000ABDF9000000EE100ABDF90400F8EE46
:10124000C00A00EE100AB8EEC01A80EE810A02F061
:1012500071F985ED000A3EBD2DE9F04106461D46B7
:1012600014460F462048FFF731F97006010E1E485C
:10127000FFF7E8F81C48FFF767F928B11A48FFF7AD
:1012800044F90120BDE8F08139461748FFF7DAF844
:101290001548FFF759F91448FFF718F9012000EB3A
:1012A0004600C1B21048FFF7CDF80F48FFF74CF9E0
:1012B0000BE00D48012C0FD0FFF784F828700A4886
:1012C000FFF7A7F8641EE4B26D1C002CF1D10648AC
:1012D000FFF71BF90020D5E7FFF774F828700248E4
:1012E000FFF7DCF8EEE70000780700202DE9F04179
:1012F00004461E4615460F461548FFF7E7F86006F8
:10130000010E1348FFF79EF81148FFF71DF980B949
:1013100039460F48FFF796F80D48FFF715F90024F6
:101320000FE0315D0A48FFF78DF80948FFF70CF927
:1013300028B10748FFF7E9F80120BDE8F081641CF7
:10134000E4B2AC42EDD30248FFF7DFF80020F4E747
:10135000780700201CB501A96846FFF744FF0098F4
:101360004FF07C5188420ADC4FF03F42904206D851
:101370000198884203DC904201D801201CBD002066
:101380001CBD00007FB50024154800940194029410
:101390001249039401604FF48031C0E901140461E3
:1013A000047680F820400F49C0E90A140125C56180
:1013B000C46080F830404561FCF715FA08B1FCF7CD
:1013C000BFF80095CDE9015469460548FCF756F988
:1013D000002801D0FCF7B4F87FBD000000200140D8
:1013E000200A00200100000F114808B5016841F4EF
:1013F000800101600068002200F480000090052157
:101400003A20FCF783FF3A20FCF773FF0022052106
:101410004420FCF77BFF4420FCF76BFF00220521F2
:101420004620FCF773FFBDE808404620FCF761BF8B
:101430003038024010B501F0E5FD044A00210448AF
:1014400020F0F0FA0349086010BD000068D10308DD
:10145000ED2401080000002070B5194886B0002472
:10146000016841F004010160016801F00401059187
:10147000016841F001010160016801F0010105917D
:10148000016841F0020101600068142100F00200CF
:1014900005906846FAF75BFF0A4E4FF400550022AC
:1014A00029463046FCF785FE01200095CDE9010470
:1014B000694630460394FCF77FFD06B070BD00001E
:1014C000303802400008024030B587B01421684629
:1014D000FAF73DFF2948002427490594C0E9001484
:1014E0007F218160FF21C0E9031444618461FDF71D
:1014F000B3FB08B1FCF724F800212048FDF7C0FA3F
:1015000045F25005A84234D011208DF80000592032
:101510008DF8010055208DF80200039401226946E0
:1015200016480494FDF750FC08B1FCF709F80720B1
:101530008DF8140005208DF8150021208DF8160077
:1015400023208DF81700012205A90C48FDF7F0FBB8
:1015500008B1FBF7F5FF00224FF4FA610748FDF7E9
:1015600099FA08B1FBF7ECFF2A4600210348FDF782
:101570008CFA07B030BD000000280040680A002047
:10158000104810B50E4901604FF48271416000218E
:1015900002228160C0E90312012242615202C0E9C5
:1015A00006210162416281620A21C162FDF788FC65
:1015B000002803D0BDE81040FBF7C2BF10BD0000FB
:1015C00000300140880A002010B58AB0002407943A
:1015D0001C2168460894FAF7BAFE164814490160BF
:1015E0006321C0E901144FF49671C0E903148461CA
:1015F000FEF73FF808B1FBF7A3FF079407A90D48D2
:101600000894FDF751FE08B1FBF79AFF6020CDE981
:10161000000402940822694606480494FDF7C3FFBB
:1016200008B1FBF78DFF0348FDF794FF0AB010BD2A
:1016300000040040400B00200C4810B50A4901602E
:101640004FF4E1314160002181600C22C160C0E9AA
:1016500004128161C161FEF721FA002803D0BDE8C0
:101660001040FBF76DBF10BD00100140880B00203B
:10167000FEE7000086B0464E00254FF47A773078BA
:1016800000287DD0434835708DF804500123002296
:1016900001A9006820F092F93F4940A001F0ACFD9B
:1016A00041A13D48FAF765FE78B140A13A48FAF702
:1016B00060FE70B140A13848FAF75BFE80B1364851
:1016C000FAF750FE142847D058E03DA001F094FDF1
:1016D00054E00323042202213BA001F08DFD4DE0E4
:1016E0003E4C0022211D3E48FDF78CFA0022214687
:1016F0003B48FDF765FA3B4890F84A10217690F890
:101700004910617690F86910A17690F86A10E17638
:10171000C08DA083A278617833A001F06DFDA3791C
:101720006279217934A001F067FD94F9181038A08E
:1017300001F062FD94F9191039A001F05DFDA17E60
:101740003CA001F059FDE17E3FA001F055FDA18BC9
:1017500040A001F051FD11E00295039502A90E4849
:10176000049500F073FF3F48007838B13EA102A80D
:10177000FAF7FFFD10B9084801F08EF9192100E0D1
:1017800002E00548FAF7E3FD384620F07DF876E7F9
:1017900004000020500000208C0C00205265635390
:1017A00074723A25730D0A004F5600004F562B569F
:1017B000455253494F4E00004F562B53454E44005F
:1017C0004F4B0D0A0000000056455253494F4E3D05
:1017D0005625642E25642E25640D0A00F00C002089
:1017E000680A002064000020646174613A25326454
:1017F0002D253032640D0A0074696D653A2530324A
:10180000643A253032643A253032640D0A00000013
:1018100068756D69646974793A256425250D0A0037
:1018200074656D70657261747572653A25640D0A30
:1018300000000000486561727420526174653A25A9
:101840006425250D0A00000053504F323A256425C7
:10185000250D0A005374657020746F6461793A2510
:10186000640D0A00DC0100204F562B535400000089
:10187000FEE700B5034602E0184600F007F81846F8
:1018800000F021F80028F7D000BD0000017D49B12B
:1018900000EB8102491E9FED040A017582ED000AEA
:1018A00000207047FF20704700000000017D0429E0
:1018B00007D000EB8102491C017582ED000A00206F
:1018C0007047FF207047007D08B10020704701205D
:1018D00070472DE9FF4F81B006460F460398FFF78A
:1018E000C8FF049800F0DBFE0020824660F3070486
:1018F000009030786AF307054FF0010BA0463038AE
:10190000A9466BF307080A2803D3012005B0BDE8F8
:10191000F08F0025F2EE041A91E0725D2E2A08D1B4
:10192000032060F3070418F0FF0F01D00220EDE759
:10193000A046A2F13000092847D80399097D05295E
:1019400003D8049A5279052A01D90320DEE700EE74
:10195000100A48466AF30700B8EEC00A81466AF3E7
:10196000070418F0FF00F0EE400A02D0032827D049
:1019700022E0009818B1401CC0B200900DE003981E
:10198000F0EE400A00EB810010ED011A41EE210A51
:101990000DE080EEA10AF0EE400A401EC0B2F8D27F
:1019A000039800EB810010ED010A70EE800A0398A5
:1019B000FFF76CFFB0EE600A0398FFF777FF3CE09B
:1019C000C0EE210A01200090EAE72B2A05D02D2A3B
:1019D00003D02A2A01D02F2A30D10398007D052870
:1019E00003D804984079052801D904208EE7484699
:1019F00062F3070081460020009008F0FF006BF3BF
:101A00000704012804D0049800F069FE10B110E02A
:101A100005207BE704984179401E085C114600F0E0
:101A200064FE30B1DDE90301FBF7DCFA09F0FF01E8
:101A300000E01146049800F048FEA0466D1CBD422F
:101A4000FFF66BAF002061E738B5114C207E00280F
:101A500013D0204620F081F8207E012570B104EBE0
:101A6000800050F8044C206880470095A06800234F
:101A70006422006806211CF03BFA38BD0549044881
:101A800020F079F80449024820F075F8024CEAE7A2
:101A9000280D0020100400205C04002038B5104CF4
:101AA000207E00281BD002E00D4820F056F8207E52
:101AB0000128F9D8C0B204EB800050F8040C00688B
:101AC000804701200090207E002304EB80006422E8
:101AD00050F8040C0621806800681CF009FA38BD33
:101AE000280D00200448017E21B100EB810050F850
:101AF000040C704700207047280D002038B50E49AF
:101B00000446087E052815D228B101EB800050F864
:101B1000040C406880472146074820F02CF82068D4
:101B2000804701200090A0680023642200680621FD
:101B30001CF0DEF938BD0000280D0020084910B562
:101B4000002008760749064820F015F8054C206863
:101B50008047A0680068BDE8104011F089BF000010
:101B6000280D00201004002070B5FBF779F910EE65
:101B7000104AFBF7FDFA58B12046FAF7B3FD9FED86
:101B80002A1B53EC112BFAF7B9FCFAF7BEFD0446F9
:101B90002748844201DD642544E026482649204444
:101BA000884201D85A253DE0244821182448814222
:101BB00001D8502536E02349621823498A4201D2D0
:101BC00046252FE0214A2244824201D23C2529E0C9
:101BD0001F481B4A2044521E904201D8322521E062
:101BE0001C481D4A2044904201D828251AE01B4871
:101BF0001B4A2044904201D81E2513E01948164A7A
:101C00002044521C904201D814250BE01648204471
:101C1000884201D20A2505E014481549204488422B
:101C200000D20525284670BDFCA9F1D24D62C03F07
:101C3000666686407A147EBFE07A0400AE4781BFB4
:101C400033330300B81E85BF0AD70300EB5188BFAA
:101C50001E858BBFA3708DBF84EB010051B88EBF72
:101C6000AD470100D7A390BFE17A94BF3333A3BF40
:101C700052B80E00002208210148FCF79ABA000071
:101C800000000240012208210148FCF792BA00003E
:101C90000000024010B500F005F8BDE81040FFF765
:101CA000F1BF000030B587B014216846FAF74FFB4A
:101CB00016480024016841F0010101600068144DDC
:101CC00000F001000590224608212846FCF771FA31
:101CD000082000900120CDE90104694628460394BC
:101CE000FCF76AF9042000904FF44410CDE9010498
:101CF00069462846FCF760F9002211460820FCF7E7
:101D000005FB0820FCF7F5FA07B030BD303802407B
:101D10000000024010B52DED028BFBF79AFC00EE9F
:101D2000100ADFED240AB8EEC00A20EE208AFBF785
:101D30007BFC00EE100A9FED201A2048B8EEC00A86
:101D4000B0F90810C0EE010A00EE101AB0F90C103C
:101D500001EE101AB8EEC00AB0F90410B8EEC11ABC
:101D600000EE810A90ED051A28EE202AB8EEC11A7D
:101D700000EE801A90ED040AB8EEC00A00EE810A67
:101D800001EE101AB0F90610B0F90A00B8EEC11A47
:101D900001EE900A08EE010A01EE101AF8EEE11ABF
:101DA000BDEC028BB8EEC11A00EEA11A02EE010AD8
:101DB00010BD0000000000360000C049840700206C
:101DC000010901EB810100F00F0000EB4100C0B2FE
:101DD0007047002103E0491C0A38C9B2C0B20A2882
:101DE000F9D2090740EA1160704700002DE9F0417F
:101DF000044600680025C168490618D4C16841F04E
:101E00008001C160FCF7DAF906464FF47A780427BE
:101E100007E000BFFCF7D2F9801B404501D9677786
:101E200001252068C068400601D4002DF2D0284664
:101E3000BDE8F08170B5044600680025C16821F056
:101E40008001C16020688068800606D42046FDF7C6
:101E50001BF810B1042060770125284670BD0000F2
:101E600008B5002300938DF802208DF801108DF83D
:101E7000030014232AF08EFB8DF80000002269462F
:101E80000348FCF755FF002801D0FBF759FB08BDBC
:101E9000680A002070B586B00D4606461446142127
:101EA0006846FAF754FA8DF800608DF801508DF805
:101EB0000240002269460448FCF786FF002801D052
:101EC000FBF73EFB06B070BD680A00200148FCF736
:101ED0005DBE0000680A00204289406811B1816936
:101EE000114300E011048161704710B50189006859
:101EF000FCF752F9012800D0002010BD10B586B0C3
:101F0000044614216846FAF722FA2089009000203E
:101F10000190012002900220039069462068FCF79E
:101F20004BF806B010BD0289006811B181691143F8
:101F300000E011048161704710B586B00446142199
:101F40006846FAF704FA20890090112001900020D9
:101F500002900220039069462068FCF72DF806B035
:101F600010BD10B5806B01684A6822F003024A6018
:101F7000416D41F010014165012180F85110FCF7DD
:101F80009EFF10BD10B5806BFDF76BF910BD38B525
:101F90000546846BFCF712F9024628680068C00504
:101FA00023D42068416821F0200141602068416805
:101FB00021F0020141606421204600F01BF818B1B5
:101FC000606D40F020006065A068002118B92068AD
:101FD000C26880680090E186012084F85100606D3D
:101FE00018B12046FCF76BFF38BD2046FDF738F9E5
:101FF00038BD000038B504461248134B0068B0FBEA
:10200000F3F04FF47A73584300906068B0F5827F24
:102010000DD10B46009200228021204600F016F8D8
:1020200070B1606D40F020006065032038BD0098FD
:1020300030B1401E009020688068C0430006F6D58D
:10204000002038BD3C07002000366E012DE9F84322
:102050001E46914688460446089DFCF7AFF8401B93
:10206000351AFCF7ABF8074625480068C0F3CB30BB
:10207000684338E0701C37D0FCF7A0F8C01BA842BA
:1020800003D215B1009860B32CE02068416821F0BC
:10209000E00141606068B0F5827F0BD1A068B0F5C7
:1020A000004F02D0B0F5806F04D12068016821F0A4
:1020B00040010160A06AB0F5005F09D120680168A5
:1020C00021F4005101602068016841F40051016071
:1020D000012084F85100002084F850000320BDE85E
:1020E000F8830025401E00902068816838EA0100CE
:1020F00004D000214945BDD10020F0E70121F9E7D6
:102100003C070020024676210148FEF78BBA00000A
:102110009C0700200B46024676210148FEF7E4BAF0
:102120009C07002038B52248016841F00201016097
:10213000006800F0020000901E48FEF729F9012116
:102140000620FFF7E7FF80210720FFF7E3FF0721C5
:102150000820FFF7DFFF00210920FFF7DBFF0CF06D
:1021600063FF144C183C20800CF096FF60800CF04C
:1021700087FFA0800CF0BCFFE0800CF0C5FF208141
:102180000CF0CEFF60810CF0D7FFA0810CF05EFF59
:1021900020610CF093FF60610620FFF7B3FF012878
:1021A00004D10920FFF7AEFF002800D0012038BD80
:1021B000303802409C0700201CB5064806A190F864
:1021C0006A20684601F028F804486946406816F01D
:1021D000E7FE1CBD64000020256400005C060020B2
:1021E00008B50020124D134C8DF8000000231A464C
:1021F000694628681FF084FB90B99DF8000001280B
:1022000002D0022810D00BE0FFF71EFCFFF76AFC9B
:102210008068A04204D100BFFBF7C2F8FEF7AEFE13
:102220000A201FF031FBE1E7FFF738FCF4E700007C
:10223000440000206C0400208AB04FF00008754E66
:10224000754FDFF8D891DFF8D8A1DFF8D8B1764D17
:10225000764C8DF8208000231A4609A930681FF0BB
:102260004FFBE8BB606A80472076401E632801D997
:1022700084F8188094F82C0010B9206C8047E08511
:1022800094F8480020BB226D02A901A890479DED5B
:10229000020A10EE100A48451AD210EE100A5045F4
:1022A00016DADDED010AF5EEC00AF1EE10FA0FDDE7
:1022B00010EE900A58450BDAFCEEE00ABCEEC00ABC
:1022C00010EE900A84F84A0010EE100A84F84900D3
:1022D00003208DF80000012300226946544800E0E5
:1022E00002E000681FF06AFBFFF7FCFB8068B84261
:1022F00006D10123002208A928681FF05FFB83E0B4
:10230000FFF7F0FB80684B4988422ED10123002261
:1023100008A928681FF052FB94F8480020BB226DE2
:1023200001A9684690479DED010A10EE100A484544
:102330006AD210EE100A504566DADDED000AF5EEBD
:10234000C00AF1EE10FA5FDD10EE900A58455BDA34
:10235000BDEEC00A10EE100ABDEEE00A84F8490096
:1023600010EE100A84F84A004EE0FFF7BBFB8068CD
:102370003149884248D10123002208A928681FF06A
:102380001DFBFEF706FE94F85C0090BB04AA03A9AF
:1023900002A8FEF709FE07AA06A905A8FEF723FE74
:1023A000BDF91C10BDF91800CDE90001BDF91430CC
:1023B000BDF91020BDF90C10BDF90800FAF792FC28
:1023C000B5EEC00AF1EE10FA03D2DFED1C0A30EED2
:1023D000200AB5EEC00AF1EE10FA0ADB10EE100A80
:1023E0001749884205DCBCEEC00A10EE100AA4F8BA
:1023F0005E0094F8540038B9FAF758FCBDEEC00AF4
:1024000010EE100AA4F856004FF4FA701FF03CFAD0
:1024100021E70000540000205C060020000020C1DD
:10242000000048420000C842500000206400002024
:102430005800002074020020340100200000B44342
:102440000000B44370B514460D460646FAF751FF36
:1024500008B1012070BD0A2005F0B8FE32462146C1
:102460002846FAF7E5FC002070BD70B514460D460D
:102470000646FAF73EFF08B1012070BD0A2005F0BC
:10248000A5FE324621462846FAF7DEFC002070BD44
:1024900010B5044602E0204600F006F8204600F0A1
:1024A0001EF80028F7D010BD817A31B100224B0010
:1024B000491E8172C25210467047FF207047827ACF
:1024C000042A05D05300521C8272C152002070476A
:1024D000FF20704700210160017181727047807A8E
:1024E00008B100207047012070470000064D4FF4EE
:1024F00000544FF4FA7621462846FBF752FE304648
:102500001FF0C2F9F7E70000000802401CB50027E1
:10251000DFF80C81434E3D46434800231A46694686
:1025200000681FF0EDF9002873D1DFF800A14FF02B
:10253000E0294FF47A7B35803D48FDF7E1FA00222F
:1025400080213C48FBF735FEFEF782FAFAF744FD9E
:1025500029F03EFF00F012FED9F810004C4620F0A2
:102560000200C9F8100001210020FBF701FF2069DB
:1025700040F0020020619AF800102F48BBFBF1F1F7
:102580000068B0FBF1F0FCF779FE00F0CDF800F048
:1025900005FE2AF0D5FC98F83100444668B1FEF7F4
:1025A000D9FE002894F8300005D030B9012084F815
:1025B0003000074601E001280BD0204C20212046A6
:1025C000FBF7EAFD60B110212046FBF7E5FD38B9C5
:1025D00002E084F8305020E01948007800B9E7B1F3
:1025E00000271348FDF7AEFAFEF7BAFA154800784F
:1025F000FEF78CFBFAF7F4FCFAF7BAFD10B11049BC
:102600000120087010480123002201A900681FF072
:10261000D5F964201FF038F97EE735808BE700009C
:10262000640000205C0000204C00002030070020E7
:10263000880B0020000402403C07002000000240FC
:10264000060000204203002054000020002202E087
:102650008B54521CD2B2835C3D2BF9D1704770B5BC
:1026600015460E460446F9F77DFEC1B22B463246AA
:102670002046FFF72EF958B13046FFF7FAF8284602
:1026800000F00DF8FF2070BD29463046FAF7AAFC8D
:10269000284600F024F80028F6D0002070BD10B5C0
:1026A000044602E0204600F006F8204600F017F845
:1026B0000028F7D010BD417929B100234A1E42718C
:1026C000435418467047FF2070474279042A04D0CB
:1026D000531C4371815400207047FF20704740799C
:1026E00008B100207047012070472A280CD02F28FD
:1026F0000AD02B2804D02D2805D12B2904D001E0A5
:102700002D2901D0002070470120704710B54FF0EF
:10271000E02000692AF01CFB012803D0BDE810402E
:1027200029F0DCBF10BD000030B593B03021684601
:10273000F9F70DFE14210CA8F9F709FE1D48002435
:10274000016841F080510160006800F080501190F4
:102750001948016841F4404101600068022500F415
:10276000404011900620009001200290039010201C
:10277000049006950820CDE907406420CDE90905BD
:1027800004200B906846FBF7C5FF08B172B6FEE760
:102790000F20CDE90C054FF48050CDE90E40032108
:1027A0000CA81094FBF7AAFE002801D072B6FEE731
:1027B00013B030BD4038024000700040044801684A
:1027C00041F4700101600249024880390860704795
:1027D00088ED00E00080000810B520210B48FBF7D1
:1027E000DBFC0B4930B100208880BDE8104009486F
:1027F000FCF7FDBD8888401C80B2888040F6B83167
:102800008842F2D3FFF736FAEFE7000000000240FB
:1028100004000020A80C0020F0B502681D4B1E4CDF
:102820009F031E4D1E4E984207D0B84205D0A042CD
:1028300003D0A84201D0B04204D122F0700C4A6803
:1028400042EA0C02984210D0B8420ED0A0420CD0FE
:10285000A8420AD0B04208D0124CA04205D0124C77
:10286000A04202D0114CA04203D122F44074CA68A5
:1028700022434C6922F08002224302608A68C262CD
:102880000A688262984201D10969016301214161AC
:10289000F0BD0000000001400004004000080040BE
:1028A000000C00400040014000440140004801404D
:1028B00010B501F01F030121046A99408C430462A2
:1028C000016A9A401143016210BD000030B5026AEE
:1028D00022F001020262026A4368846924F07305EF
:1028E0000C682C4322F002058A682A430A4DA8424C
:1028F0000BD122F00805CA6823F440732A434D69BE
:1029000022F004021D438B692B43436084614968B4
:102910004163026230BD00000000014030B5026A30
:1029200022F010020262026A436884690D6824F48E
:10293000E64444EA05248D6822F0200242EA0512AA
:102940000B4DA8420ED1CD6822F0800242EA05125A
:102950004D6923F4406343EA85038D6922F0400208
:1029600043EA85034360846149688163026230BD44
:102970000000014030B5026A22F480720262036AEC
:102980004268C46923F4007324F073050C682C4377
:102990008D6843EA05230C4DA8420ED1CD6823F47F
:1029A000006343EA05234D6922F4405242EA0512CE
:1029B0008D6923F4806342EA05124260C46149686C
:1029C000C163036230BD00000000014030B5026AFF
:1029D00022F480520262046A4268C3690D6823F4DB
:1029E000E64343EA05238D6824F4005444EA0534A1
:1029F000064DA84204D14D6922F4804242EA851274
:102A00004260C36149680164046230BD0000014056
:102A100038B501201CF060FF1848007848B3184909
:102A200000240878401CC2B216480A700A2A03D350
:102A30000C700178491C01700178134D64290CD386
:102A4000047028780023401C287010488DF800403E
:102A50001A466946406C1EF0B1FF29780C483C29A3
:102A600003D32C700178491C017001783C2900D3F4
:102A7000047008480168491C016038BD80060020C8
:102A80008406002083060020820600200C0000201F
:102A900081060020600000202DE9F041017A427A91
:102AA000303901EB81016FF02F0303EB41012C4C16
:102AB0001144CDB2E570817AC27A303901EB8101DF
:102AC00003EB41011144C9B26170027B467B303A8D
:102AD00002EB820203EB42023244D2B2A270867B46
:102AE000C77B303E06EB860603EB46063E44F6B255
:102AF0002671077C90F811C0303F07EB870703EB86
:102B000047076744FFB2677190F813C0807C303884
:102B100000EB800003EB40006044C0B26B1EA0716C
:102B2000622B1AD2002918D00C2916D8002A14D0EA
:102B30001F2A12D8172E10D83B2F0ED83B280CD89E
:102B40002846FFF78DF9A27961792079FFF7A2F97C
:102B5000BDE8F04103A000F04FBBBDE8F0810000EC
:102B6000100D002054494D455345544F4B0D0A005C
:102B700010B51FF021FD002805D0D0E90021BDE8E7
:102B800010400846104710BD10B5806B0021C1856C
:102B9000C184FCF74DFE10BD70B5846B20684069A0
:102BA00094F83D10C0F3C0100025212904D118B1BC
:102BB000E584204600F08AF82068406994F83E10C9
:102BC000C0F38010222904D118B1E585204600F019
:102BD00056F8206C40F0100020642046FCF728FED8
:102BE00070BD10B50146806B09680968C9052FD40E
:102BF0000021C18501680C3151E8002F22F4807258
:102C000041E80023002BF5D10168143151E8002F71
:102C100022F0010241E80023002BF5D101681431B4
:102C200051E8002F22F0400241E80023002BF5D1AB
:102C3000202180F83E10016B012909D101680C3177
:102C400051E8002F22F0100241E80023002BF5D1BB
:102C5000016B012902D0FCF7FEFF10BD818DFCF74E
:102C6000AEFD10BD10B5806B016B012902D0FCF7E1
:102C7000F3FF10BD818D4908FCF7A1FD10BD01686F
:102C80000C3151E8002F22F4907241E80023002B10
:102C9000F5D10168143151E8002F22F0010241E81A
:102CA0000023002BF5D1016B012909D101680C31FA
:102CB00051E8002F22F0100241E80023002BF5D14B
:102CC000202180F83E1000210163704701680C311B
:102CD00051E8002F22F0C00241E80023002BF5D17B
:102CE000202180F83D10704708B590F83E10222949
:102CF00001D0022008BD82684FF480539A4201D16E
:102D0000016921B1816A9A421BD04AB10AE0026886
:102D1000816A5268C2F308020A80816A891C08E04D
:102D2000026972B10268526802F07F020A70816A19
:102D3000491C8162C18D491E0904090CC18503D05B
:102D400019E002685268F1E70168CA6822F02002BF
:102D5000CA600168CA6822F48072CA6001684A6960
:102D600022F001024A61202180F83E10016B012906
:102D700003D0FCF770FF002008BD0021016301684B
:102D80000C3151E8002F22F0100241E80023002B03
:102D9000F5D101680A68D20602D50A68496800912F
:102DA000818DFCF70CFDE6E770B50446006801690B
:102DB000E26821F44051114301612169A068E26990
:102DC00008436169114308432168CA6849F20C63EA
:102DD0009A430243CA6020684169A26921F44071A4
:102DE0001143416131492068884202D0304988420C
:102DF00002D1FBF74DFC01E0FBF73AFCE26900234E
:102E0000192164253226B2F5004F626828D0A0FB54
:102E10000101930F9200F9F73DFA0146B0FBF5F07E
:102E20006FF01802504301EB800006EB0010B0FB7E
:102E3000F5F000F0F002B1FBF5F002EB0012B1FB8F
:102E4000F5F06FF01803584301EB800006EB00101B
:102E5000B0FBF5F000F00F0021681044886070BDF1
:102E6000A0FB010192185B41F9F714FA0146B0FB8F
:102E7000F5F00201B1FBF5F06FF01803584301EBD8
:102E8000800006EBC000B0FBF5F000F0F80002EBAC
:102E90004002B1FBF5F0584301EB800006EBC000A7
:102EA000B0FBF5F000F00700D6E70000001001408D
:102EB0000014014038B5816282850025134604461E
:102EC0000564222084F83E00A26B1C48D063A26BEC
:102ED0001B481064A26B1B48D064A06B0A460565B2
:102EE0002168A06B091DFAF779FF20680168406826
:102EF000009084F83C50206948B120680C3050E8BC
:102F0000001F41F4807140E80012002AF5D12068CA
:102F1000143050E8001F41F0010140E80012002A7F
:102F2000F5D12068143050E8001F41F0400140E81E
:102F30000012002AF5D1002038BD0000E32B010863
:102F4000652C0108992B01082DE9F0419846174698
:102F50000E460446069D27E0681C25D02DB1FBF7E0
:102F60002DF9A0EB0800A8421ED920680C3050E8CB
:102F7000001F21F4D07140E80012002AF5D120682A
:102F8000143050E8001F21F0010140E80012002A2F
:102F9000F5D1202084F83D0084F83E00002084F81C
:102FA0003C000320BDE8F0812068006836EA00009C
:102FB00004D00020B842CFD00020F3E70120F9E789
:102FC0000C4810B500680168C943C9060DD40A4A07
:102FD000012111706FF0100101600648FCF7F0FB51
:102FE000192206490348FCF721FEBDE810400148BC
:102FF000FCF720BC880B0020040000208C0C002073
:10300000FEE7000038B500231A46012145481EF0AE
:103010004FFD454C642120601EF086FD01210022F9
:1030200008461EF09FFC0121A063002208461EF006
:1030300099FC0121E063002208461EF093FC012167
:103040002064002208461EF08DFC012160640022ED
:1030500008461EF087FCA0640022012102201EF019
:1030600081FCE064314A002131481EF0DBFC2F4A2C
:103070006060243200212F481EF0D4FC2B4AA0604F
:10308000483200212C481EF0CDFC284AE0606C320A
:1030900000212A481EF0C6FC244A206190320021FB
:1030A00027481EF0BFFC214A6061B4320021254848
:1030B0001EF0B8FC1D4AA061D832002122481EF043
:1030C000B1FC1A4AE061FC32002120481EF0AAFC43
:1030D00020621F4A00211F481EF0A4FC1C4A6062A7
:1030E000243200211C481EF09DFC194AA06248327F
:1030F00000211A481EF096FC154AE0626C3200214D
:1031000017481EF08FFC124A2063903200211548A8
:103110001EF088FC6063012300226946A06C1EF04B
:103120004DFC38BDA10701080C0000208CD103081C
:10313000B5FF0008D51001086931010845070108ED
:103140000D2501081D090108E121010839220108A6
:10315000ACD2030811FD000871D0000875160108F3
:103160000911010845D2000800F01EF800F016F819
:1031700000F00CF864201EF087FBF7E70122022123
:103180000148FBF716B800000004024000220221AB
:103190000148FBF70EB8000000040240042101487A
:1031A000FAF7FFBF0004024030B587B0142168462B
:1031B000F9F7CDF80E480021026842F002020260E1
:1031C0000068022400F0020005900120CDE90040D3
:1031D000CDE90201074D69462846FAF7EDFE0420C5
:1031E0000090694603942846FAF7E6FE07B030BD22
:1031F00030380240000402400FB4054B10B503A95B
:10320000044A029802F01AFE10BC5DF814FB00009C
:103210006DEE0108180A00200FB4084B10B504A980
:1032200002AA039802F00AFE044602A9002003F055
:1032300088F9204610BC5DF814FB000043650108C6
:103240004100080218BF04200A0E18BF40F0010018
:103250004FF07F4232EA010108BF40F0020001282E
:1032600008BF052070470907090E002804DB00F19C
:10327000E02080F80014704700F00F0000F1E0201B
:1032800080F8141D7047000070B54FF068422DEDB6
:10329000048BF0EE408A18EE900AB0EE608A18EEC9
:1032A000101A02EB4003B3F1654F3CBF02EB410241
:1032B000B2F1654F7DD200BFC0F3C753C1F3C7520F
:1032C0009A1A1B2A09DD10F0004F14BF9FED830AE4
:1032D0009FED830ABDEC048B70BD12F11A0F36DA34
:1032E00011F0004F09D010F0004F0CBF9FED7D0A88
:1032F0009FED7D0ABDEC048B70BD88EE889A19EEB7
:10330000100AFFF79DFF042808BF00F0A3FE18EE87
:10331000900AFFF795FF054618EE100AFFF790FF99
:10332000044619EE100AFFF78BFF042D18BF052D78
:1033300008D1042C18BF052C04D1002804BF02209A
:1033400000F04AFFB0EE490ABDEC048B70BD4200AC
:10335000B2EB410F3AD910F0004F19BFDFED630A0D
:103360009FED630ADFED630A9FED630AB0EE481A32
:103370000A46B1EE688A80F00041F0EE418A1046BC
:103380000A1A5200B2F1807F34D2484010F0004F48
:10339000DFED5A1A9FED5A2A1DBFBEEE001A70EEDD
:1033A000E10A30EE420AB6EE001A08BF70EEA10A3A
:1033B00000E040E008BF30EE020AB0EE682A01EEFD
:1033C000482A08EE818AC2EE081A15E011F0004F73
:1033D00004BF9FED4C0AF0EE400AD1D010F0004F30
:1033E00019BFDFED490A9FED490ADFED490A9FED5C
:1033F000490AC5E7C8EE881A21EEA11A9FED462AB0
:10340000DFED462A41EE022A9FED452A01EE222AEF
:10341000DFED442A41EE022A9FED432ABDEC048BE6
:1034200001EE222A21EE811A01EE020A30EE210A73
:1034300030EE200A70BD4FF07F42B2EB400F28BF44
:10344000B2EB410F09D2F0EE480AB0EE680ABDECCB
:10345000048BBDE8704000F0EABD40EA01035B0068
:1034600008BF41F0FF410BD0B2EB400F08BFB2EBF9
:10347000410F08D120F0804008EE900A21F08041F1
:1034800008EE101A18E7B2EB400F12BF5FEA4103D3
:1034900040F0FF4001F000413FF40EAFB2EB410FAE
:1034A00012BF5FEA400200F0004041F0FF413FF4EC
:1034B00003AF4A0092EA40033FF5FEAE002AACBFDC
:1034C0009FED1A0A9FED1A0A68EE808A28EE008A9C
:1034D00018EE900A18EE101AEEE60000DB0FC9BFD6
:1034E000DB0FC93FDB0F4940DB0F49C00000C9BFFC
:1034F00022AAFDB90000C93F22AAFD390060ED3EB5
:10350000C30ACE3700000000000049C022AA7DBADD
:103510000000494022AA7D3A2DAD65BD8FB8D53D4A
:103520000FB511BE61C84C3EA8AAAABE0000804FCC
:103530000000802F10B54FF00E412DED028BB0EE44
:10354000408A18EE100A01EB4001B1F1145F5CD221
:103550004FF0FE41B1EB400F24BF9FED400AF0EE6B
:10356000400A12D210F0004F19BFDFED3D0A9FED67
:103570003D0ADFED3D0A9FED3D0AFFEE001A81EEA8
:10358000881AB0EE418A18EE100A4FF0FC41B1EBF8
:10359000400F1BD210F0004FDFED351A9FED352A9A
:1035A0001DBFBEEE001A70EEE10A30EE420AB6EE22
:1035B000001A04BF70EEA10A30EE020A38EE412A6A
:1035C000F7EE001A48EE011A82EE218ADFED2A1A80
:1035D0009FED2A2A28EE081A01EE212ADFED281A8B
:1035E00041EE021A9FED272A01EE212ADFED261A6D
:1035F00041EE021A28EE011A01EE210A30EE080A05
:10360000BDEC028B30EE200A10BD4FF0E441B1EB6F
:10361000400F0CD918EE100AFFF712FE042808BF5D
:1036200000F018FDB0EE480ABDEC028B10BD4FF063
:103630007F41B1EB400F07D2B0EE480ABDEC028BE0
:10364000BDE8104000F0F0BC10F0004F14BF9FED3B
:103650000F0A9FED0F0ABDEC028B10BD00000000A9
:103660000000C9BF22AAFDB90000C93F22AAFD3946
:103670000060ED3EC30ACE372DAD65BD8FB8D53D98
:103680000FB511BE61C84C3EA8AAAABEDB0FC9BFC8
:10369000DB0FC93F10EE101A08B5444A6846B2EB7A
:1036A000410F28D94FF0E640B0EB410F94BF002006
:1036B0004FF0FF3000900098002861DB60EE000AB8
:1036C00010F0010F45D010F0020FDFED391A9FED19
:1036D000391A00EEE11ADFED381A40EE811A21EEB8
:1036E000A01AF0EE400A40EE010A08BFF1EE600AAF
:1036F000B0EE600A08BD314B21F0004293423CD944
:1037000011F0004FDFED2E0A20EE201ADFED2D0A1A
:1037100019BF31EE601A71EE200A31EE201A71EEF7
:10372000600ABDEEE01A11EE100A9FED271A00F0B4
:10373000030000EEC10A9FED251A009000EEC10AB9
:103740009FED231A00EEC10A9FED221A00EEC10A76
:10375000B1E79FED211A9FED210A10F0020F00EE54
:10376000810A9FED1F1A00EE801AB7EE000A00EEE4
:10377000810A18BFB1EE400A08BD00F073FC9AE759
:1037800010EE100A4000B0F17F4F3CBFB7EE000AC8
:1037900008BD07D14FF0010000F01EFDBDE8084054
:1037A00000F048BCBDE8084000F03EBCB61F927E69
:1037B000336D4C39DA82083CA0AA2ABE490E49462C
:1037C00083F9223F0000004B0000C93F00A0FD39F3
:1037D0000020A2331A61342CB93AB2BACA9F2A3DEA
:1037E000DDFFFFBE10B510EE100A2DED068BB7EE13
:1037F000001A10EE901AB0EE418A0022A0F5000CDB
:10380000DFEDFE9A4FF00073BCF1FE4F4FF07F44A6
:1038100003EB410C80F0B481BCF1804FC0F02082FA
:10382000F74901449FEDF73AB1F5005F40F2D482C9
:1038300000F58021CB0C03F00F0101EE901AC3F3C9
:1038400007137F3BA0EBC350B8EEE12A00EE100A4D
:103850001A44DFEDED2AF0EE411A42EE221AF0EEA4
:10386000613A70EE232A30EE632A12EE900A00F5D8
:1038700000606FF30B0001EE900A73EEE13A33EE55
:10388000804AC1EE223A22EE230A10EE100A00F519
:1038900000606FF30B0000EE100A00EE612A00EEEC
:1038A000442A62EE232A70EE221A21EEA12ADFEDCD
:1038B000D73A02EE233A23EE023A20EE012A22EE14
:1038C000811A03EE211A32EE010A10EE100A00F5F9
:1038D00000606FF30B0000EE100A72EE401A31EE3A
:1038E000812A9FEDCB1A60EE011A9FEDCA1A20EED5
:1038F000011A9FEDC90A02EE001A31EE810A10EE9C
:10390000100A00F500606FF30B0000EE100AC348C8
:1039100071EEC01A31EE812A784400EBC10090EDBF
:10392000003AD0ED011A100101EE100AF8EEC12A9A
:1039300032EE211A31EE001A31EE031A31EE221A5C
:1039400011EE100A00F500606FF30B0009EE100A8B
:1039500039EE621A31EE431A31EE400A30EE610A56
:1039600032EE40AA10EE900A002100F500606FF3DD
:103970000B0008EE900A084670EEE8AAF8F7ECFF94
:1039800029EE280A00F00C01F0EEC00A10EE900AB1
:10399000B0F18B4F0DDD10EE900AB4EB400F08D361
:1039A00010EE100A4FF08B4262F31E0008EE900AF0
:1039B00013E069EE2A0A38EEAA1A4AEE010A30EE3E
:1039C000201A11EE100A00F500606FF30B0008EEEC
:1039D000900A30EE680A70EE209A0C20F8F7BCFFCF
:1039E00038EEA90AB5EEC00AF1EE10FA34BFFEEEC9
:1039F000000AF6EE000A30EE800ABDEEC00A10EEB4
:103A0000100A011100EE101AF8EEC00A00EE100ABA
:103A1000B8EEC00A38EEC00A30EE290ADFED801A8F
:103A20009FED801A00EE211ADFED7F1A7F4900F02A
:103A30000F0040EE011A21EE800A794401EB80016B
:103A400091ED001A7A49794401EB8001D1ED001A19
:103A5000784901EE801A794401EB8000764990EDB7
:103A6000000A31EE001AB0EEE00A10EE100A8842A9
:103A700015DA10EE100AB4EB400F10D39FED6F0A69
:103A800030EE800ADFED6E0A20EE200A68EE010AB1
:103A9000BDEC068BBCEEC00A20EE200A10BD10EE75
:103AA000100A6849884243DA10EE100AB4EB400F5E
:103AB0003ED3BDEEE00A68EE010A10EE100A00EBFC
:103AC000D0725110C90501F17E5100EE101AA0EB21
:103AD0006200C00560EE200A00F17E5000EE100A80
:103AE00060EE808A18EE900AB4EB400F0FD10220EE
:103AF00000F072FB00F0A6FA10EE101A18EE100A91
:103B0000BDEC068B61F31E0000EE100A10BD18EE2E
:103B1000900A400011D018EE900AFFF791FB04289C
:103B200008BF00F097FAB0EE680ABDEC068B10BD36
:103B3000F5EEC00AF1EE10FA0FD2022000F04CFBB5
:103B400000F088FA10EE101A18EE100ABDEC068B81
:103B500061F31E0000EE100A10BD022000F03CFBD5
:103B600000F070FA10EE101AB0EE480A10EE100ACB
:103B7000BDEC068B61F31E0000EE100A10BD00BF05
:103B8000BCF1804F6CD300BF00F1FF43B3F1FE4F97
:103B900024D200BFB0EEC00A10EE100AC1F3C75322
:103BA0007F2B0DDB972BBFF63BAEC3F196034FF097
:103BB000010C0CFA03F3A3F1010C1CEA010F08D06D
:103BC000012000F009FBBDEC068BBDE8104000F0C1
:103BD00031BA0B4218BFBFEE008A21E643001CBF7A
:103BE0004FF08073B3EB400F34D96FF01A02DFED62
:103BF000161A20EE210A10EE100A27E0000000003D
:103C0000001080C0ABAAAA3E0000803D7EE24C3E80
:103C100000B03842D49AB8BB3BAA38425C91050048
:103C2000FC596337C9FF753A1872313DFA900500A7
:103C30002E9105009E9005000000FC420000FE420F
:103C40000000004B000040430000004D10F0004F0A
:103C5000A0D1E5E5A0F50003B3F1FE4F21D2DFE5E9
:103C600003EB4103B3F1007F11D3F5EEC00AF1EE8F
:103C700010FA05D1430018BFB4EB400F76D883E7A4
:103C800001F0004141F0FC5100EE901A7CE7B3F1E5
:103C9000807F06D210EE903AA3F5000300EE903A32
:103CA00072E720F000426FF0FF4C604C02EB0C0317
:103CB000A34210D321F000439C44A4450BD3B0F1A0
:103CC0007E5F18BF5FEA410C50D0B2F1FF4F98BF42
:103CD000B3F1FF4F05D9BDEC068BBDE8104000F0F5
:103CE000A6B9B0F1FF4F0FD0C1F3C7527F2A09DB4D
:103CF000972A11DAC2F19602012303FA02F2531E47
:103D00000B4205D0002208E011F0004F55D128E009
:103D10000A4218BF012200D1022210F5000F13D071
:103D200028B3B0F1004F26D010F1814F4FD04FF0A3
:103D3000FE42B2EB400F94BF01200020012202EBB3
:103D4000E171884239D10CE011F0004F02D0012A14
:103D500038D032E0012A02BF9FED350ABDEC068B58
:103D600010BD9FED340ABDEC068B10BD2FE011F0A5
:103D7000004F0CD121E0B1F1FF4F1ED011F5000F23
:103D800005D011F0004F15D00AB1012A08D0022049
:103D900000F022FABDEC068BBDE8104000F03AB905
:103DA000022000F019FA00F035F9BDEC068BB1EEF7
:103DB000400A10BD0AB1012A04D0B0EE690ABDEC78
:103DC000068B10BDBDEC068B9FED1B0A10BDBDEC34
:103DD000068BB7EE000A10BD30EE410AB5EE001AB0
:103DE0009FED172A00EE413AB6EE001A60EE001A77
:103DF00000EE431A61EEC11A9FED101A20EE011A6F
:103E000020EE020A9FED0F2A01EE820A71EE001ADF
:103E100011EE900A00F500606FF30B0009EE100A36
:103E200031EE491A31EE00AA9CE50000FFFF3F0089
:103E3000000080FF0000807F0000008000B0B841DB
:103E4000D49A38BB3BAAB84100B510EE101A2DED3C
:103E5000028B81B0524A6846B2EB410F2ED94FF027
:103E6000E640B0EB410F94BF00204FF0FF300090D0
:103E70000098B0EE408A00286ADB10F0010F4BD0AA
:103E800068EE080A9FED471A9FED470A00EE810A87
:103E90009FED461A10F0020F00EE801AB7EE000AEE
:103EA00000EE810A02BF01B0BDEC028B00BD00BF75
:103EB00001B0B1EE400ABDEC028B00BD3C4B21F0DD
:103EC0000042934241D911F0004FDFED3A0A20EE53
:103ED000201ADFED390A19BF31EE601A71EE200A9F
:103EE00031EE201A71EE600ABDEEE01A11EE100AF2
:103EF0009FED321A00F0030000EEC10A9FED301A68
:103F0000009000EEC10A9FED2F1A00EEC10A9FED4E
:103F10002E1A00EEC10AABE728EE080A9FED2B1A15
:103F2000DFED2B0A10F0020F40EE410A9FED291A37
:103F300000EE201A61EE000AB0EE480A08EE200AF0
:103F4000B6D101B0BDEC028B00BD00F08BF88FE75D
:103F500018EE100A4000B0F17F4F0DD218EE100A93
:103F6000FFF76EF9042808BF00F074F8B0EE480AB5
:103F700001B0BDEC028B00BD09D1012000F02CF98D
:103F800001B0BDEC028B5DF804EB00F053B801B05A
:103F9000B0EE480ABDEC028B5DF804EB00F044B8CB
:103FA000B61F927EB93AB2BACA9F2A3DDDFFFFBE64
:103FB000490E494683F9223F0000004B0000C93FEB
:103FC00000A0FD390020A2331A61342C336D4C3926
:103FD000DA82083CA0AA2ABE10B52DED028BB1EE04
:103FE000C08A18EE100A20F00040C0F1FF40C00F58
:103FF0000AD010EE100A20F00040C0F1FF40C00FC0
:1040000004BF012000F0E8F8B0EE480ABDEC028BD6
:1040100010BD0000DFED030AB7EE001A81EE200AA2
:10402000704700000000000030EE000A704730EEDC
:10403000200A7047DFED020A80EEA00A70470000F8
:10404000000000009FED020A20EE000A7047000009
:10405000000000709FED020A20EE000A7047000089
:10406000000000102DE9F0014FF07F42B2EB410F4C
:104070009FBF4FF0FF310160BDE8F00170474FF086
:10408000004242EA0123C1F3C752783A551112F0B7
:104090001F0C434CCCF120067C44C1F3C752A2F163
:1040A00078024FEA621204EB820254F8254008BFFE
:1040B000D2E9015612D0556804FA0CF425FA06F735
:1040C0003C43976805FA0CF527FA06F8D26807FA18
:1040D0000CFCF24045EA08054CEA0206A4FB034C3E
:1040E000A5FB0352A6FB03631D449D4234BF01267A
:1040F00000261319334416B1934202D903E09342C8
:1041000001D2012200E00022624402F1200C92065A
:10411000DC0C42EA443200EE102A5B03DFED210A98
:10412000F8EEC01A00EE103A4FEA9C1C11F0004F56
:10413000B8EE400AC0F800C020EE201A00EE105A77
:10414000DFED190AB8EE400A20EE200A71EE810A6E
:1041500070EE800A10EE902A02F500626FF30B02F7
:1041600000EE902A70EEE11A31EEC11ADFED101A5E
:1041700030EE411A9FED0D0A20EE800A01EE210A71
:104180009FED0C1A00EE810A04BFBDE8F0017047F4
:10419000CCF180510160BDE8F001B1EE400A7047FA
:1041A0001C8B0500000000360000802C22AAFD298F
:1041B000DB0FC92F0000C92F02E008C8121F08C179
:1041C000002AFAD170477047002001E001C1121F98
:1041D000002AFBD1704700000149086070470000C9
:1041E0001C0A002070B5044600256FF02F0608E079
:1041F0002068411C2160007805EB850106EB410138
:1042000045182068007800F0C7F80028F0D128464B
:1042100070BD00002DE9FF5F82B00021DDE90430B0
:10422000020DDDF840B0034318D044F61050A2F25E
:10423000FF3242431514119801281FD0A5EB0B0043
:10424000401C5FEA000A4FF000064E4FDFF838913D
:10425000B046504615D5CAF1000413E01198012468
:104260004AA3012801D16FEA0B010298119AC0E913
:104270000031C0E9024206B0BDE8F09FCBF100007A
:10428000DFE704460021404A491842EB0450CDE9DB
:10429000001012E0E00707D032463B464046494650
:1042A000F8F732F98046894632463B4610461946B1
:1042B000F8F72AF906460F466410002CEAD1DDE92A
:1042C0000401DDE90023BAF1000F06DAF8F71CF962
:1042D00042464B46F8F718F905E0F8F787F94246E9
:1042E0004B46F8F783F904460E460022284BF8F7B0
:1042F0001BFB03D84FF0FF30014607E00022254B9F
:1043000020463146F8F759F8F8F7F6FA102409E094
:10431000002C0ADB0A220023F7F7BCFF039B303294
:104320001A55641E50EA0102F2D1641C039AC4F1CA
:1043300011031444119A012A03D0012208430DD11C
:104340000AE0084304D000204FF0110B119072E7EF
:10435000A3EB0B056D1E0DE05B4504DD4FF0000285
:1043600005F1010504E003DA4FF00002A5F10105B3
:10437000002AECD002981199C0E90231C0E9004549
:1043800079E70000000014400000F03F300000001A
:104390000000F0430000E03F3038092801D8012038
:1043A000704700207047000010B54021074801F019
:1043B00081F800220A2106481BF098FA054CA060FB
:1043C00002F008FC0020207010BD0000185C0020E6
:1043D0007D6C01087009002070B5B1F90030B2F9A8
:1043E0000040A34200DC23460380B1F90250B2F939
:1043F0000240A54200DD2C464480B1F90460B2F9C8
:104400000450AE4200DA35468580B1F90610B2F9A3
:104410000620914200DB1146C1800120AB4201DC45
:104420008C4200DD002070BDF8B50D460446B0F9A1
:104430000000B1F900101646884247DBB4F90210BB
:10444000B5F90220914241DBB4F90410B5F904201A
:1044500091423BDCB4F90610B5F90620914235DCF7
:1044600096B3ADF800006088ADF8020032466946A8
:10447000284600F099F8002827D0A088ADF8000061
:104480006088ADF8020032466946284600F08CF894
:1044900000281AD02088ADF80000E088ADF80200AE
:1044A00032466946284600F07FF800280DD0A088E3
:1044B000ADF80000E088ADF80200324669462846B3
:1044C00000F072F8002800D00120F8BD0020F8BDEF
:1044D000B0F90020B1F904309A4213DCB0F904209D
:1044E000B1F900309A420DDBB0F90220B1F9063083
:1044F0009A4207DCB0F90600B1F90210884201DBEC
:104500000120704700207047F8B50D460446B0F909
:104510000400B1F900101646884243DBB4F90600E6
:10452000B5F9021088423DDBB4F90000B5F904107A
:10453000884237DCB4F90210B5F90620914231DC2B
:1045400076B3ADF800006088ADF8020032466946E7
:10455000284600F029F818BBA088ADF80000608854
:10456000ADF8020032466946284600F01DF8B8B999
:104570002088ADF80000E088ADF8020032466946B8
:10458000284600F011F858B9A088ADF80000E0887E
:10459000ADF8020032466946284600F005F808B139
:1045A0000020F8BD0120F8BD2DE9FC4114460E465F
:1045B000B1F90020B0F9001005468A423ADBB5F99E
:1045C0000400824236DCB6F90270B5F90220974247
:1045D00030DBB5F906309F422CDC002C75DD401A2B
:1045E0009A1A401C521C00B212B200EBD07002EBBF
:1045F000D27240105210904200DB1046844200DD1F
:104600000446ADF80010288800222044ADF80400CC
:104610006888ADF80200688831462044ADF806008D
:104620006846FFF7C1FF40B1BDF804002044ADF873
:1046300004003FE00020BDE8FC81E8880022001B68
:10464000ADF80200E888ADF8060031466846FFF78D
:10465000ABFF28B1BDF804002044ADF8040011E020
:10466000A8880022001BADF80000A888ADF804005F
:1046700031466846FFF798FF50B1BDF80000001BB7
:10468000ADF80000BDF80200001BADF8020016E016
:104690006888ADF80200688800222044ADF8060062
:1046A00031466846FFF780FF70B1BDF80000001B7F
:1046B000ADF80000BDF806002044ADF80600314614
:1046C000684618F009FFB6E7FFE70120B3E710B529
:1046D000B1F90040B2F900309C4200DA2346038071
:1046E000B1F90240B2F902309C4200DA234643801D
:1046F000B1F90440B2F904309C4200DD23468380C6
:10470000B1F90610B2F90620914200DC1146C180D1
:1047100010BD0000FEB507461BF0D4F80025354C4F
:104720000646009537B1F868606038461BF0ACF972
:10473000606802E00FF00CF96060006918F068FE34
:104740006068406908B118F063FE6068C06918F0DD
:104750005FFE6068006A18F05BFE60680169E1B3A3
:1047600019F0E0F819F05CF86068B0F8501199B3EE
:104770000168097C890715D50FF064F9401E07B25E
:1047800060680FF0FDF8401E03B20022114601A838
:1047900000970DF037FD606801A90268926B5160C7
:1047A00004F09CFF60684FF48071303014F07AFEA2
:1047B0006068202100F5987014F074FE6068A0F81D
:1047C000505130461BF078F8009060680068436AEA
:1047D00013B122680099984700E007E014F0A4FCA8
:1047E00000F036F8BDE8FE4000F006B8A0F85051E1
:1047F000FEBD00009808002070B50A4D002400BFDF
:10480000C4EBC40655F8260008B114F001FD05EB11
:1048100086001C2114F046FE641CE4B2042CEFD385
:1048200070BD0000F45C0020084949680AE04A684D
:10483000824202D00A68824203D10A7E42F001021B
:104840000A7649690029F2D1704700006C080020FF
:10485000704700000421014800F02CBE0C5C0020D1
:104860001C21014800F026BE245C00202DE9FF5FDA
:104870000446DDE90E0613B9B0F5807F7ED0B6F9A7
:1048800000504FF0FF376D42454307EB25252DB211
:104890002580B6F902C0CCF1000C0CFB00FC07EB44
:1048A0002C273FB26780B6F900C0A1EB0C01414351
:1048B0004FF0020C0CEB212109B2A180B6F9028065
:1048C000A2EB080242430CEB222000B2E080002B56
:1048D0007ED04FF00A0A93FBFAF5684200EB8000A5
:1048E00003EB400705F1010928B21BF009FA00901B
:1048F0000FFA89F01BF004FA83465A3528B21BF0F0
:10490000FFF9804609F15A0000B21BF0F9F901469F
:10491000009AC7F10A0000FB02F300FB08F00BFB52
:10492000073301FB070193FBFAF291FBFAF04FEA20
:10493000601AB4F90010B4F902000AFB01FCCDF8CA
:104940000CC05511378805FB10C207EBA2220FFAE5
:1049500082F905FB01F2BB46029277880AFB00212F
:1049600007EBA1210BB2B4F90410BE460AFB01FC0F
:1049700005FB10C20BEBA22216B200E02FE005FBF4
:1049800001F7CDE9007CB4F90680DDF80CC00AFB24
:10499000007005FB18C1DDF804C0009F05FB18C5B9
:1049A000029A0AFB087C0AFB08220BEBA1210EEB02
:1049B000AC270EEBA02009B20EEBA2220BEBA52533
:1049C0000FFA87FC00B212B22DB24F46494500E003
:1049D0000EE000DA0F46B54216DAA84615E00020D0
:1049E0002080491E6080A180521EE280BDE8FF9FAA
:1049F00032882A44228072883A4462803288114484
:104A0000A180718808444FE0B046474504DA4F461C
:104A1000494506DA0F4604E0B54201DA2F4600E0C8
:104A2000374627804F46494500DD0F46B54201DD38
:104A3000A84600E0B046474503DD4D46494505DC44
:104A400001E0B54201DD294600E03146A1809A42ED
:104A500001DA154600E01D46844501DA614600E0B2
:104A600001468D4205DA9A4201DA114606E01946FE
:104A700004E0844501DA614600E0014661809A4223
:104A800001DD114600E01946844501DD654600E080
:104A90000546A94205DD9A4201DD104604E01846AC
:104AA00002E0844500DD6046E0809FE72DE9FE4F8F
:104AB0000446D0F800B0B0F90800E589081AB4F946
:104AC0000A10511AD4E90932B5F5807F38D0A5898A
:104AD000ADB3A66B704345114E437011266BE16A6E
:104AE00006FB05F701FB1077694306FB001003EB9B
:104AF000A72902EBA02080460612B4F904004FEA71
:104B00002927B8424EDD002F4CDBB4F90610B14224
:104B100048DD002E46DB94F834104A0745D58A0755
:104B200004F1140322D400FB067045004FF0020A82
:104B30000BEB05015246184614F06AFC27E00DE025
:104B4000256BE66A05FB00F706FB1177464305FB7C
:104B5000016003EBA70902EBA000CCE7A56B68435B
:104B60004D4303EB601902EB6510C4E700FB0670D0
:104B700000EB40054FF0030A0BEB0501022218463B
:104B800014F046FCE81C584410F8010CA07594F889
:104B90003400C0071FD04FF4FC60ADF80000A18ABC
:104BA000814218D10020BDE8FE8F32B204F1180016
:104BB0002369CDE90102002539B2AA468B4612F0DD
:104BC0006FFA0090BDF80000A082DDE901025946AD
:104BD00012F0FEF9DAE7E07C78B1A4F83C90A4F892
:104BE0003E80A4F84070A4F84260656484F848A050
:104BF0002046BDE8FE4F00F002B80120D3E72DE9C2
:104C0000F04F044690F83C10D0F8009090F83E0029
:104C100087B04FF0FF36702907DAB4F940203546E7
:104C2000012A00D5002580310DE0902916DDB4F968
:104C30004020B4F904300125521C9A4200DB0025C3
:104C4000A1F27F114942C9B28846702809DAB4F945
:104C50004210012900D50026803010E00025FF21F8
:104C6000F2E790280DDDB4F94210B4F906200126D0
:104C7000491C914200DB0026A0F27F104042C7B2DF
:104C800001E00026FF2760690090A07D05900020CC
:104C900083468246049094F83400400744D594F843
:104CA0004810606C11FB05014944022201A814F070
:104CB000AFFBA08894F8481010FB01F0616C022251
:104CC00006FB0011494403A814F0A2FBA18894F844
:104CD000480011FB00F1626C06FB012210FB0590FD
:104CE0001118022202A814F093FB94F834008007F4
:104CF00061D594F84800626C10FB052300EB0901B4
:104D00000B4413F8013C0493A38813FB00F306FB48
:104D10000322114411F801BC10FB0500111801EB2E
:104D2000090010F8010C45E0B4F84000B4F9422045
:104D3000284401B204F118008146236912F0B0F949
:104D40000190B4F84200B4F94010304402B254F873
:104D5000103F484612F0A4F90390608E2368304457
:104D600002B2208E284401B2484612F099F902900E
:104D700094F82400103C80071DD5B4F9422034F883
:104D8000400F284401B2484612F022F9049060888E
:104D9000B4F90010304402B2484612F019F98346C3
:104DA0006088304402B234F84009284401B24846D1
:104DB00012F00EF9824694F83400424645468007C8
:104DC00035D5059810FB08F30499C8F1FF0011FBD5
:104DD0000031C1F307211BFB08F61AFB0060C0F38A
:104DE000072011FB07F3C7F1FF0610FB06331B0A70
:104DF000A375022907D8022803D8002007B0BDE810
:104E0000F08F002702E0022800D8FF27059802282B
:104E100000D800220498022800D8FF22BBF1020F1C
:104E200000D80025BAF1020F03D8FF2501E0FF20CA
:104E3000A075EAB1FF2A04D0DDE900010EF0EAFB1B
:104E40000090BDB1FF2D17D0DDE902102A460EF00B
:104E5000E1FB049097B1FF2F05D001463A46009838
:104E60000EF0D8FB0090BDF80000A0820120C5E73D
:104E70000198E5E70298ECE70398EAE7BDF810002F
:104E8000F3E700002DE9F0470446B0F908000A27CF
:104E900000026062B4F90A000002A062B4F90C10CA
:104EA00091FBF7F5684200EB800001EB4006684299
:104EB00005F1010800B21AF023FF8246E84300B270
:104EC0001AF01EFF8146C5F15A0000B21AF018FF11
:104ED0000546C8F15A0000B21AF012FFC6F10A01E5
:104EE00001FB0AF3024609FB0630694390FBF7F029
:104EF00002FB061191FBF7F14011E06248112063BB
:104F0000A07C12F07AF994F8341060F3000184F870
:104F10003410A07C12F061F994F8341060F3410170
:104F200084F83410A07C042824D0052822D0062838
:104F300020D021F0040100BF84F8341021682162E0
:104F4000A16921F0E00160F30401A08860F39421DD
:104F5000E08860F35F51A161E0894FF4001101EB3B
:104F60005001B1FBF0F0A063FF20A075208AA08261
:104F7000BDE8F08741F00401DEE700002DE9F041D3
:104F800015460E460746114C1AF09CFC80462B46EF
:104F900032463946204612F0B1FC20B10020A06212
:104FA000E06950B110E02C21204614F07BFA4FF05C
:104FB0000040A0620020BDE8F08140461AF07CFC71
:104FC000E06108B90120E0612046F4E7485C002078
:104FD00010B51421074800F06DFA12F055FC40B1ED
:104FE0000549016005494160054981600549C16085
:104FF00010BDFEE7305C0020B57202083176020871
:10500000A97702088172020870B50D460446102186
:10501000284614F047FA20680078012804D00228B6
:1050200007D0042807D008E0208A2880608A68809A
:1050300003E0E06800E00A20686020684268002A17
:1050400003D02946BDE87040104770BDFEB5866AA2
:105050000446BEB9A08A218A0844A082E08A618AF7
:105060000844E082204609F010FA060079D0204674
:105070000BF0FCFC00220921304611F0EBFA6078BD
:1050800080076ED4208A10B9608A002869D0002574
:10509000ADF80450ADF8085094F83C0000F00F0053
:1050A0000328304616D015F09DFD0746304615F012
:1050B00073FC03460C200090B4F912103A463046B7
:1050C00008F0AAFDADF80800304615F0B7FCC1079E
:1050D00012D017E015F01AFD0746304615F0B6FC61
:1050E000024603200090B4F910103B46304608F009
:1050F00093FDADF80400E7E7BDF90410002901DDD8
:10510000ADF80450810705D4BDF90410002901DA77
:10511000ADF80450410705D4BDF90810002901DDA0
:10512000ADF80850000705D4BDF90800002801DAE1
:10513000ADF8085002AA01A920461DF05AFF00232D
:10514000BDF90820BDF90410304617F097FCA08A7D
:10515000BDF804100844A082E08ABDF80810084495
:10516000E082FEBD2DE9FC5F0446806A5FEA000B29
:1051700071D094F83C0000076DD012F0F7FE01905A
:1051800000684021457E584616F01DFC4FF000088F
:1051900018B9A4F81A80A4F81880584615F014FD20
:1051A0008246584615F017FD064694F83C004FF02D
:1051B000640900F00F000C2802D003284CD09AE0BC
:1051C000A4F8188056B1B4F91A50002712F0CEFE98
:1051D00000684946407EC0F1640022E0608BC5F162
:1051E000640110FB01F191FBF9F06083584615F062
:1051F000D3FB0546584615F0F5FC02460C200090FE
:10520000B4F91A102B46584608F006FD6083024692
:1052100000231EE07A1917B210FB05F292FBF1F29F
:1052200015B2002DF6D1ADF80070A4F81A806A46C8
:10523000002120461DF0DDFE41F6FF72BDF9003071
:105240005142584609F086FABDF80010012308447F
:1052500002B200214CE09AE0A4F81A80BAF1000FE3
:105260000AD0B4F91850002712F080FE00684946B1
:10527000407EC0F1640022E0208BC5F1640110FB88
:1052800001F191FBF9F02083584615F0DFFB05464C
:10529000584615F03BFC034603200090B4F9181063
:1052A0002A46584608F0B8FC2083014600231EE039
:1052B0007A1917B210FB05F292FBF1F215B2002D2C
:1052C000F6D1ADF80070A4F8188000226946204697
:1052D0001DF08FFE41F6FF72BDF900305142584675
:1052E00009F0B0F9BDF800100123084401B2002212
:1052F000584617F0C3FB208B002848D1608B00284C
:1053000045D1C6B9584615F06DFC0546584615F00E
:1053100043FB002D06DC00280DDD002D02DA012301
:105320002A4604E0002806DA0123404202B20021A6
:10533000584617F0A3FBBAF1000F19D1584615F0E3
:1053400085FB0546584615F0E1FB002D07DC0028DB
:105350000EDD002D03DA01230022294605E0002896
:1053600006DA01230022404201B2584617F086FBBC
:105370000A215846019A11F06DF96078800706D429
:1053800014F83C0F20F00F00207044F8148CBDE896
:10539000FC9F00007FB50E46040003D10EF0D8FA42
:1053A000040023D00025FEB1ADF80050ADF8025046
:1053B0000EF0E6FA401EADF8040020460EF042FB67
:1053C000401EADF806006A46314602A8FFF704F811
:1053D00000280BD02068017C890708D5DDE9000191
:1053E000C4E90C0101202AE0A0F850517FBD826978
:1053F0000AB102A9904700260BE000BF04EBC601EA
:10540000002202A83031FFF70FF80028EED1761CF9
:10541000B6B2B4F85001B042F0D880B2202804D21D
:1054200004EBC00002A9303004E0A4F8505104F1AC
:10543000300069460CF03DFEB4F85001401CA4F861
:10544000500160680028D1D01AF02AFB7FBD70B5EA
:10545000054600F012F804460CE02146284600F00C
:105460001EF806462146284600F071F8204613F043
:10547000CFFE3446002CF0D170BD002800D040682B
:10548000704700B503460022FFF7F7FF03E0184618
:10549000521C00F004F80100F9D1104600BD00686C
:1054A000091D40587047006840587047002800D0D8
:1054B0008068704700224260C91C21F003018260AD
:1054C0000160704770B504460068083013F016FE9E
:1054D000050013D00146002220461CF03FF9294662
:1054E000204662681CF034F9616819B12A462046EA
:1054F0001CF034F96560A06800B9A560284670BD4D
:1055000070B504460068083013F0F8FD050013D0AC
:105510000146002220461CF01BF929462046A268BD
:105520001CF01CF9A16819B12A4620461CF010F99C
:10553000A560606800B96560284670BD28B1416803
:1055400009B9806808B1002070470120704770B524
:1055500004000DD0FFF791FF00228842204608D1B9
:10556000FFF79DFF6060011E01D000221EE0A260D7
:1055700070BDFFF79BFF8842206808440AD101688C
:10558000A16029B12046BDE8704000221CF0E0B8BF
:10559000626070BD05682046FFF781FF064602463F
:1055A000294620461CF0D4F82A4631462046BDE85C
:1055B00070401CF0D3B810B50446006882680AB188
:1055C0002146904720680068002801D02060F5E758
:1055D00010BD8068002801D0B0F9160070470000A7
:1055E0002DE9F047074690B0408C189E40F004002B
:1055F000788490463A8499468A463289384616F02D
:1056000083F80546A7F8209032895146384616F0AF
:105610007BF80446788CA54220F00400788403D1FE
:105620002904B1EB044F68D0A7F820803289514695
:10563000384616F069F805468046A7F8209051468E
:1056400038460AF0EFFA318900682A4619F02AFA3A
:105650003089602823D147F6FF794D4501D04C456C
:105660001DD1384616F082F900EBD070451038464F
:1056700016F07CF900EBD0704010C84506D1691CCB
:10568000431C994200DA00E0194688464C4506D191
:10569000691C421C914201DA6C1C00E01446194856
:1056A000FFF710FF05002BD02F60C5E90384308978
:1056B000A8806846C5F808A00BF0F0FF1248FF214B
:1056C000CDE9005011480290114803900020079046
:1056D000CDE9080130880A9070889DF83E1040425C
:1056E0000B90F0680690002060F300018DF83E10EA
:1056F0003069059068460CF045F810B0BDE8F087B9
:10570000FEE700003C5C0020B9490308A54B0308F4
:10571000014B030814210148FFF7CCBE3C5C00207C
:105720002DE9FC5F002592468B4606462C46042751
:1057300043F60F0843F60E0901E100BFF06807EBDE
:10574000C401405881017CD480B230EA0B0113D0EF
:105750005FF0000130EA0A0010D00020814270D0D2
:10576000F06801AA41F6100150F83400009018F0DA
:10577000A3FF002866D103E00121EBE70120EDE75C
:1057800001AA41F61101009818F096FF002873D184
:1057900001AA41F61201009818F08EFF00286BD183
:1057A00001AA41F61301009818F086FF002863D182
:1057B00001AA41F61501009818F07EFF00285BD180
:1057C00001AA41F61401009818F076FFD0BB01AA97
:1057D00041F26901009818F06FFF98BB01AA43F2EB
:1057E0000C01009818F068FF60BB01AA43F20D019C
:1057F000009818F061FF28BB01AA41F2010100984E
:1058000018F05AFFF0B901AA41F20401009818F00B
:1058100053FFB8B901AA41F20201009818F04CFFF9
:1058200080B901AA41F20301009818F045FF48B978
:1058300001AA41F20501009818F03EFF10B901AA33
:1058400001E07BE018E041F20601009818F034FF17
:1058500090B901AA41F23201009818F02DFF58B911
:1058600001AA4146009818F027FF28B901AA494625
:10587000009818F021FF10B10320BDE8FC9F01AA99
:1058800040F60A01009818F017FFE8BB01AA40F69D
:105890000B01009818F010FFB0BB01AA4146009818
:1058A00018F00AFF80BB01AA4946009818F004FFCF
:1058B00050BB01AA40F63C01009818F0FDFE18BB51
:1058C00001AA40F63D01009818F0F6FEE0B901AAE1
:1058D00040F63A01009818F0EFFEA8B901AA4FF47B
:1058E0000461009818F0E8FE70B901AA40F645017D
:1058F000009818F0E1FE38B901AA40F6410100987D
:1059000018F0DAFE00B900E014E001AA40F6420106
:10591000009818F0D1FE68B901AA40F6430100983A
:1059200018F0CAFE30B901AA40F64901009818F0F3
:10593000C3FE08B1022501E005B90125641C708C85
:10594000C0F3C500A0423FF6F9AE284695E7000037
:105950000148406870470000980800207047C0F375
:105960000410072800D907207047000010B518213F
:105970000348FFF79FFD03490120087010BD000098
:10598000E85B00209C0900202DE9F04190460C4680
:10599000050015D0F6F7E6FC0A4F06462146BA6820
:1059A000284690470446BA68281941469047014660
:1059B000701A03E06218AA5C2A55641CA042F9D24E
:1059C000BDE8F081B00900202DE9F041094D904675
:1059D0000E466A681C46074619469047306020B15B
:1059E00020686A68384400219047C8F80000BDE884
:1059F000F0810000B00900202DE9F04F87B08A4601
:105A0000DDE910581F4693460446002105B1298060
:105A10005CB12078002809D0BAF1000F05D000262B
:105A200018F0060F15D0002004E0002007B0BDE8F4
:105A3000F08F401C215C0A2904D00D2902D00029D6
:105A4000F7D100E0401C002DF0D04FF0FF3129804D
:105A5000ECE75FEA887001D541F6FF778946084692
:105A60008DF81410049127E00498CDF8189068B3CD
:105A70004FF0000C05AA06ABCDF80CC0CDF80080A5
:105A8000CDE9013220443B465A4651461AF062F9AC
:105A900006997A1A314417B20EB288B104990144BA
:105AA000049120780A280BD00D2809D0605C0A28C0
:105AB0000FD00D280DD00846205C08B1002FD3DC94
:105AC000049848B105B12E800498AFE74FF0010C5F
:105AD000D0E7481C0490F3E7064A04A92046526820
:105AE0009047002DF0D001460022504610F08DFE68
:105AF00006B2E8E7B00900202DE9F04117468846D4
:105B000006001ED0002F1CD0F6F72CFC04463846A9
:105B1000F6F728FC050014D00B4A2C444146926845
:105B200030469047411903E0621BB25C3255641E57
:105B3000A142F9D930442A463946BDE8F04113F074
:105B400073BCBDE8F0810000B0090020002302789A
:105B5000232902D0012A0DD00FE02AB10021012A09
:105B600004D0022A04D008E0012101E0017004E021
:105B7000017001E0202902D001231846704702215C
:105B8000F6E72DE9F0410E468046024600213346F5
:105B900008461AF01BFB04460027401C13F0AEFA1F
:105BA000050008D02F5533464246611C1AF00EFB03
:105BB0002846BDE8F081FEE72DE9F0471E46144671
:105BC0000D468246DDF8209015E000BF4FEA5408EC
:105BD00008FB0657394650464A469047002808DDDC
:105BE00044F30000C0EB540407EB0605A4F10104E4
:105BF00001E005DA4446002CE8D12046BDE8F087F4
:105C00003846FBE72DE9FC5F9B460CAB8A46814694
:105C1000DDE9116093E81210DDE90F575FEA807843
:105C20004FF030031AD45EB15FEAC07808D000F0BC
:105C30000C0858EA0C0803D0761E01E00B55641CD2
:105C4000BC4204D2202CF9D301E00B55641C5FEA5E
:105C5000C07803D0B44201D2202CF6D35FEAC068EA
:105C600025D55FEA40580AD44CB1BC4201D0B442B9
:105C700005D1641E03D0102D03D1641E04E0102D45
:105C800002D0022D0AD00EE0850603D4202C1ED2AD
:105C9000782506E0202C1AD2582502E0202C16D2B6
:105CA00062250D55641C202C11D20B55641C202C30
:105CB0000DD2BCF1000F01D02D2306E0430701D522
:105CC0002B2302E0030702D520230B55641CCDE9EA
:105CD00000BAC846154681468B46AA46800714D1AD
:105CE000274607E02A46DDE900316D1C2020C44626
:105CF000E0477F1CB742F5D307E02A466D1C641EBF
:105D0000DDE900311BF80400C047002CF5D15FEA43
:105D1000897006D409E02A46DDE900316D1C202097
:105D2000C047A5EB0A00B042F5D32846BDE8FC9F6A
:105D30002DE9F04F8FB099468B46DDE91818DDE963
:105D40001C63DDE91A4792468646002209B923F012
:105D50001003580507AD00D5C9B1B1FBF4F004FB41
:105D60001010C0B20A2801D2303009E05FEA836C1B
:105D700002D54FF0410C01E04FF0610C60440A384D
:105D8000B1FBF4F1A854521C09B1202AE5D3CDF897
:105D90000880CDE90563CDE90052CDE903474B46C4
:105DA000524659467046FFF72DFF0FB0BDE8F08F01
:105DB0002DE9FF4F8FB01CACDDE9239594E8030873
:105DC00020AC94E8C004002450EA010201D125F07F
:105DD00010056A050DF11C0802D550EA010217D022
:105DE00032463B46F6F756FAD2B20A2A01D2303290
:105DF00006E0AB0601D5412300E061231A440A3ACC
:105E000008F80420641C50EA010201D0202CE7D3DA
:105E1000CDE90084CDF808B0CDE90595CDE9036A58
:105E20000FAF97E80F00FFF7EDFE13B0BDE8F08F5E
:105E30009A4200D288547047704700002DE9FF4F06
:105E400095B09A46884606460025EEE1252877D18A
:105E500000242746F94A0121039400E0044316F880
:105E6000013F203B01FA03F01042F7D130782A2895
:105E700011D06FF02F033078A0F13002092A16D824
:105E8000039A44F0020402EB820203EB4202104444
:105E9000761C0390EFE758F8042B0392002A03DAEC
:105EA000504244F40054039044F00204761C3078CD
:105EB0002E2816D116F8010F44F004042A280DD01C
:105EC0006FF02F023078A0F13003092B09D807EBCF
:105ED000870302EB4303C718761CF3E758F8047BEB
:105EE000761C30786C280FD006DC4C2817D0682838
:105EF0000DD06A2814D104E0742810D07A280FD16C
:105F00000DE044F400140AE044F4801401E044F489
:105F100040147278824202D104F58014761C761CFB
:105F2000307866280BD013DC582877D009DC00289D
:105F300075D04528F6D04628F4D047281AD193E1E9
:105F400018E0632835D0642879D0652812D18BE118
:105F5000702873D008DC6728F1D069286FD06E28CC
:105F60000DD06F2806D1ACE073282CD0752874D0E2
:105F7000782853D05246179990476D1C54E1C4F3CA
:105F80000250022809D003280DD0D8F800100428A8
:105F90000DD00D6008F1040846E1D8F80010EA17AA
:105FA000C1E90052F6E7D8F800100D80F2E70D7055
:105FB000F0E718F8041B8DF8001000208DF80100A0
:105FC000EB46012003E058F804BB4FF0FF306107B7
:105FD0004FF0000102D40DE009F101018946B942F8
:105FE0000FDA8145F8DB1BF809100029F4D108E02D
:105FF00009F1010189468142FADB1BF809100029E9
:10600000F6D103985346A0EB090721463846179A64
:1060100000F080FA284400EB090507E044E008E1BD
:106020000DE01BF8010B524617999047B9F1010991
:10603000F7D2534621463846179AF2E039E00A2152
:10604000C4F302524FF0000B0091022A06D058F818
:10605000040BC117032A09D00AE023E008F1070066
:1060600020F00702F2E80201904605E000B2C117F5
:10607000042A01D140B2C117002906DA0A460021DC
:10608000404261EB02012D2202E0220504D52B22C1
:106090008DF80420012203E0E20701D02022F7E777
:1060A000914657E00A2100E010214FF0000B0091CB
:1060B0000BE010214FF0000B44F00404082700917E
:1060C00003E008204FF0000B0090C4F30252022AB4
:1060D00005D058F8040B0021032A08D008E008F185
:1060E000070020F00702F2E80201904603E080B2C8
:1060F000042A00D1C0B24FF0000922072AD5327815
:10610000702A07D0DDF800C08CF0100C5CEA0B0C94
:1061100005D00EE040228DF80420012208E050EA6C
:10612000010306D030238DF804308DF805200222BB
:106130009146009B83F0080353EA0B030AD150EA0F
:10614000010201D1620705D530228DF804204FF0FD
:1061500001097F1E3278582A04D039A20C920CAA69
:1061600002920BE03BA2F9E75B46009AF6F792F841
:106170000C9B9B5C029A521E0292137050EA010221
:10618000F2D1029804A9081A00F1200B600702D589
:1061900024F4803400E001275F4502DDA7EB0B000B
:1061A00000E0002000EB0B01009003984944401AE6
:1061B0000390E00306D453462146179A039800F053
:1061C000A9F90544002706E001A85246C05D1799C9
:1061D00090476D1C7F1C4F45F6DBE0030CD5534602
:1061E0002146179A039800F095F9054404E0302001
:1061F0005246179990476D1C0099481E009000293F
:10620000F5DC08E00298029952460078491C029198
:10621000179990476D1CBBF10001ABF1010BF1DC4C
:106220005BE100F065F90544761C307800287FF4C6
:106230000DAE19B02846BDE8F08F00000928010016
:1062400030313233343536373839616263646566EC
:1062500000000000303132333435363738394142AE
:106260004344454600000000600700D4062708F1BB
:10627000070020F00700F0E80223804603F0004CFE
:106280005FEA0C0001D097A009E0200501D596A097
:1062900005E0E00701D095A001E0AFF24C001390BB
:1062A000307823F0004365280CD006DC452809D05F
:1062B00046281DD047287FD13BE0662818D06728A4
:1062C0007AD136E00021112F01DB112000E0781C8B
:1062D000CDE9000104A90CA8FDF79CFFDDE90D0143
:1062E0000C9A4FF0000B07F10109109200914EE05B
:1062F0004FF000400097CDE9011004A90CA8FDF76C
:1063000089FFDDE90D020C9B0F994FF0000B9146C0
:106310001093009211B9791C00EB0109B7EB090049
:1063200003D4C0F1FF3B07F10109A9EB070001907D
:1063300042E0012F00DA01270021112F01DD112099
:1063400000E03846CDE9000104A90CA8FDF762FF82
:10635000DDE90D010C9A00914FF0000BB946109247
:1063600021070FD4009A4A4503DA914601E0A9F1CA
:106370000109B9F1010F05DD109AA9F10101515C84
:106380003029F4D0B84202DA10F1040F03DA012107
:10639000CDE9011010E0002803DC8344A9EB0001E3
:1063A00002E0411C494500DD8946A0EB0B00401C82
:1063B00001904FF000400290200705D40198484515
:1063C00002DB4FF0FF30019000208DF84B00029867
:1063D0000DF14B07B0F1004F25D002200C902B207F
:1063E0000D90029800280CDA404202902D200D906A
:1063F00007E00A210298F6F7A4F93031029007F875
:10640000011D0C99481E0C900029F2DC029800280E
:10641000EFD1791E0D980870307800F0200040F020
:10642000450007F8020D11A8C01BC01D029013986B
:10643000007800B1012000EB0901019801EBE07147
:10644000029801440398401A401E0390E00306D4CA
:1064500053462146179A039800F05CF805441398B8
:10646000007818B15246179990476D1CE00323D568
:1064700053462146179A039800F04CF805441BE058
:10648000BBF1000F07DB0098584504DD1098179901
:1064900010F80B0001E01799302052469047019800
:1064A0000BF1010B401E05F10105019004D12E20D6
:1064B0005246179990476D1CB9F10001A9F10109E5
:1064C000DEDC05E017F8010B5246179990476D1C6A
:1064D0000299481E02900029F4DC53462146179A7F
:1064E00003989EE62D0000002B0000002000000015
:1064F0002DE9F041044600251E461746880404D4C1
:1065000005E039462020B0476D1C641EF9D52846A9
:10651000BDE8F0812DE9F041044600251E46904675
:10652000C80301D5302700E02027880404D505E002
:1065300041463846B0476D1C641EF9D52846BDE873
:10654000F0810A68531C0B60107070472DE9FF4FF3
:1065500089B005460A9800249246002800D1FE4DD5
:106560008FE1252804D02246641C53460A990BE289
:10657000491C4FF0000808460C9101782B2919D0CE
:1065800004DC202919D0232904D119E02D290ED0AB
:10659000302909D00026C8B2FDF7FEFEB0B10CA824
:1065A000FDF720FE06461FE048F001010AE048F032
:1065B000020107E048F0040104E048F0080101E0AE
:1065C00048F01001401C88460C90D6E70C990878DA
:1065D0002A2809D1169840C81690002E02DA48F0F1
:1065E00002087642491C0C910C984FF0000B017880
:1065F0002E2919D1401C0C9048F480680078FDF7D2
:10660000CBFE20B10CA8FDF7EDFD83460CE00C9A03
:1066100010782A2808D1169802C81690002900DCA4
:106620000021521C8B460C920C9801786C290AD0E0
:1066300004DC68290FD06A2919D128E0742929D0EF
:106640007A2914D126E0401C0C90017848F4807817
:106650006C291CD00BE0401C0C90017848F080089D
:10666000682904D148F04001401C88460C9002463D
:106670000078692822D015DC62281FD00DDC25287F
:1066800071D050281AD058287FF46DAF16E048F426
:106690000071E9E748F48071E6E7632878D0642860
:1066A000F2D10BE0732874D004DC6F2806D0702878
:1066B000EAD103E0752801D07828E5D178280DD0FB
:1066C00058280BD070280BD0502809D06F2816D02E
:1066D000622816D00A2128F0100016E0102107E0E9
:1066E0005078102148F48878562804D1521C0C9216
:1066F0001078582807D01078502804D006E00821D8
:1067000009E0022107E048F020008046107869285F
:1067100003D0642801D028F00C085FEA485001D566
:1067200028F00108107869281ED064281CD056284B
:1067300064D05FEA885072D5169804ABC01D002261
:1067400083E806080292CDE9076820F00700534667
:10675000F0E80212CDE900121690224628460A9966
:10676000FFF726FB89E00AE15FEA885024D51698F6
:1067700004AFC01D20F00703F3E8020216930023C4
:1067800087E80A08CDE90768002A03DA012102E058
:1067900080E0A6E000210023029119461B1A9141D6
:1067A00001DA114603E00021404261EB0201534649
:1067B0002246CDE90001D1E75FEAC85004D516981A
:1067C00004C80FE0524215E05FEA486003D516980E
:1067D00010F8042B06E05FEA0860F0D5169830F850
:1067E000042B12B21690CDE9021BCDE90468D00F3C
:1067F000002AE7DDCDE9002053461EE01698AAEBFB
:10680000040202C816904868006800900A980B6855
:1068100001192846FFF79AFE04442FE0FFE75FEADC
:10682000C8500CD5CDE9021BCDE9046816980021AB
:10683000534604C8CDE900211690224619E05FEACC
:10684000486003D5169810F8042B08E05FEA08604A
:10685000169803D530F8042B92B200E004C81690C5
:106860000020CDE90020CDE9021BCDE904685346A4
:10687000224628460A99FFF75BFA04460C98401C0A
:106880000C900C99087800287FF46BAE54457DD2AB
:1068900022467DE001275FEA887006D509E022469E
:1068A000641C534620200A99A84738467F1CB042F2
:1068B000F5D316992246641C11F8040B1691534621
:1068C0000A99A8475FEA887006D4D7E72246641C75
:1068D000534620200A99A84738467F1CB042F5D37A
:1068E000CCE7169850F8049B16904B46BBF100007D
:1068F00001D0014601E04FF0FF31484600E0401C66
:1069000002780AB1491EFAD2C71A5FEA485003D585
:1069100058465F4500D307465FEA887006D512E007
:106920002246641C534620200A99A84738467F1CFB
:10693000B042F5D307E000BF224609F10109641C0B
:1069400053460A99A84799F8000040B15FEA4851B8
:10695000F2D5BBF1010B01E0395E0108ECD25FEA30
:10696000887006D48AE72246641C534620200A9980
:10697000A84738467F1CB042F5D37FE706E02246A1
:10698000641C534625200A99A84777E7AAF101021B
:10699000534600200A99A8470DB02046BDE8F08F65
:1069A00070B5234D064692B02878002448B9214896
:1069B000016810A888479DF84600F5F7A7FC01205C
:1069C000287000206D46002106EBC00232F811301D
:1069D00033B925F8240005EB8403641C5980A4B264
:1069E000491C89B20429F1D3401C80B20428EAD39F
:1069F000002C1AD0F5F780FC90FBF4F104FB110099
:106A000080B235F8204005EB80004588F5F774FC2E
:106A10000A2190FBF1F201FB1200092190FBF1F039
:106A200006EBC401401C21F8150012B070BD000037
:106A30009C0200206400002010B502004FF000000E
:106A40000CD04B1E194200D0FEE70A44521E9A4356
:106A5000B2F5803F02D20C2A01D9104610BD0C209D
:106A600010BD08444A1E401E9043114200D0FEE76C
:106A7000704700002DE9F0410F4601210025044632
:106A800041862E460BE01B49F5F773FC10B16D1CD7
:106A9000ADB202E0608E401C6086761CB6B257F83C
:106AA000260010B101780029EDD1208EA8421ED019
:106AB000A06A002610B112F0ABFBA662E06A10B12A
:106AC00012F0A6FBE662E80012F018FBA06238B1F3
:106AD000680012F013FBE06218B1A16A11B102E084
:106AE000FEE7FEE70025690012F0DCFC2586BDE824
:106AF000F0810000DC2A02082DE9F84F8146407A37
:106B00000F4600F00700022819D010468046974231
:106B100000DD3A46164603202A4C2B4A00EB46007D
:106B200020F00305A06811681035411A636805EB71
:106B3000010C9C4505D2416821F0004124E0084643
:106B4000E4E79D4219D892464FF0FF3B481961682F
:106B5000884210D9002269461C48CDF800B00AF0DE
:106B600095FA002269461A480AF090FAA168DAF804
:106B70000000091AEAE7A068DDE7284612F0BEFA2D
:106B8000C0B1416841F0004188EA6702416089EA8A
:106B900002010160416801F04041491C31F080412F
:106BA00041608681A0F80E8005D500F1100181605A
:106BB000BDE8F88FFEE7A16801F110022944826068
:106BC000A160F5E7CC0900208C09002079E40108D8
:106BD000ED10020810B5084C012020700748FEF7A0
:106BE0004CFC0028A06803D0BDE8104018F058BF46
:106BF000BDE8104018F048BF70090020185C002064
:106C000010B5044690F83E00626B810707D4A18F4F
:106C100039B1A1F57F43FF3B15D0491EA187A18F54
:106C200089B90AB181070ED521461348FEF78FFCBA
:106C3000FFF7D0FFE16809B1204688472046BDE84C
:106C4000104012F0E5BAA16B4942E162002A11D06E
:106C5000810702D4216B4942E1624110491C61F372
:106C6000410084F83E00616AE069E1616062A06A07
:106C7000A262606310BD0000185C002070B5304D4A
:106C8000686818F019FE0646687880F001006870A0
:106C900047E00020287094F83E006978C0F3800235
:106CA0008A4242D061F3820084F83E00E16A8A1988
:106CB000030719D4002917DC002A15DBC00709D106
:106CC000216939B120468847E1690144E161616A7F
:106CD00008446062A16809B12046884794F83E00E4
:106CE00040F0080084F83E00E06A8019E06216D4A3
:106CF000A16A884200DDE162A16920468847014619
:106D0000206A884204D0216262680AB120689047F4
:106D1000D4E90A01814202DB2046FFF771FF28789F
:106D200018B10848FEF7A9FB03E021460548FEF725
:106D3000B6FB0400ADD118F0C5FD686070BD000061
:106D400070090020185C002070B5044640680D46AC
:106D500008B1FFF7F9FF2268002A04D0294620462F
:106D6000BDE87040104770BD89B20BF0F0B889B231
:106D70000BF040B910B50446406882080AD0496853
:106D800021F00301091D08446060204600F042F82C
:106D9000204610BDFEE74068103120F00300884215
:106DA00001D301207047002070472DE9FC470546BC
:106DB00048680C4620F0030001AA694619F0B6FCA9
:106DC000DDE9007005EBC71101EB80098046D9F8B9
:106DD0003C0060B164B1C4E9020504F10806C46076
:106DE00030460421FFF73DFE864202D0FEE7FEE773
:106DF000FEE7C9F83C400120296900FA07F2114377
:106E0000296105EB870100FA08F04A6902434A61EB
:106E1000BDE8FC8710B5044600F087F8046010BD9B
:106E20002DE9FC4706464FF000000D000090074694
:106E3000019042D00C46E9460DF10408802907D3A1
:106E400008461DF08DFD411F01208840401E04446E
:106E500042464946204619F069FC009C0A2C2CDA6F
:106E600006EB8400019A40694FF0FF3101FA02F20B
:106E700010400CD1641C3069A14008401DD01DF0A9
:106E800067FD0446009006EB8000406978B11DF074
:106E90005FFD034606EBC411019001EB8000C76B58
:106EA0005FB1786820F00300A84201D2FEE7FEE758
:106EB00039463046009A1BF0A1FE3846BDE8FC87F3
:106EC00010B50446FFF7A6FF416841F0020141609A
:106ED000606840F00100606010BD10B5044600F02D
:106EE00024F8416821F002014160606820F001004F
:106EF000606010BD70B506460D46084600F015F8F6
:106F0000040010D02079C0070BD0686880080BD02F
:106F10002146304600F03CF821462846FFF72AFF7C
:106F20000546284670BDFEE7FEE7426800F108010D
:106F300022F00300001F0844910800D1FEE77047CB
:106F400070B506460C004FF000001ED0F2B120795B
:106F50001546C0071BD011462046FFF71CFF78B12D
:106F60002946204600F025F805462046FFF752FF47
:106F70006868294640F0020068603046FFF715FF58
:106F80002046FFF7AAFF04F1080070BDFEE7FEE708
:106F90007CB5054648680C4620F0030001AA694606
:106FA00019F0C4FBDDE90023214628461BF026FE2C
:106FB0007CBD2DE9F0410D46044600F10801281F73
:106FC0000E18606806F1080720F00300401BA0F1CE
:106FD000040838460421FFF744FD874200D0FEE74D
:106FE000606820F0030108EB0500001D814200D01D
:106FF000FEE7307900F0030040EA0800706020F0FE
:1070000003000C2800D2FEE7207900F0030028439B
:1070100060603046FFF754FF3046BDE8F08138B578
:10702000044610F0A3FF054610F0D9FF00282046C3
:1070300005D0218FE18614F094FF012038BD0FF0B8
:10704000CFF8002820461ED00EF09FFF218FE08E43
:1070500081420CD02087E08E00906A461C21204699
:107060000FF0F8FA0128E9D1204614F07AFF2846FB
:1070700010F0C1FF0428E0D1204613F03BFC0021B2
:107080000FF085FFD9E70FF007F9D6E72DE9F04FAC
:107090000D4687B00446002113F061FB60B329461A
:1070A000204600F061FA2946204600F06FF80021E2
:1070B000204614F03BFA05900021204614F0D0FA47
:1070C00004900021204614F034F9012800D000205B
:1070D00080460021204614F034FC0746002120465B
:1070E00014F08AF942F2D17906464F450BD1608CF3
:1070F000400508D4012707E007B02846BDE8F04F57
:107100001C2112F0CFB90027204613F0A6FBDFF8B0
:1071100078A0834620460021BAF8022014F0F4FA41
:10712000D5F810C0AB682968CDF800C0CDF80C8048
:10713000CDE90131C2B239465846059B08F0E4FD5D
:1071400028834E4504D1608C800501D4012600E0DF
:107150000026204613F067FB074620460021BAF8B8
:10716000062014F0D1FAC2B2686900246B68E9689D
:107170008DE81B0031463846049B08F0C5FD688346
:1071800007B0BDE8F08F0000F40900202DE9F34FAF
:1071900081B00C46019808F02BF80646019813F0D0
:1071A0005CFB8246304600F0C5FE2061400011F0D5
:1071B000D1FF20602069400011F0CCFF002541F68E
:1071C0009A79A0603AE036F91510DFF82081494538
:1071D00033D10027DFF818B11FE03946019813F0CA
:1071E000BEFA5946009014F0F5FBA8B9009808F0D3
:1071F00011F8012810D1009808F002F8A8420BD12C
:10720000009814F0B3FB4146404501DA084602E01D
:10721000009814F0ABFB80467F1C019813F0B1FA84
:10722000B842DAD8B8F1000F03DBA16821F8158065
:1072300003E0A168002021F815006D1C2069A84218
:10724000C1D800252F46284641F69B784B4615E0CD
:1072500036F91010414504DB0D44A5F5F8559B3D6A
:107260000BE0994204D1A16831F81010394403E0D1
:10727000A26822F8101039440FB2401C21698142E3
:10728000E6D80021019814F051F92169C1F10102F9
:1072900000FB02A0C01B00B2002800DA0020002280
:1072A0004FF0FF331146C44611E000BF36F91170AC
:1072B00067450BDBA7F5F8579B3F3AB210FB02F38B
:1072C000B3FBF5F3A76827F811300B46491C276973
:1072D0008F42EBD8002B07DBA91A4143B1FBF5F134
:1072E000401AA16821F81300BDE8FE8F01E0FFFFFE
:1072F000010006002DE9F14F00221146009815F01B
:10730000FBFC0021009814F033F80446002100989B
:1073100014F0B4F920440FFA80F90021009814F019
:10732000BFF820440FFA80F8009813F0A1FF00EB9B
:10733000090101EB0800DFF898A006B25446009856
:1073400013F01FFA074600252AE0009821498068BB
:10735000006850F82500834614F03CFBF8B9584605
:1073600014F060FE40BB0021584613F0A6FF18B38E
:10737000012821D002281FD003281DD00021584603
:1073800014F0EDFA58B9BBF81A10BBF81600081A39
:10739000401C00B24844A04200DB044624B26D1CED
:1073A000BD42D2D3544504D004EB080000B2B04231
:1073B00000DC3046BDE8F88F0098BBF91A10B0F930
:1073C0001600081A411CA142E8DB0C46E6E7000063
:1073D00001E0FFFF010004002DE9F84F0022804684
:1073E000114615F073FC0021404613F0C1FF04461E
:1073F0000021404614F0EEF820440FFA80FA0021F4
:10740000404614F0A1F820440FFA80F9404613F0EA
:107410003DFF00EB090101EB0A00DFF844B105B2C2
:107420005C46404613F0ADF907460021404613F094
:107430005DFF01284FF0000644D078E0D8F808003E
:107440004849006850F82600009014F0C3FAC0BB09
:10745000009814F0E7FD50B10098B8F91810B0F991
:107460001400091A481CA0422ADB4C1C28E0002109
:10747000009813F022FF58B1032809D0062807D03E
:10748000082805D00021009814F062FA58B118E0DD
:107490000098B8F91810B0F91400081A411CA1425C
:1074A0000EDB0C460CE00098143000900AF072FEDF
:1074B0005044A04204DB00980AF06CFE00EB0A0482
:1074C00024B2761CBE42B9D35C453BD004EB090024
:1074D00033E000BFD8F808002249006850F82600C1
:1074E000009014F077FA08BB009814F09BFD60BB85
:1074F0000021009813F0E1FE38B3012825D00428BC
:1075000023D0072821D00021009814F028FA68B968
:107510000098143000900AF03DFE4844A04204DB7D
:1075200000980AF037FE00EB090424B2761CBE4234
:10753000D0D35C4506D004EB0A0000B2584501D018
:10754000A84200DC2846BDE8F88F0098B0F9181072
:10755000B8F91400091A481CA042E6DB4C1CE4E709
:1075600001E0FFFF010004002DE9F84F0C468346BF
:1075700008F066FA064600F0DDFC6061400011F09C
:10758000E9FD60606069400011F0E4FD002541F60E
:107590009A79E0603AE036F91500DFF80C81484549
:1075A00033D10027DFF804A11FE03946584613F015
:1075B000D6F85146009014F00DFAA8B9009808F0DA
:1075C000C5FA012810D1009808F0B6FAA8420BD1EC
:1075D000009813F094F94146404501DA084602E06C
:1075E000009813F08CF980467F1C584613F0C9F8B8
:1075F000B842DAD8B8F1000F03DBE16821F8158052
:1076000003E0E168002021F815006D1C6069A842C4
:10761000C1D800273D46384641F69B784A4615E0DA
:1076200036F91010414504DB0F44A7F5F8579B3F8E
:107630000BE0914204D1E16831F81010294403E0D5
:10764000E36823F8101029440DB2401C616981429F
:10765000E6D80021584614F003F88146584613F046
:10766000E2F801466069C0F1010209FB0210401B0B
:1076700002B2002A00DA0022002043460FE000BFD9
:1076800036F91010994209DBA1F5F8519B3912FB2C
:1076900001F1B1FBF7F1E56825F81010401C6169B4
:1076A0008142EDD8BDE8F88F01E0FFFF0100060040
:1076B0001CB50B8804892344ADF800304B884489FD
:1076C0002344ADF802308B8804892344ADF804309C
:1076D000C98843891944ADF806104369694698473B
:1076E0001CBD0000F8B50D46D0E90C2104468AB156
:1076F00012787AB141B100BF17F079FF0D490968DE
:107700008847616B884211D2206B88B100200A4EF5
:10771000009006E061B1EFE7326869469047A84201
:1077200006D0206B0099415C0029F5D10020F8BDFE
:107730000120F8BDC8090020B40900202DE9FF4F41
:1077400087B0C878189CC0070D46002801D0F148C2
:1077500000E0F148069001D0F04800E0F0480490C5
:1077600001D1EE4800E0EE484FF0100A4FF00C0E49
:10777000CDF814006088A1884FF0000BA0EB010049
:1077800001B25A465846276912E000BF00EB800656
:10779000E3680AEB860C13F80CC05FEACC7C0BD0D4
:1077A0004FF0080C0CEB86069B5BC91A09B2401C13
:1077B0008742EBD8002347E00EEB86069B5B1A441A
:1077C00012B2F4E703EB8306E7680AEB8600019048
:1077D000385CC00737D191FBF2F00EEB860CCDF888
:1077E00000C037F80CC00CFB00FC0FFA8CF94FF00E
:1077F000060C04200CEB860C00EB860037F90C809D
:10780000385ECC46C84500DCC446604504DC4046D2
:10781000CC46C84500DD6046484506D0DDF804800A
:107820004FF0010CE34647F808C0D4F80CC0082715
:1078300007EB86062CF80600E768009EBE5B921BED
:10784000081A12B201B25B1C20699842BAD8BBF187
:10785000000F8FD10021079813F064FD012826D076
:1078600000270020ADF80800ADF80C0003A902A81D
:10787000CDE900012089B4F9022003B228781699D5
:107880001AF084F9E878384207D0079812F0E5FF3B
:10789000BDF808100844ADF808000999079812F0DF
:1078A0005EFF06464FF4FA684FF0640B27E10127AC
:1078B000D7E79C49304614F08DF800287DD100218F
:1078C000304613F081FDE8B34FF0000948462169C6
:1078D00011E000BFE26800EB800352F82320B242BF
:1078E00008D100EB8002E168082000EB820031F94A
:1078F000009002E0401C8142ECD8E878C007708C10
:1079000002D040F4806001E040F40070708406F121
:107910001400049982468847484528D0304614F020
:1079200020FBB08AADF80000F08AADF80200308B81
:10793000ADF80400708BADF80600069A4946504633
:10794000904700E00FE06A46292130460EF082FEA3
:10795000304613F015F8324622210EF07BFE3046F9
:1079600014F0FFFA03E0708C20F4C06070840020F3
:1079700000906878012810D0022816D1059906F1E8
:1079800014008847B4F90010491C21F00101081ABD
:1079900000EBD07040F34F0006E0059906F11400AB
:1079A00088472188081A00B20090E87838420AD047
:1079B000049906F11400884700E098E0BDF808102B
:1079C000081AADF808003046002143F20C0213F00B
:1079D0009BFE0FFA80F93046002143F20D0213F0AE
:1079E00093FE0FFA80FA304613F0C0FF0190304644
:1079F00012F085FF0146C9F3413001280ED129F468
:107A0000C04040450ADCB0F57A7F01DDC0F57A70F0
:107A1000019A504390FBFBF00FFA80F9CAF3413012
:107A200001280DD12AF4C040404509DCB0F57A7F29
:107A300001DDC0F57A70484390FBFBF00FFA80FA45
:107A4000B18A1498F28A411A01EB0900159900B223
:107A50008A1A02EB0A01EA7809B2D207002A02D098
:107A6000BDF9082000E0009A10440FFA80FA01D016
:107A7000009801E0BDF9080008440FFA80F95AEABD
:107A800009001BD0304614F06CFAB18A01EB0A00F1
:107A9000B082318B01EB0A003083F18A01EB0900DF
:107AA000F082718B01EB09007083304614F059FAB3
:107AB00001234A465146304614F002FBE87838422A
:107AC0000CD1049906F11400884717990844BDF8B1
:107AD0000C100844BDF80810084406E0BDF80C106E
:107AE00017980844BDF80810081AADF80800E8789F
:107AF00009AAC0F38001079807F026FE0646002E6B
:107B000004D0DDE9090188427FF4D3AE0BB0BDE8B3
:107B1000F08F00001D22020813220208C52102086E
:107B20006D210208010006002DE9F04F91B00E0012
:107B300005463FD02E83286808B111F069FB06EB9B
:107B40004600062101EB400011F0D8FA286040B34E
:107B5000022101EB46010144E960042101EB8601A9
:107B60000144C5E9010101210024012E1AD0F000D1
:107B7000083011F0EFFA814600EB860000F10408AE
:107B8000B00000B2A346ADF81000C0F101028010B1
:107B9000ADF812B00FFA82FA5C46CDF828B0069024
:107BA000ABE0FEE7B4220270E8680480E868418038
:107BB000A868048011B0BDE8F08F0027BDF812203E
:107BC000BAF1000F07DC032101EB42010AEB0100CF
:107BD0000FFA80FA0CE0BDF810100523521A03EBDF
:107BE000420202EB0A00491E0FFA80FAADF81010AB
:107BF000BDF81200401CADF8120004A800F0E9F82E
:107C000068B1BDF9100006A9821041F827200AA921
:107C100000F0030041F827007F1C042FCEDB042F67
:107C200071D109990698884212D129F8140028F8D0
:107C300014B0DDE90A010144DDE90C2010440844D8
:107C400069680855696800010855641C24B252E04F
:107C50000799884219D029F8140028F814B06A68E6
:107C60000A9810556A6800011055641C069A20B2E3
:107C7000521E29F8102028F810B0DDE90B120A4432
:107C80000D99091D11446A682FE0089929F814001C
:107C9000884228F814B0DDE90A025946104412D08F
:107CA0006A6810556A6800011055641C069A20B273
:107CB000521E29F8102028F81010DDE90C1211448A
:107CC00008316A6811E00C9A10446A6810556A68B5
:107CD00000011055641C069A20B2521E29F810208B
:107CE00028F810100D996A680C3111546A6809015E
:107CF0001154401C04B20BF1010B04A800F069F808
:107D000000287FF45AAF40F2D32016FB00F109EBB4
:107D10004402881232F9022C824205D108EB440257
:107D200032F9022C82421AD0A1EB8021B1F5007FFA
:107D300003DC494341F3CF3106E0C1F5806149439B
:107D400041F3CF31C1F10F0129F8140028F81400D4
:107D500068680155686809010155641C24B2A01EB9
:107D60000EE000BF38F8102029F8142039F8102050
:107D700028F8142069680A5C0A55641C24B2401E65
:107D80000028EFDAEA680021084611801BE0EA6863
:107D900022F81100AB6839F8102023F811200AE00E
:107DA000AE6839F9102036F81130934200DA1A46DD
:107DB00026F81120401C38F910208A4201D1A04237
:107DC000EEDB491C09B2A042E1DB484611F00EFA95
:107DD000F0E6B0F90210B0F90000814201DC0120A8
:107DE00070470020704717B581B0022A03D8BDF84C
:107DF000080004B010BDBDF80830BDF80400D90A71
:107E000001EBD0211F2900D31F2161F3CF20C3F341
:107E10004511C0F345142144ADF804003F2900D3B7
:107E20003F2161F34A1003F01F0100F01F031944C2
:107E3000ADF804001F2900D31F2161F30400ADF841
:107E40000400FF2A07D0DDE901010BF031FC0090AE
:107E5000BDF80000CDE780B2CBE717B581B0022AAC
:107E600003D8BDF8080004B010BDBDF80400BDF88B
:107E70000810C30ACC0A13FB04F35B0963F3CF2099
:107E800000F01F0301F01F0413FB04F35B0963F30D
:107E90000400C0F34513C1F3451113FB01F1890937
:107EA00061F34A10ADF80400FF2A07D0DDE90101B3
:107EB0000BF0FEFB0090BDF80000D4E780B2D2E7E3
:107EC00017B581B0022A03D8BDF8080004B010BD70
:107ED000BDF80830BDF80400D90AA1EBD021002973
:107EE00000DC002161F3CF20C3F34511C0F345143A
:107EF000091BADF80400002900DC002161F34A10E1
:107F000003F01F0100F01F03C91AADF80400002997
:107F100000DC002161F30400ADF80400FF2A07D063
:107F2000DDE901010BF0C4FB0090BDF80000CDE7D6
:107F300080B2CBE70146002041F6FF7200E0401C12
:107F400031F910309342FAD170471CB5044690F8CD
:107F5000500000F0010088422DD094F8500011B17B
:107F600040F0010001E020F0010084F8500004F12D
:107F7000440168460AF0E5F8606ABDF80010828A9C
:107F80001144ADF80010BDF80210C08A0844ADF8E5
:107F90000200606ABDF80410808A0844ADF804004D
:107FA000606ABDF80610C08A0844ADF8060069464C
:107FB000204614F00AF81CBD08B5084611460BF01F
:107FC0003EF90090BDF8000008BD2DE9F04F0646CF
:107FD000C87A89B015460F46022803D8012009B097
:107FE000BDE8F08F18463A69B968FCF7C7FF041E70
:107FF000F5D0207D00F01F000FF0FFF808B106203B
:1080000008E0207D00F01F000FF0E7F808B1052020
:1080100000E00420226A814622B1294630461BF046
:1080200048FAB7E0A069E8B3294602A80AF04AF87E
:10803000388818B97888B0F5807F2AD0A888298830
:108040006A88401A401C01B2E8883B1D801A401C17
:1080500002B27888CDE90003B7F9003002A8FCF736
:1080600005FCBDF8080029880844ADF80800BDF8F3
:108070000A0069880844ADF80A00BDF80C00298898
:108080000844ADF80C00BDF80E0069880844ADF84E
:108090000E0002AA04A8B168FCF79EF9002879D066
:1080A00004A800E00DE0D6F80880B060CDF800909C
:1080B0002A4639463046A3690BF04EFFC6F80880C1
:1080C00068E02A4604A8B168FCF786F9002861D068
:1080D000BDF81400BDF81010401A401C0FFA80FBC8
:1080E0000BEB4B0011F036F8039004A901A8D6F869
:1080F00008A009F0E7FF012101A80AF08AF8BDF9FC
:108100001000B5F90010BDF91280401A0690B5F9BB
:108110000200A8EB000534E001AA514607A8FCF7CD
:108120005BF960B30398009006985B4601B22AB2EF
:1081300020460FF041FC01280CD020460FF091FBA7
:10814000039811F053F820460FF08BFB0020C6F87F
:1081500008A044E707A8B060CDF8009001AA39460E
:108160003046039B0BF0F8FEBDF80600401CADF84E
:108170000600BDF80A00401CADF80A006D1C08F1AD
:108180000108BDF916004045C6DAC6F808A00398F4
:1081900011F02CF820460FF064FB1FE77047000039
:1081A00010B50420F7F75EF806484FF47A710078AE
:1081B000B1FBF0F004490968BDE81040B1FBF0F0F4
:1081C000F7F75CB8300700203C07002070B5054683
:1081D00000244FF47A7603E0304600F004F8641C83
:1081E000AC42F9D370BD70B54FF0E0240022656950
:1081F00064214843A169A3698B42FCD002D2A1EB60
:10820000030102E0A5EB030631440A441946824209
:10821000F1D370BD10B5014608F0BFFD20B10BA031
:10822000FAF7EAFF002010BD91F90000072301EBE7
:108230008002401C90FBF3F403FB140052680870AA
:108240008878401E8870104610BD0000E9989FE5B0
:108250008897E4B8BAE7A9BAEFBC8CE697A0E6B372
:1082600095E587BAE9989FEFBC810A0038B50546C5
:1082700000924C88CB888A8808882146F8F7F0FB62
:108280002846BDE838400BF05DBB08B560B1202042
:108290008DF8000028208DF8010030208DF80200B4
:1082A00038208DF8030004E0A32204216846F4F787
:1082B00047F86A46042140F69E2019F051F918F05B
:1082C00087FE08BD3EB5044602208DF80000CA2096
:1082D0008DF80100E3208DF8020009208DF80300DD
:1082E0006A460421682019F03BF9A3208DF80000AC
:1082F000610609D5C0218DF80110C8218DF8021042
:10830000C2218DF8031005E08DF801008DF8020000
:108310008DF8030014F4C07F09D0C4218DF8041037
:10832000CC218DF80510C6218DF8061005E08DF8DA
:1083300004008DF805008DF806008DF808008DF812
:1083400007008DF809006A460A2140F6A72019F0B7
:1083500007F9A0074FF0D80503D020208DF80000C2
:1083600001E08DF800506A46012140F6B62019F070
:10837000F7F8A00601D5012000E0002000F08EF8FB
:1083800014F4C07F1ED0E0050AD5B2208DF800009D
:108390008B208DF80100B6208DF802009B2009E0AB
:1083A000B0208DF8000080208DF80100B4208DF8F9
:1083B000020090208DF803006A46042140F6A220B6
:1083C00019F0CEF8E1074FF40B6022D0F8218DF8B8
:1083D00000106A46012119F0C3F8FA21072000F0C5
:1083E0006DF9072000F039F9012000F056F96420FA
:1083F00000F014FA4FF4FA7000F020FAC821254872
:1084000000F0F3F8282000F008F90A2000F015F930
:1084100005E08DF800506A46012119F0A1F8A00787
:1084200003D5D9208DF8000001E08DF800506A4690
:10843000012140F23D7019F093F8600701D5012049
:1084400000E0002000F048F8E00601D5012000E03F
:108450000020FFF71AFF104D44F00800688118F063
:10846000B7FD0020A873600601D50620A87314F498
:10847000C07F02D0A87B801DA87314F0140F02D017
:10848000A87B1030A873A00702D0A87B001DA8739A
:1084900000203EBD09E3CA02B80E00200EB54FF41D
:1084A000976310B106A107C901E008A207CA8DE8C9
:1084B00007006A460921184619F052F80EBD00005F
:1084C000B8AAB38DB4980D355D000000B8AAAAAA69
:1084D000B088C3C5C700000008B560B1C0208DF8E2
:1084E0000000C2208DF80100C4208DF80200C620D3
:1084F0008DF8030004E08B2204216846F3F720FF87
:108500006A46042140F6982019F02AF818F060FD18
:1085100008BD38B504004FF0FF3506D06A46042187
:108520004FF4587018F02AFD08B1284638BDBDF840
:1085300000009DF8021040BA000440EA01209DF8B6
:10854000031008432060002038BD0000C8234FF40A
:108550008062024940F6F63018F064BCFC730508EE
:1085600030B5044613A285B007CA8DE807004FF066
:10857000FF35C82C16D8C820B0FBF4F1491E080AF4
:108580008DF80C008DF80D1003AA022140F2162080
:1085900018F0E6FF30B96A460C2140F6C12018F009
:1085A000DFFF10B1284605B030BD054884810020AA
:1085B000F9E70000FEF2ABC4AAF1DFDFBBAFDFDFFB
:1085C000B80E002008B5010E8DF80010010C8DF8D2
:1085D0000110010A8DF802108DF803006A4604218B
:1085E0004FF4587018F0BCFF08BD4FF47A7290FB3E
:1085F000F2F008B54843010E8DF80010010C8DF81B
:108600000110010A8DF802108DF803006A4604215A
:108610004FF4AE7018F0A4FF08BD0521B0FBF1F0D7
:1086200008B5010A8DF800108DF801006A46022194
:108630004FF4AD7018F094FF08BD0521B0FBF1F0C8
:1086400008B5010A8DF800108DF801006A46022174
:108650004FF4AC7018F084FF08BD08B500218DF808
:108660000010C10702D030218DF80010810705D518
:108670009DF8001041F00C018DF80010400705D561
:108680009DF8000040F003008DF800006A460121CB
:108690004FF4A47018F064FF08BD08B560B1042859
:1086A00000D90420401E8DF800006A46012140F2E6
:1086B0004F1018F055FF08BD0120F3E770B50446D0
:1086C0002DED028B82B040074FF0FF357ED0B1F523
:1086D000C86F7BD800EE101AB8EE400ADFED460AEC
:1086E00001A880EE208A18F0BBFA9DF80400022849
:1086F00006D0042810D0082835D0102874D13EE0C8
:108700009FED3E0A28EE000ABCEEC00A10EE100AE9
:108710009FED3B0A82B20AE09FED3A0A28EE000A7A
:10872000BCEEC00A10EE100A9FED370A82B228EEA6
:10873000000A6E46BCEEC00A10EE100A81B2100AA2
:108740008DF800008DF80120080A8DF802008DF8E0
:108750000310E00726D0324602214FF4EA7018F0E9
:10876000FFFE98BB17E09FED290A28EE000ABCEE39
:10877000C00A10EE100A9FED260A82B2D7E79FEDDD
:10878000250A28EE000ABCEEC00A10EE100A9FED82
:10879000220A82B2CBE7B21C02214FF4927018F089
:1087A000DFFE98B9A0070DD56A4602214FF4EC70A0
:1087B00018F0D6FE50B9B21C02214FF4947018F094
:1087C000CFFE18B9600714D56A4600E00CE002211C
:1087D0004FF4EE7018F0C4FE30B9B21C02214FF411
:1087E000967018F0BDFE20B1284602B0BDEC028B99
:1087F00070BD0020F9E700000000484300008046FB
:1088000000004046000000460000C04500008045D2
:1088100000004045000000450000C0440521B0FBB9
:10882000F1F008B5010A8DF800108DF801006A46D4
:1088300002214FF4EF7018F093FE08BD0521B0FB44
:10884000F1F008B5010A8DF800108DF801006A46B4
:1088500002214FF4ED7018F083FE08BD2DE9F04FB2
:10886000A1B0074614468A4604A80BF05DF94FF400
:10887000A021384612F02BFD9DF81D1060F38201F7
:108880008DF81D10A1882088091A491C09B201EB36
:10889000D1714E103044ADF8700060880021304432
:1088A000ADF87200384612F0D8FD8146514608A84E
:1088B00011F094FD04A810904FF4003015902D484D
:1088C000099000200A9007F130008346FCF7EEFD86
:1088D0004AE02079032843D1208BADF81000208A8C
:1088E000ADF812006079FD2801D9484602E010FB7E
:1088F00009F0000A8DF81C002568B5F92030E88BD6
:1089000018440090D5E90512A06810F0E5FB8046F8
:10891000B5F92030E88B18440090D5E90512E068DD
:1089200010F0DAFB0546608B08AA3044ADF85C0015
:108930001CA811901A21199438460DF08BFEA9B28B
:108940001FFA88F0CDE90001BDF85C301CAA04A92B
:1089500050460BF0D9F808AA1B2138460DF07AFED4
:1089600021465846FCF79FFD0400B2D121B0BDE876
:10897000F08F00005CCA06082DE9F74FC878A0B058
:108980000C4602287DD9114601A809F0D1FBB4F9A3
:108990002000012829DD94F82200FD2825D3208815
:1089A00018B394F82300BDF804104008C0F3800207
:1089B0001144ADF80410BDF80610C0F3400008449F
:1089C000ADF8060094F82310BDF808004908C1F37B
:1089D000C001401AADF8080094F82310BDF80A0051
:1089E000C1F34001401AADF80A00209801A982683D
:1089F00005A8FBF7F1FC002843D0E07B10F0070648
:108A000019D0E088ADF80000BDF800006189884207
:108A100000D1002601A80BF095FF07461C210EA8E7
:108A2000F3F795FCA0788DF85100BDF80000ADF883
:108A300040001FB105E060680090E5E7208800B9BC
:108A4000EEB3E078FD2800D3FF208346BDF8080090
:108A5000BDF80410401A401C0FFA80FABDF80A0055
:108A6000BDF80610401A401C01B289465046CA455E
:108A700000DB0846B4F90050B5EB600F00DB451091
:108A800000E043E0BDF81810BDF81400081A401CBF
:108A90000FFA80F84FF0FF301D9000200790002D56
:108AA00000DC87B1404610F055FB079000232A46B2
:108AB00001A916A80CF0B2F9002116A800E01CE0EC
:108AC0000BF060FD1D90BDF81400ADF80C00BDF872
:108AD0001800ADF810000798119003A80E9013909D
:108AE000FF208DF850004A465146A01D0EF09AF81E
:108AF000040018D0022E0CD015E001A80E90E078EA
:108B00008DF850000EA920980CF044FC23B0BDE86D
:108B1000F08FBDF91410A06800EB4100BDF90410FE
:108B2000A0EB41000F90002F7DD0BDF9165027E03B
:108B30002FB2ADF80E70ADF8127042465946079844
:108B400010F07EFCBDF9141043463A4607980BF02E
:108B5000BBFE8DF84800012802D102208DF84800A4
:108B6000012E08D1BDF90610A068691A00EB41007A
:108B70000088ADF840000EA920980CF00BFC6D1C8D
:108B8000BDF91A00A842D3DAB7E000BFBDF806006D
:108B9000BDF9161038440FFA80F9BDF80A00C01B61
:108BA0000FFA80FA494503DDBDF91A10514544DB3F
:108BB00042465946079810F043FCBDF90C10434655
:108BC0004A4607980BF080FE8DF84800012802D134
:108BD00002208DF84800BDF91610494513DCADF8A8
:108BE0000E90ADF81290012E09D1BDF90620A168B2
:108BF000A9EB020001EB40000088ADF840000EA98F
:108C000020980CF0C7FBBDF91A10514515DBADF8E3
:108C10000EA0ADF812A0012E0BD1BDF90600A2687E
:108C2000AAEB000000E009E002EB40000088ADF88C
:108C300040000EA920980CF0ADFB7F1CAF42A5DBD5
:108C4000BDF80400ADF87800BDF80800ADF87C0070
:108C5000BDF806002844ADF87A00BDF80A00401BB4
:108C6000ADF87E001EA80BF06DFE074630430CD019
:108C700001208DF84800BDF90A008DF850B0A0EB36
:108C80000509BDF90600054435E0BDF806008DF87C
:108C900050B02844ADF80E00BDF80A000EA9401BE4
:108CA000ADF812000020119020980CF073FB24E026
:108CB0006FB142465946079810F0C2FBBDF9141037
:108CC00043462AB207980BF0FFFD8DF84800ADF837
:108CD0000E50ADF81250012E08D1BDF90600A16862
:108CE000281A01EB40000088ADF840000EA920983A
:108CF0000CF050FB6D1C4D45DADD079808B110F003
:108D000075FA1D98401C05D01D980CF033F916A873
:108D10000BF0FCFD002C3FF4F9AE20460DF07CFF7B
:108D2000F4E6F0B5074608698FB015460C460028F2
:108D300071D0A17E02296ED90FF0CEF8022820D082
:108D4000694620690EF0AEFD012864D105A80BF03C
:108D50000BF9A0788DF82000208BADF81C00E07E88
:108D60008DF81E00A07E8DF81F00207F4FF0FF368B
:108D7000E0B300996888ADF8060006EB515108444D
:108D8000A8E0002641F6FF70CDE900600296D4E924
:108D9000041233460DA817F077F8284609F00CFAAC
:108DA00001462A88BDF9340001EBD17102EB610262
:108DB00000EBD071A2EB61010844401EADF8100039
:108DC000ADF80C10284609F0CBF901466A88BDF9C8
:108DD000360001EBD17102EB610100EBD072A1EB27
:108DE00062010844ADF80E10401E00E015E0ADF839
:108DF000120005A80BF06EFB60690590208BADF8A2
:108E00002000A07E8DF82E00009603AA05A9384602
:108E100023690BF0C3F80FB0F0BD284609F0CCF978
:108E2000298800EBD07001EB60000099C1F38A2122
:108E3000A0EB5100ADF80400284609F091F96988CB
:108E400000EBD07001EB60010098A1EB9051C0F3F2
:108E50008A22ADF80610BDF80430521E1A4406EB03
:108E60005050ADF808200844ADF80A0001AA05A941
:108E7000384623690BF050F8CDE700992888C1F3F4
:108E80008A21ADF80400491E084410E001AA05A992
:108E9000384623690BF040F80098BDF80410C0F381
:108EA0008A200144ADF80410BDF808100844ADF85C
:108EB0000800BDF90400B5F904108842E6DDBDF8EC
:108EC0000610009801EB5051ADF80610BDF80A10DD
:108ED00001EB5050ADF80A00BDF90600B5F90610D7
:108EE0008842CADD97E7F0B5074691F8220087B0BF
:108EF00016460C4602286BD9208C002868D094F8BE
:108F0000230010F03E0F63D0C00761D1B0883188D4
:108F10007288401A401C01B2F088B4F90050801ADF
:108F2000401C00B2814200DA0846B5EB600F00DD5C
:108F30004510314604A809F0FBF894F82300BDF968
:108F40001020C0F344014807B4F9200001D428449C
:108F500040421044ADF810000807BDF91420B4F9E0
:108F6000200001D428444042101AADF8140094F8AF
:108F70002300BDF9121040088007B4F9200001D485
:108F8000284440420844ADF8120094F82300BDF98B
:108F900016104008C007B4F9200001D1284440420F
:108FA000081AADF81600208C281A00B2002800DA42
:108FB0000020A27894F82210CDE90212E18BADF8DE
:108FC000041000902B4604AA3146384600F002F8FF
:108FD00007B0F0BD2DE9FF4FA9B01D46DDE9387996
:108FE000DDF8D88016460C46FF2F00D3FF27084631
:108FF0000BF0A8FC2690284350EA080074D029986A
:109000002146826808A8FBF7E7F9002873D0BDF86D
:109010002400BDF82010401A401C00B204901C210E
:109020000AA810F03FFA049810F094F80D904FF051
:10903000FF302490002D0ADD00232A46214615A882
:109040000BF0ECFE002115A80BF09CFA24900123F4
:10905000424631461BA80BF0E1FE00211BA80BF095
:1090600091FA259001A80A900F90BDF8DC008DF8C8
:109070004070ADF830008DF84190B4F900002290B6
:10908000B6F900C04319634500DC6346B4F9040037
:109090000FFA83F92190B6F90430401B984200DBA7
:1090A00018460FFA80F8B4F902E0B6F902000EEBA8
:1090B00005018246514500DC01460FB2B4F906B005
:1090C000B6F90610ABEB05028A4200DB0A4610B285
:1090D0000590A8EB0900401C00B22790D6450DDC96
:1090E00001200CE000E006E0009732462146379B65
:1090F000299800F0B8F92DB0BDE8F08F0020824625
:109100008B4501DB012000E0002083462698D8B380
:10911000BDF82000ADF80400BDF82400ADF808004B
:10912000BDF9224022E000BFBAF1000F01D1A742F1
:109130001BDCBBF1000F02D10598A0421ADB25B25F
:10914000ADF80650ADF80A5004990D9810F0D8F912
:10915000BDF920102A46049B0D980BF0B5FB8DF845
:1091600038000AA929980CF015F9641CBDF92600ED
:10917000A042D9DA1BA80BF0C9FB25980BF0FAFE28
:109180002498401C07D000E009E015A80BF0BEFBB6
:1091900024980BF0EFFE0D9810F028F8ABE722981A
:1091A000604501DC012000E00020139021989842E6
:1091B00001DB012100E000210120009013981291B1
:1091C000084000EA0A0010EA0B0F04D02798322862
:1091D00001DA00200090012000998DF838001AEA89
:1091E000010F0ED0ADF80490ADF808806088ADF89E
:1091F000060070880AA9401EADF80A0029980CF0F4
:10920000C9F800991BEA010F0ED0ADF80490ADF833
:109210000880F0880AA9401CADF80600E088ADF887
:109220000A0029980CF0B6F8139878B12088ADF8A8
:1092300004003088ADF80670401EADF808000598AF
:10924000ADF80A000AA929980CF0A4F8129878B190
:10925000B0880AA9401CADF80400A088ADF8080049
:109260000598ADF80670ADF80A0029980CF092F850
:109270000098C0B1BDF92400BDF92010A9F1010288
:10928000ADF80410904200DB1046ADF80800401A1B
:10929000401C05B2002D70DD139850EA0A0066D01C
:1092A000BDF9224061E0BDF82000ADF80400BDF832
:1092B0002400ADF80800B4F90200B6F90210401A13
:1092C000A84200DB05460FFA85F8002533E06088E8
:1092D000284406B2E088401B07B2BDF92200B04224
:1092E00003DDBDF92600B84224DB04990D9810F087
:1092F00007F9BDF904103246049B0D980BF0E4FA0F
:109300008DF83800BDF92200B04207DCADF80660E8
:10931000ADF80A600AA929980CF03CF8BDF92600BE
:10932000B84207DBADF80670ADF80A700AA92998B3
:109330000CF030F86D1C4545C9DB8DE026B2ADF868
:109340000660ADF80A6029460D9810F0D9F8BDF90D
:1093500004102B4632460D980BF0B6FA8DF8380003
:109360000AA929980CF016F8641CA742E6DC1398A9
:1093700050EA0B001DD0059C16E01AE026B2ADF8AD
:109380000660ADF80A6029460D9810F0B9F8BDF9ED
:1093900004102B4632460D980BF096FA8DF83800E3
:1093A0000AA929980BF0F6FFBDF92600641CA0421B
:1093B000E4DABDF9200008F10101884200DC08462A
:1093C000BDF82410ADF80400081A401C05B2ADF831
:1093D0000810002D40DD129850EA0A001BD0BDF99C
:1093E000224016E026B2ADF80660ADF80A602946C4
:1093F0000D9810F085F8BDF904102B4632460D98F3
:109400000BF062FA8DF838000AA929980BF0C2FF18
:10941000641CA742E6DC129850EA0B001CD0059CA5
:1094200015E026B2ADF80660ADF80A6029460D9841
:1094300010F066F8BDF904102B4632460D980BF07B
:1094400043FA8DF838000AA929980BF0A3FFBDF95B
:109450002600641CA042E4DA1BA80BF057FA2598FA
:109460000BF088FD8FE62DE9FF478EB00C46824653
:1094700015461C2102A81A9E10F014F8CDF808D049
:10948000BDF84400ADF810008DF82060B4F902007A
:10949000B5F90210884201DC012700E00027B4F989
:1094A0000600B5F90610884201DB012600E000261F
:1094B000B4F90000B5F90010884201DC012100E098
:1094C00000218946B4F90410B5F90420914201DB6A
:1094D000012100E00021ADF80000A088ADF80400F3
:1094E0006088ADF8020068888846401EADF8060026
:1094F0001FB102A950460BF04DFFE888401CADF8A3
:109500000200E088ADF806001EB102A950460BF03B
:1095100041FF2088ADF800002888401EADF8040007
:1095200017B1B5F9020001E0B4F90200ADF802008C
:1095300016B1B5F9060001E0B4F90600ADF8060071
:10954000B9F1000F03D002A950460BF023FFA88801
:10955000401CADF80000A088ADF80400B8F1000F81
:1095600003D002A950460BF015FF12B0BDE8F087FA
:109570002DE9F04F8B46A2F57F4195B09146064606
:10958000FF3944D0746A208C8046984204D02384EA
:10959000608C40F0040060844FF4802A51462046DD
:1095A00012F04BF907465146204612F068F905467D
:1095B000B7F90870304605F0F0FFB0F916107A19C7
:1095C00009FB021105EBD570A1EB6000ADF80600B8
:1095D00038446D1E2844ADF80A00706A818AADF8DF
:1095E0000410008BADF8080006A80BF0E7FC06AAF3
:1095F0005146204612F05AFB01AA06A958460BF024
:10960000C9FCA4F82080608C20F00400608415B0B0
:10961000BDE8F08F2DE9F0430E46A2F57F4191B0F1
:1096200090460546FF3956D06C6A278C9F4204D07D
:109630002384608C40F00400608406A80AF04AFF8E
:109640004FF4802906AA4946204612F08CFA494672
:10965000204612F014F9ADF82A00284605F09DFFC7
:10966000050038D00698B5F91620B0F90810BDF9F4
:109670002A0000EB010C08FB0C2200EBD073A2EBDC
:1096800063021044491EADF80A200844ADF80E00EC
:10969000A08AADF80800208BADF80C0002AA0EA835
:1096A000B168FAF799FE88B10EA8D6F80880B060C4
:1096B00028460FF0A3F803460020009005F114029D
:1096C00006A930460AF06AFCC6F808802784608C38
:1096D00020F00400608411B0BDE8F0832DE9F04172
:1096E000274E074670680AF047F904463868856BCC
:1096F000E96A09B128468847206850B1606828B9EE
:1097000007E070680068816A01B188472069002815
:10971000F7D10120206171680968C9688A69D20798
:1097200002D08969890700D400206061606908B1AE
:10973000012600E000263868416971B1016911F025
:10974000300F06D0490704D5D5E9001000F01AF80B
:1097500003E0D5E90021FDF7ABFF206800280BD01E
:109760006168002908D03A68127CB243D20703D15D
:10977000A268824202D1A160BDE8F081A060FBE74F
:10978000980800202DE9F34F05468A4893B04168B8
:109790000E683069820701D542076ED4C0F301100C
:1097A00002281ED0012801D0032866D100200F9086
:1097B00008460AF0E1F88346A988B5F90000EA886E
:1097C000091A491C0CB2B5F90210521A521C17B2F0
:1097D0004FF4A052B2FBF4F3BB420FDAB2FBF4F247
:1097E0000DE029463046149A00F0F0F8149A15B0AE
:1097F00029463046BDE8F04FFDF75ABF3A460C9275
:109800000791317CC1F30111012905D06880611EE7
:109810000844E8800020BDE07188081A401EE880F6
:10982000001B401C6880F5E70C99A7EB0A008842F2
:1098300000DD084600B201900120CBF81000BAF11B
:10984000000F20D1A7421EDB0194307CC0F3011031
:10985000032810D000202146149A00F0EAF8307C4A
:10986000C0F30110012809D031880798081A401E5A
:10987000A880001B56E00120EDE797E007982880BC
:109880000798204466E00F9820B94FF420500FF05D
:1098900061FC0F90307CC0F3011003281BD0002026
:1098A0008646DDF850C001990F980A9014FB01F02C
:1098B000401E0D90601E48430E9000208146884255
:1098C00022DA0E9ABEF1000F02EB090001D00D9AC8
:1098D000101A002212E00120E2E70A9BBEF1000FFD
:1098E00003EB400863460CF1020C1B88A8F800301B
:1098F00001D0084400E0401A521C12B2A242ECDB34
:1099000009F1010000B2D9E7307CC0F30110012851
:109910001BD031880798091AA1EB0A00401EA880C5
:109920000199401A401C288001990AEB0108B845AA
:1099300013DBDBF81800C0070FD0DBF81800800736
:109940000BD50120CBF814000AE00798504428807A
:1099500001990844401EA880E6E70021CBF81410C6
:109960000F9828B1024629463046FDF7A1FE05E0D2
:10997000149AF8E7B16A09B130468847DBF810005D
:109980000028F7D101981499604301EB400014902E
:109990000FFA88F08246B842FFF646AF0F980028CB
:1099A00004D015B0BDE8F04F0FF020BC15B0BDE8F5
:1099B000F08F00009808002030B504880D880580DD
:1099C00010880880188810801C8030BDF8B58B88FE
:1099D0000C884D881B1BCC885B1C641B641C13FB10
:1099E00004F300245B1E0DE002EB430602EB440788
:1099F0003588ADF80050B7F800C0A6F800C05B1E6F
:109A00003D80641CA342EFD843884C88CA881B1B46
:109A10005B1ECB8043889A1A521E4A8003880C88AA
:109A20008A881B1B5B1E8B800088801A401E088062
:109A3000F8BD2DE9F0470C4617468246002601EB9B
:109A4000D47931E00025601C00EBD07827E0A01B22
:109A5000401E01B2601B401E00B2BAF1000F0AD0D6
:109A600015FB041207EB420311FB040107EB410253
:109A700010FB046009E010FB046207EB420311FBDA
:109A8000040007EB400215FB041007EB400116FB36
:109A9000045007EB4000FFF78FFF6D1C2DB2B5EBB4
:109AA000680FD4DB761C36B2B6EB690FCADBBDE8B3
:109AB000F08700002DE9F047A2B005460CF0C5FD87
:109AC000044628460CF089FD8246606A0EF096FE38
:109AD000054694F85000C00778D004A80BF06EFA41
:109AE0004FF4E02904AA4946204612F0DFF804F1B9
:109AF000440101A808F025FB606ABDF80410828AC1
:109B00001144ADF80410BDF80610C08A01AA08443B
:109B1000ADF80600606ABDF80810808A0844ADF808
:109B20000800606ABDF80A10C08A0844ADF80A004F
:109B300004A950460BF02EFA4946204611F034FC99
:109B400006464946204611F037FD8719494620460A
:109B500011F0D3FD4FF000081E490644CDF8748083
:109B6000CDF87880E06C0968284488470246E06CAC
:109B700041191DA80FF0B8FBBDF8040040F2574290
:109B80003844ADF80400BDF8060041463044ADF855
:109B90000600606A11F0B8FD054612A80AF09AFCAA
:109BA00012AA4946204611F0DEFF9DF81300022854
:109BB00004D8BDF85400A9B2884207D01DAB01AA51
:109BC00012A95046CDF800800AF0E8F922B0BDE8AD
:109BD000F0870000B00900202DE9F14F9CB01C98DF
:109BE0000CF0F5FC06461C980CF02FFD0446122ED6
:109BF0007ED0152E01D0182E7BD1002111F085FECC
:109C0000E18E41430F120021204611F05BFE218EB0
:109C100001EB000A204611F0A9FE0490204610F046
:109C20006EFE03902046002141F2320211F06CFDDD
:109C300005462046002141F6120211F065FD284438
:109C40000FFA80F92046002141F6130211F05CFD65
:109C5000284400B20D902046002141F6100211F078
:109C600053FD28440FFA80F82046002141F61102E6
:109C700011F04AFD2844618E0FFA80FB01EB0900C8
:109C8000ADF86000A18E01EB0800ADF8620094F819
:109C9000390000F0030001287DD018A9B8B2CDE941
:109CA0000001DDE903210FFA8AF305A8FAF7DEFDCA
:109CB000BDF81410A08A0844ADF81400BDF81610C1
:109CC000E08A0844ADF81600BDF81810A08A0844D0
:109CD000ADF81800BDF81A10E08A0844ADF81A0073
:109CE00004F114010D461AA80C9108F00FFA01E0D6
:109CF0006BE067E005A9284608F008FACF481C99F0
:109D000010F017FD01285DD11AA90C9808F0FEF992
:109D1000152E57D1E08D002854D0A08D002851D0A9
:109D2000002F4FD01C980CF058FC064603A80C9945
:109D300008F0ECF920460DF079FF054694F839005B
:109D400000F0030001287DD0BDF81800BDF8141004
:109D5000401ABDF80C100844ADF81000BDF81A0008
:109D6000BDF81610401ABDF80E100844BDF80C10CE
:109D7000ADF8120001EB0900ADF80C00BDF80E10B3
:109D800001EB0800ADF80E00BDF810100D98081A90
:109D9000ADF8100000E089E0BDF81210A1EB0B0057
:109DA000ADF8120094F8380000F00301012977D0D3
:109DB000800775D0022974D00023194630460C9ACA
:109DC0000AF0AAF81DB0BDE8F08F1C980CF03BFC1F
:109DD000054600780228F5D094F838004FF00106C7
:109DE000C14389075AD000F00301022956D0C0F3BD
:109DF0008400042801D0012850D1204600214622A9
:109E000011F082FCC0B2FF2848D10021204611F099
:109E100059FD218EC14241D10021204611F075FD2E
:109E2000E18E41430F121C980CF00DFC8046B7F5F3
:109E3000807F37D0204610F062FD8146204611F029
:109E400095FD00E037E0014604F13202B8B2CDE9F9
:109E5000000200234A4603A8FAF708FDBDF80C00EB
:109E6000A18A00220844ADF80C00BDF80E00E18A7A
:109E70000844ADF80E00BDF81000A18A0844ADF802
:109E80001000BDF81200E18A0844ADF8120003A9E1
:109E90004FEA0800FAF7C8FA002893D12E7091E72C
:109EA00034E0BAE0002204F11401F3E705A92046EA
:109EB00010F0EDFC14E7B4F92C0029B2401ABDF8FB
:109EC0000C10401C00EBD070A1EB6001ADF80C1041
:109ED000BDF81010BDF80E20A1EB6000ADF8100029
:109EE000B4F92E002914401A401C00EBD070A2EBEC
:109EF0006000ADF80E00B4F92E00401ABDF8121043
:109F0000401C00EBD070A1EB60002FE70FA80AF017
:109F10002BF80FAA0021204611F0DCFDADF83E70B1
:109F2000ADF83CA0608EADF84000A08EADF84200C8
:109F300094F8380015AAC0098DF85000BDF8141027
:109F400001EB0900BDF81610ADF8540001EB080054
:109F5000ADF85600BDF818100D98081ABDF81A1083
:109F6000ADF85800A1EB0B00ADF85A00B1681046EF
:109F70000F46FAF731FA002891D015A8B060BDF964
:109F80000E10608D084400B2ADF80200884203DD77
:109F9000E18D401AADF80200E18D80B20844401E08
:109FA00031E000BFBDF90C10208D084400B2ADF8BF
:109FB0000000884203DDA18D401AADF80000A18D9C
:109FC00080B20844401E0DE06A460FA93046636A1D
:109FD00009F0A2FFBDF800002844ADF80000BDF86C
:109FE00004002844ADF80400BDF90000BDF91010CC
:109FF0008842E9DBBDF8021028140144ADF80210D4
:10A00000BDF806100844ADF80600BDF90200BDF920
:10A0100012108842C6DBB760D4E60DA80AF05AFADF
:10A020000DAA0021204611F09EFD00200090636AD9
:10A030000DA930460C9A09F0B1FFC3E608C6060820
:10A040002DE9F04FD3B005460CF0FFFA0446284640
:10A050000CF0C3FA4F9010A9204610F018FC002114
:10A0600040F60A02204611F04FFB0546002140F65B
:10A070000B02204611F048FBBDF84010BDF844200B
:10A08000491BADF840102A44BDF84230ADF84420D9
:10A090001B1ABDF84650511A2844ADF84600C01AA4
:10A0A000401C0FFA80FAADF84230D4E90A02491C8C
:10A0B0000FFA81FBA2EB0008D34501DB012100E090
:10A0C0000021894600213E9194F85C1001F00301C3
:10A0D000012908D1002806DA002A04DD216B81421B
:10A0E00001D101203E900021204611F042FA21903A
:10A0F0000021204611F083FA36900021204611F00D
:10A10000D2FA20900021204611F0DFF9359004F1B9
:10A11000340010A9139007F0E7FFA18E219808449E
:10A12000A086218F3698081A2087E18E2098014456
:10A13000E186618F3598081A00B26087B9F1000F87
:10A1400011D0E18E401A401C00B204281DDAE18AC9
:10A150000AEBDA726FF0010000EB62000844E0865F
:10A16000001D608711E0218FA08E081A401C00B2EC
:10A1700004280ADAA18A0BEBDB726FF0010000EB16
:10A1800062000844A086001D2087218FA08E081A37
:10A19000401C00B21890618FE08E081A401C00B27B
:10A1A0002290B9F1000F05D004F13805DC48189F62
:10A1B000139E04E004F13606DA48229F351D3A90DA
:10A1C000A36D581C14D0216DA06A626D091A101A73
:10A1D0007943784391FBF8F190FBF8F009B200B2B3
:10A1E000401A5843C21700EB126001EB202005E033
:10A1F000216BA06A081A784390FBF8F000B2169021
:10A20000A26C501C14D0216CA06A636C091A181A35
:10A210007943784391FBF8F190FBF8F009B200B272
:10A22000401A5043C21700EB126001EB202005E0FA
:10A23000D4E90910081A784390FBF8F000B23F9077
:10A240002046002141F26A4211F05EFAC0B2B9F133
:10A25000000F28D001280AD130462E4605463F98E7
:10A26000404200B23F901698404200B216903188AA
:10A270003F980844288031881698084430803E98DA
:10A2800088B3A06A4042784390FBF8F000B2B9F17D
:10A29000000F15D031880844B5F9001000B2814292
:10A2A0000BDD308039E029883F98081A401C308047
:10A2B00029881698081A2880E1E7318028802CE048
:10A2C0002988081A401CB6F9001000B2814201DD4D
:10A2D000288001E029803080B5F90010B6F900002F
:10A2E0008142EADB19E0FFE73A9913988847012891
:10A2F00013DC35A84F9910F071F84FF400304290FC
:10A3000089483690002037901398389035AA1A2142
:10A3100020460CF09FF935AAFBE050A8139907F0EE
:10A32000E3FE68460AF04AFE4FF400356A462946C5
:10A33000204611F0BBFC23A84F9910F04FF84FF0C6
:10A3400000087948CDE924083095CDF89CD01398C1
:10A350002690454623AA1A2120460CF07BF9204678
:10A360006022294611F0D0F905B258465146D3452E
:10A3700000DB0846B5EB600F00DD4510229A189906
:10A38000BDF90000914200DB1146B0EB610F00DD2A
:10A390004810B9F1000F02D0228FA18E01E0628F28
:10A3A000E18E511A491C09B2B1EB400F18DD9DF83E
:10A3B000220012909DF803709DF81A608DF80380BA
:10A3C0008DF81A808DF822806946139A4F980AF00A
:10A3D000E1FD12988DF803708DF81A608DF8220057
:10A3E000A18A219800230844ADF83401218B3698C6
:10A3F0002A46081AADF83801E18A20980844ADF8D9
:10A400003601618B3598081AADF83A014DA947A875
:10A410000AF004FD002147A80AF0B4F817909DF84F
:10A4200022608DF8228045468DF8368010A90EA84E
:10A4300007F05AFEBDF838102198084400B2ADF874
:10A440003800BDF83A20209911440BB2ADF83A30EB
:10A45000BDF83C203699511A0AB2ADF83C20BDF83F
:10A460003E703599791A09B2ADF83E10B9F1000F76
:10A4700012D0C81A401C00B204281FDAE18A0AEB85
:10A48000DA726FF0010000EB62000844ADF83A00A8
:10A49000001DADF83E0011E0101A401C00B2042867
:10A4A0000CDAA18A0BEBDB726FF0010000EB6200AB
:10A4B0000844ADF83800001DADF83C00BDF900209F
:10A4C000002319A813990AF0A9FC002119A80AF081
:10A4D00059F807460EAA69464F980AF05BFD8DF8B9
:10A4E00022608DF803508DF81A508DF83650694669
:10A4F000139A4F980AF04EFD19A80AF007FA47A8D8
:10A500000AF004FA38460AF035FD17980AF032FDD1
:10A5100023AA1B2120460CF09DF853B0BDE8F08F14
:10A52000AD210208552102087CC506082DE9F04737
:10A53000B8B005460CF089F8044628460CF04DF8F2
:10A5400082460021204610F0DFFE0646204611F02C
:10A550000DFA0546204610F0D2F9854201DB0127AD
:10A5600001E00027284694F85C108046002001F0A6
:10A570000301012906D1A16A002903DAE16A002951
:10A5800000DD01208FB110B1606A00280ADB012EC6
:10A5900003D100BFB4F9340001E0B4F93800ADF8DC
:10A5A00000000BE0012EF8D0F4E710B1606A00283B
:10A5B00001DBE08E00E0608FADF8020017A80AF022
:10A5C000FDFC4FF4403517AA2946204611F06EFBDA
:10A5D0003B4642466946204617F016FB04F16800E8
:10A5E0006946814607F09BFD514605A80FF0F6FE2F
:10A5F0002F4806900020CDE9125017ADCDE90895FF
:10A600000790204614F000F8022806D005AA1A2167
:10A6100020460CF01FF84A463DE0382217A926A82C
:10A620000EF062FE05AA1A2120460CF013F84A46E5
:10A6300017A950460AF0AEFC05AA1B2120460CF0D3
:10A6400009F84FB1012E02D0B4F9340001E0B4F999
:10A650003800ADF8000002E0608FADF802003B4624
:10A6600042466946204617F0CFFA04F16000694679
:10A67000064607F054FD382226A917A80EF034FE2E
:10A6800001200995CDE90706139005AA1A21204655
:10A690000BF0E0FF324617A950460AF07BFC05AAF2
:10A6A0001B2120460BF0D6FF38B0BDE8F087000034
:10A6B00078C606082DE9F0438FB004460BF0C5FFBD
:10A6C000054610F05DF9074603A809F003FF03AA49
:10A6D0000021384611F047FA20460BF07EFF8168D2
:10A6E00004460E4607F114020DA8F9F775FE00287E
:10A6F00050D00DA8A0600BA9384605F031FAA88A01
:10A70000ADF80400E88AADF80600288BADF8080023
:10A71000BDF82E00ADF80A0001AA1046A168F9F7AD
:10A720005BFE4FF000090DF1040878B1A7682846D8
:10A73000C4F808800EF062F8034605F1140203A97C
:10A740002046CDF8009009F029FCA760A88AADF852
:10A750000400BDF83200ADF80600288BADF8080003
:10A76000688BADF80A0001AA1046A168F9F734FE1B
:10A7700078B1A7682846C4F808800EF03FF8034671
:10A7800005F1140203A92046CDF8009009F006FC5B
:10A79000A760A6600FB0BDE8F08300002DE9FF4F71
:10A7A0009FB0987B8A7E00F00F04DDF8B0E00E4683
:10A7B000032C18D0012C1DD0022C21D0042C13D036
:10A7C000082C7DD1A24D4FF0FF0A6101FD2A2FD246
:10A7D000A04F3878904202D17868A04225D000205E
:10A7E000DFF874821FE00424994D4FF0F00A103D09
:10A7F0001021EBE7964D4FF0800A163D0221E5E768
:10A80000934D4FF0C00A143D0421DFE715F800C056
:10A81000BCF1FF0F1DD01CFB02FC4FEA1C2C00BF3B
:10A8200008F800C0401C8842F0D38B4D3A707C6021
:10A830001F9AB3F80680188907902199926808FB3F
:10A8400004F0B1F90010B2F90030994203DB0023A3
:10A8500002E09446E4E75B1A9B46B2F9043001EB50
:10A8600008079F4201DC414601E0591A491C89460C
:10A870002199B2F90230B1F90210994201DB0023AB
:10A8800000E05B1A1193079BB2F906200B44934238
:10A8900001DC079901E0511A491C0A9111994143C1
:10A8A0000BFB04100EEBD00100F007072C911C21CC
:10A8B00015A80EF0F7FDB089ADF85C00B07E00E0A1
:10A8C000C2E08DF86C00B07FC0F3C2008DF86D005F
:10A8D000FBF73EF809F054F8079A08FB02F18142B1
:10A8E00000DC08461C900EF035FC0790189021986B
:10A8F0000026018801EB0B02ADF80C200188A9F1BC
:10A90000010001442198ADF81010438811981844B3
:10A910008B1AADF81200ADF80E00ADF83810ADF896
:10A9200034200A99ADF836005B1C08441BB2ADF820
:10A930003A000B930DA80AF005F81D9003A8159096
:10A940001A90C4F1080008EB0B010F90A1EB09006D
:10A9500060431290119860E033462AFA07F0594696
:10A960004FF0000C1FE02C9ADDF83C801278A8EB29
:10A970000708024032FA08F205D015F80280079A5B
:10A9800002F8068002E0079A02F806C00F9A974282
:10A9900002D22744E04004E02C9A0027521C504683
:10A9A0002C92491C761C4945DDDB1D9880B1079827
:10A9B000BDF912201844BDF90C1080460B9B09F01C
:10A9C00083FF8DF8640018B940460B990EF06AFDBC
:10A9D000A9EB0B0081191C98814205D2BDF8120029
:10A9E000401CADF812000EE002208DF8640015A99D
:10A9F0001F980AF0CFFCBDF81200401CADF80E0005
:10AA0000ADF81200002612982C99384401EBD001C1
:10AA100000F0070701982C91401C0A990190884288
:10AA20009ADBBDF90E10BDF91200814209D0401E1B
:10AA3000ADF8120002208DF8640015A91F980AF0E5
:10AA4000A9FC07980EF0D2FB23B0BDE8F08F000000
:10AA500016C90608D8090020E41D01202DE9F04F91
:10AA60008346B1F902000C46401E411000F001007F
:10AA70004618B2F90050B3F9000089B0854200DAF7
:10AA80002846ADF80000B2F90000B3F90030984252
:10AA900000DC1846401EADF804005088801BADF85D
:10AAA000020050880844ADF8060069460846DBF805
:10AAB0000820F9F791FC00281FD0E08818B1A08881
:10AAC00008B1012700E000270125684609F03AFF98
:10AAD00000B907B100251C2102A80EF0E3FCCDF857
:10AAE00008D02088ADF81000207A6E468DF820003E
:10AAF00035B102A958460AF04DFC09B0BDE8F08F07
:10AB0000BDF80410BDF90000BDF90680091A491C02
:10AB10000DB2BDF80210ADF806104FF0000A47B1B3
:10AB2000B4F90610B4F90420114490FBF1F201FBD2
:10AB3000120A28460EF00EFB079605908146BDF9D5
:10AB400002603EE0294648460EF0DAFCBDF90010EE
:10AB50002B4632B2484609F0B7FE8DF818000FB305
:10AB600000B3002150460B4617E000BFB4F90420A3
:10AB7000824205DB121A1144104409B200B208E007
:10AB8000B4F906C06244824201DC002001E009F809
:10AB90000130491C401C09B200B2A942E6DB022088
:10ABA0008DF8180002A958460AF0F4FBBDF802001F
:10ABB000401CADF80200BDF80600401CADF80600D0
:10ABC000761C4645BEDD48460EF010FB95E70000BA
:10ABD0002DE9FF4FB2F90240B3F90250C5B0AC42C3
:10ABE00008DA128864F31F4062F30F0065F31F4117
:10ABF0001A8807E01B8865F31F40128864F31F4121
:10AC000063F30F0062F30F010FFA81F904B2051428
:10AC1000A9EB04064FEA214AAAEB05070391002E8F
:10AC200001DD314600E07142002F01DD384600E0D1
:10AC30007842814201DD012000E000201590469815
:10AC4000B0F90210159858B1002F01DD384600E028
:10AC500078424201002E01DD30460CE070420AE0ED
:10AC6000002E01DD304600E070424201002F01DD80
:10AC7000384600E0784292FBF0F0AB4A105C10FBE3
:10AC800001F03F30C0114FEA600800F0010202EB12
:10AC9000080B49464C4500DA2146A1EB0001ADF80E
:10ACA000581001DD214600E049460144ADF85C1032
:10ACB0005146554500DA2946A1EB0001ADF85A107E
:10ACC00001DD294600E051460844ADF85E00459894
:10ACD00016A982680846F9F77FFB00287ED01598F0
:10ACE000002100287BD0002E16DDAAEB080000B260
:10ACF000CDE90001A5EB080002B24B46214620A891
:10AD000009F0C4FE0AEB0B00012100B2CDE90001FD
:10AD10004B4605EB0B0015E00AEB0B0000B2CDE94A
:10AD2000000105EB0B0002B24B46214620A809F0BA
:10AD3000ADFEAAEB0800012100B2CDE900014B46AF
:10AD4000A5EB080002B221460AA809F09FFE0021E7
:10AD500020A809F017FC189000210AA809F012FC9D
:10AD6000159046984FF0FF39C846407AC00623D464
:10AD7000A819032100B2CDE90001E01B03B22A4665
:10AD800021462BA809F082FE039902200A1491198A
:10AD900009B2CDE90010039801B2C81B03B236A86E
:10ADA00009F074FE00212BA809F0ECFB814600217C
:10ADB00036A809F0E7FB8046BDF85C00BDF85810E6
:10ADC000401A401C04B2FAF7C3FD08F0D9FD05464D
:10ADD00016A807F0D1F9A84206D201E0A1E027E0C9
:10ADE00016A807F0C9F90546AA4628460EF0B2F99A
:10ADF0008346BDF95E70BDF85A00ADF85E000025CF
:10AE0000514658460EF07CFB1C2119A80EF04AFB57
:10AE100016A9199146980088ADF86C004698BDF9BE
:10AE20005A60007A8DF87C00CDF870B01E9145E034
:10AE300009EB0B00CDE900A103B204EB0B0001B25A
:10AE40002A4620A809F022FE0121A9EB0800CDE93D
:10AE500000A103B2A4EB080001B22A4674E700BFC8
:10AE6000BDF958100BEB0500234632B2079009F0EC
:10AE70002BFD8DF8740018B9214607980EF012FBCF
:10AE800025442919514505D2BDF85E00401CADF896
:10AE90005E0012E002208DF8740019A945980AF0AE
:10AEA00079FABDF85E000025401CADF85A00ADF8F7
:10AEB0005E00514658460EF023FB761CBE42CFDDA5
:10AEC000BDF95A10BDF95E00814209D0401EADF8AF
:10AED0005E0002208DF8740019A945980AF05AFA0C
:10AEE00058460EF083F920A809F010FD0AA809F0D1
:10AEF0000DFDB9F1FF3F02D02BA809F007FDB8F115
:10AF0000FF3F02D036A809F001FD18980AF032F888
:10AF100015980AF02FF848460AF02CF840460AF037
:10AF200029F849B0BDE8F08F16CA06082DE9F04FA0
:10AF30008346B1F902000C46401E411000F00100AA
:10AF4000158889B00844281AADF800001088084414
:10AF5000ADF80400B2F90210B3F90200814200DA40
:10AF60000846ADF80200B2F90200B3F902108842B7
:10AF700000DC0846401EADF8060069460846DBF8CE
:10AF80000820F9F729FA00281FD0E08818B1A08816
:10AF900008B1012600E000260127684609F0D2FC2E
:10AFA00000B906B100271C2102A80EF07BFACDF8EB
:10AFB00008D02088ADF81000207A6D468DF820006A
:10AFC00037B102A958460AF0E5F909B0BDE8F08F9B
:10AFD000BDF80400BDF80010BDF90670401A401C11
:10AFE0000FFA80F9BDF80200ADF8060048460EF0F1
:10AFF000B1F8824605900795002056B1B4F90600D5
:10B00000B4F904100844BDF9021091FBF0F200FB02
:10B0100012108046BDF9025031E0494650460EF00C
:10B020006FFABDF900104B462AB2504609F04CFCAD
:10B030008DF81800A6B178B1B4F90410414502DAD0
:10B0400000208DF81800B4F90600B4F9041001448A
:10B05000414501DC4FF0000808F101000FFA80F8CB
:10B0600002A958460AF096F9BDF80200401CADF856
:10B070000200BDF80600401CADF806006D1CBD4284
:10B08000CBDD50460EF0B2F89FE77CB505460BF0DD
:10B09000DCFA446A28460BF0A0FA626A0546816829
:10B0A00068461432F9F798F9002835D0AE68C5F82B
:10B0B00008D094F83C00800621D5628FE08E824251
:10B0C00008D1212329462046FEF752FA2046628FF6
:10B0D00021231DE0202329462046FEF749FA204679
:10B0E000628F20232946FEF795FA2046E28E01233F
:10B0F0002946FEF73DFA2046E28E012308E020466D
:10B10000628F20232946FEF733FA628F20462023E0
:10B110002946FEF77FFAAE607CBD00002DE9F04FB6
:10B12000D5B005460BF091FA0446008E00287DD07C
:10B1300028460BF052FA4F90608C49A940F0040069
:10B14000608420460FF0A3FB0025278C2584608CAB
:10B15000A94640F004012E46C846618433A809F090
:10B160002DFF41A809F0B6F94FF4A02A33AA5146A1
:10B17000204610F09BFD41AA5146204610F0F3FCFA
:10B18000608C002120F0040060842046278410F0A9
:10B1900091FA53900021204610F09EF95290002120
:10B1A000204610F0EDF951900021204610F02EFAC3
:10B1B000509020A84F990FF011F9B548CDF8B4A0E0
:10B1C000CDE9210812A824900AA8259054E1761C04
:10B1D000B6B2606AAFA150F82600F1F7CAF80028AD
:10B1E000F5D0E06A30F81500C0F3C001002974D131
:10B1F0008846C0F3C01109B14FF00108C0F34010F8
:10B2000010B148F0800014E0A08EA84212D1B80618
:10B2100001D548F02008B80701D548F002087807A2
:10B2200001D548F00408380704D500E02CE148F0C7
:10B2300008008046A06A00EBC50103A806F05DFF88
:10B24000BDF80C10BDF82401B8F1000F0144ADF8B1
:10B250000C10BDF80E20BDF826110A44ADF80E20E2
:10B26000BDF810201044ADF81000BDF812000844DD
:10B27000ADF8120026D0A4F82080608C40F00401C4
:10B28000618412A809F09AFE0AA809F023F912AA0B
:10B290005146204610F00AFD0AAA5146204610F0F9
:10B2A00062FC2784608C20F004016184E06A30F83D
:10B2B0001500C0F3003000289DF845000ED040F086
:10B2C00001000DE0382233A912A80EF00DF820225B
:10B2D00041A90AA80EF008F8E8E7C9E020F001004B
:10B2E0008DF8450003A8239020AA1A212E95204608
:10B2F0000BF0B0F99DF86B004108C9063CD520F071
:10B300003E001E308DF86B00B4F914305199BDF930
:10B310000C2019448A4203D120F008008DF86B00FC
:10B32000B4F918205098BDF91010101A814205D1B7
:10B330009DF86B0020F010008DF86B00B4F916201A
:10B340005398BDF90E101044814205D19DF86B0051
:10B3500020F004008DF86B00B4F91A205298BDF962
:10B360001210101A814207D19DF86B008108490024
:10B3700061F345008DF86B00BDF81210BDF90E00A9
:10B38000091A491C0FFA81FB5FEA886108D5E16A56
:10B3900031F81510890503D5A0EB0B00ADF80E00B0
:10B3A00003AA12A94F9809F0F5FD606ABDF93C3077
:10B3B000BDF93A1050F826000890BDF82801BDF8F4
:10B3C00024C10A9AA0EB0C00401C00B2CDE9001089
:10B3D0009DF845C0CDF808C054A8089914F054FD54
:10B3E000BDF81010BDF80C00BDF95031091A491C08
:10B3F00009B2C91A01EBD17100EB6100ADF80C0084
:10B40000BDF81210BDF80EC0BDF95221A1EB0C0120
:10B41000491C09B2891A01EBD1710CEB610109B227
:10B420001844ADF81000881802B2ADF80E10ADF84F
:10B4300012205FEA88600ED5E06A30F815008005BA
:10B4400009D50BEBDB70A1EB6001A2EB6000ADF85E
:10B450000E10ADF81200CDF8009003AA0AA9089BBF
:10B460004F9808F09BFD20AA1B2120460BF0F2F814
:10B470006D1C761CADB2B6B2208EA8423FF6A9AEC6
:10B48000608C20F00400608455B0BDE8F08F0000AF
:10B49000B4C506080A0000002DE9F04FA7B0054624
:10B4A0000BF0D3F8044628460BF097F822900021C1
:10B4B00020460FF06BFF0546002141F612022046A0
:10B4C00010F022F928440FFA80FB002141F6130204
:10B4D000204610F019F928440FFA80FA002120467E
:10B4E00010F0EFF828440FFA80F918A808F0F2FFDE
:10B4F00018AA4FF40031204610F035FBA06A08B1BD
:10B50000179009E080200DF025FE054601468022B7
:10B5100020460AF035FE179594F83C00002700F00D
:10B520000F00012800D101272046002141F26A4284
:10B5300010F0EAF8C0B2012800D10127E06A002823
:10B5400069D00CF0C9FC804602280DD002A9E06A3F
:10B550000CF0A8F901281BD04FF0FF363546E7B1B3
:10B56000A18A01EB0B001CE0BDF972009DF87D2063
:10B5700041F6FF718DE80700BDF97430189A15A8DF
:10B58000E16A14F081FCBDF95460BDF95650E6E75C
:10B590000298C0F38A26450DE1E7218BA1EB0A0052
:10B5A000801B711EADF814000844ADF81800B8F106
:10B5B000020F5ED020460FF0A2F9401BE18A00EB9B
:10B5C000D07001EB6000ADF81600691E0844ADF8BC
:10B5D0001A0011A808F0C8FC4FF4003811AA41461F
:10B5E000204610F077FA06EBD6704010ADF8480010
:10B5F00005EBD5704010ADF84A00204643F60F0227
:10B60000414610F081F8ADF8440005AA11A9E36A9B
:10B61000229808F081FC09A808F05CFF09AA002123
:10B62000204610F0A0FABDF936009DF8412041F601
:10B63000FF718DE80700BDF9383007A8099A1799FE
:10B6400014F022FCE18A01EB0900BDF81E10ADF8F0
:10B650000E000844ADF81200E06AE0B13FB3218B60
:10B66000A1EB0A00BDF81C10B0EB0100ADF80C0016
:10B6700024E0E18A6D1E01EB0900ADF816002844B4
:10B68000ADF81A000020009005AA18A9E36A2298D4
:10B6900008F084FCBFE7204610F068F9BDF91C10E3
:10B6A000A28A401A00EBD07002EB6000DEE7A18AAC
:10B6B00001EB0B00BDF81C10ADF80C000844ADF810
:10B6C00010000020009003AA09A9179B229808F0F7
:10B6D00065FCA06A002802D117980DF087FD27B0FD
:10B6E000BDE8F08F2DE9F04798B005460AF0ADFFB0
:10B6F000044628460AF071FF06460FA920460FF0BF
:10B7000064F894F848000025C10600D5012580069C
:10B7100001D545F002050021204610F004F9A0F5FE
:10B720001C51D13904D1608C400501D445F0040589
:10B7300007A808F0CFFEB4F84400ADF83200B4F822
:10B740004600ADF834008DF8395007AA0021204694
:10B7500010F009FA9DF83800012708B98DF8387003
:10B76000E06B0890206C099008994FF6FF708142B9
:10B7700019D00999814216D04FF48028204644F20E
:10B78000574241460FF0C0FF0090BDF80000ADF8F1
:10B790002A002046202241460FF0B6FF0090BDF857
:10B7A0000000ADF82C0094F8480041F6FF7A00F054
:10B7B0000700022801D003281ED19DF83800022876
:10B7C00001D0032818D1BDF92E100295CDE9001A39
:10B7D000BDF93030079A16A8616A14F055FBBDF820
:10B7E0004000BDF83C10401A401CBDF9581000B292
:10B7F000884201DA8DF8387094F8480004F1300777
:10B8000000F00700032809D0BDF84200BDF83E1043
:10B81000401A401C00B2B0F5806F00DA00270FA973
:10B8200014A8B268F8F7D8FD00287DD094F8480035
:10B8300040070BD120460FF0D5F9404202B200215B
:10B840000FA806F0D2FC608BADF8420094F84800D7
:10B850000DF1500900F00700022813D0032811D081
:10B8600000970FAA07A93046636A08F097FBB068F3
:10B87000C6F80890804694F8480000F007000328B6
:10B880000FD05FE0D6F80880C6F8089000970FAA9E
:10B8900007A93046636A08F081FB4046C6F8088075
:10B8A000E6E7BDF92E100295CDE9001ABDF930305A
:10B8B000079A06A8616A14F0E7FABDF84000BDF8DF
:10B8C0003C10401A401CBDF9181000B2884219DA29
:10B8D0002022114607980AF098FFB4F84410BDF8EA
:10B8E000182000EB400011440844ADF83200B4F8D1
:10B8F0004600ADF8340000970FAA07A93046636AE6
:10B9000008F04CFBBDF84200BDF83E10401A401C48
:10B9100001B2BDF91A00814214DAB4F84410ADF84E
:10B9200032100799098900E00EE0B4F8462000972C
:10B9300010440844ADF834000FAA07A93046636AE2
:10B9400008F02CFBC6F8088018B0BDE8F0872DE998
:10B95000F04397B007460AF03AFE054638460AF02B
:10B9600074FE04464FF48026152D7DD0182D7CD111
:10B9700038460AF032FE054607A808F0ABFD07AAD4
:10B980003146204610F0EFF813A9204604F0E8F8FD
:10B9900013AA15A8A968F8F71FFD002865D020464E
:10B9A00003F002FE814620460FF0E0FF06464846BF
:10B9B0000CF024FFBDF92E10CDE9001602220292F0
:10B9C0000146BDF9303005A8079A14F05DFA20460B
:10B9D0000EF095FFB4F9161000EBD076B9F9160009
:10B9E00001EB6601471A48460EF089FFB90391FB47
:10B9F000F0F7002120460FF028FF0799B0F9080062
:10BA0000B1F90810081A00EBD070BDF816104010FC
:10BA1000091A09B2ADF81610E28A794302EB660200
:10BA200002EBA1310F1A002120460FF0B6FC804630
:10BA30002046002141F612020FF066FE064620461F
:10BA4000002141F613020FF05FFEA28A06EB080107
:10BA50001144ADF84010ADF84270218B081AA0EBEC
:10BA60000800ADF8440001E01DE019E0BDF8160043
:10BA70003844ADF846009DF8390040F002008DF8DA
:10BA8000390015A8AC68A86048460CF0B7FE03461C
:10BA90000020009010AA07A9284608F07FFAAC60A1
:10BAA00017B0BDE8F08338460AF097FD054610A9A7
:10BAB000204604F055F8684609F080FA6A46314697
:10BAC000204610F0F3F810AA6946284609F062FAF9
:10BAD000E6E72DE9F043ABB005460AF0B6FD0446B3
:10BAE00028460AF07AFD8146002120460FF056FDD7
:10BAF0000746002120460FF097FD0646002120460C
:10BB00000FF0EDFD0546002120460FF0F3FCA18A61
:10BB1000E28AADF88A20238BADF88C30B4F81AC0D5
:10BB20003944ADF88810991BADF88C10ACEB0000CF
:10BB30005119ADF88E00ADF88A1006A809F03EFA4A
:10BB400006AA4FF40031204610F0B0F822AA06A948
:10BB5000484609F01FFA20460EF0D1FE0546208B1C
:10BB6000A18A411A491C481B06B2606A411C06D0D2
:10BB70007043C11700EB116040F30F2708E0204627
:10BB80000FF092FB10F0010F01D0374600E00027C4
:10BB90002046002141F26A420FF0B6FDC0B20128F2
:10BBA00001D1F01B07B2A08A3844ADF80000284448
:10BBB000ADF80400E08AADF80200608BADF8060035
:10BBC0004FF44037394620460FF0E8FC0646394628
:10BBD00020460FF029FD8046394620460FF07FFDB4
:10BBE0000546394620460FF085FCBDF80010BDF82B
:10BBF0000420891BADF8001002EB0801ADF8041019
:10BC0000BDF80210491BADF80210BDF8061008443B
:10BC1000ADF8060014A809F0D1F914AA3946204657
:10BC200010F044F86A4614A9484609F0B3F92BB05D
:10BC3000BDE8F0832DE9F04FE5B005460AF005FDBB
:10BC4000044628460AF0C9FC8346826804F11401C0
:10BC500016A8F8F7C1FB00287ED0DBF80800089092
:10BC600016A9CBF808102046002141F232020FF04D
:10BC70004BFD00B25B90002120460FF037FD5F9036
:10BC8000002120460FF03DFC6190002120460FF07E
:10BC90008CFC5E90002120460FF0CDFC4FF4A025D7
:10BCA0005D90294620460FF080FC0D9029462046E5
:10BCB0000FF0C1FC0A90294620460FF017FD1590A1
:10BCC000294620460FF01DFC1490208C00260E9073
:10BCD0002684608C40F00401618428A809F06EF984
:10BCE00028AA294620460FF0E1FF18A808F0F2FB29
:10BCF00018AA294620460FF036FF0E982084608C43
:10BD0000002720F00400608420460EF079FFE28ACC
:10BD10005F991144091A5B980844401EADF816005B
:10BD200020460EF066FF5C90002120460FF0F3FAEB
:10BD3000012800D000205A90594637A80EF04EFB3B
:10BD40004FF4A0204490E04838900020399049A852
:10BD50003B9020A83C9000E093E0002089E0E16A5D
:10BD6000BDF8160031F919105791401C00B2491E58
:10BD70000144ADF81610BDF95E10ADF8120088420E
:10BD80007CDC5A9850B1218B5D98091A5C98091A8D
:10BD90005B98081A401EADF8100009E0A18A5E9871
:10BDA00001445C98091A5B980844401EADF81400E1
:10BDB000002558E0A06A4FF0000A50F8270008B1AB
:10BDC00090F800A05A9860B1BDF81000401EADF880
:10BDD0001400216B31F81510401A401CADF810000A
:10BDE0000BE0BDF81400401CADF81000216B31F8D9
:10BDF00015100844401EADF81400002621E0A16A89
:10BE0000B81951F8200008B390F800A05FEACA7092
:10BE10001CD05A98216B002805EB06024FF0020057
:10BE200000EB4200085A05D0BDF81010081AADF812
:10BE3000100004E0BDF814100844ADF81400761C9E
:10BE4000B6B2A08C7119401E8142D8DBBDF9160034
:10BE5000BDF95A10884217DAB819401C87B2A819E0
:10BE600080B2401C85B2A08CA842A3D809F1010081
:10BE700080B2E18C814649453FF671AF0898CBF816
:10BE8000080065B0BDE8F08FBDF91020ADF83C208A
:10BE9000BDF91210ADF83E10BDF91480ADF8408028
:10BEA000ADF8420086469DF8C300C0F34400430746
:10BEB0000DD5B4F914C05E9B63449A4207DDBDF909
:10BEC000C03003EBD373A2EB6302ADF83C208207D2
:10BED0000DD5B4F916305F9A1A44914207DDBDF9C9
:10BEE000C02002EBD272A1EB6201ADF83E10010757
:10BEF00011D5B4F918205D99511A491E88450ADAFE
:10BF0000BDF9C01001F0010201EBD17102EB61013A
:10BF10004144ADF84010C00712D0B4F91A2061981E
:10BF2000101A401E86450BDABDF9C00000F0010171
:10BF300000EBD07001EB600101EB0E00ADF84200A8
:10BF4000E28E00214A4569D1A08EA84266D1208C9C
:10BF5000420602D4820600D52021820701D541F095
:10BF60000201420701D541F00401000701D541F06B
:10BF70000801E9B32184608C40F00401618449A880
:10BF800009F01CF820A808F0A5FA4FF4A02849AA47
:10BF9000414620460FF08AFE20AA414620460FF077
:10BFA000E2FD0E982084608C20F0040161840FA8CB
:10BFB0003A90A18C37AA09FB015045901A212046DE
:10BFC0000AF048FB0FAA49A9584608F0E3FFA06A07
:10BFD00050F82700F0B3BDF810100D98084403B2D4
:10BFE000BDF814100A98ADF84430081A02B200E007
:10BFF00014E0BDF812101598ADF848200844ADF8CB
:10C000004600BDF816101498081AADF84A00CAF395
:10C0100040005FEA00080CD002210BE0382228A97A
:10C0200049A80DF061F9202218A920A80DF05CF9AB
:10C03000BDE70021D01A401CBDF9922000B2009249
:10C04000CDE90101A06ABDF9943050F8271060A82D
:10C05000491C00E031E0189A13F016FFB8F1000F08
:10C0600014D15798BDF98221BDF8121000EBD0739E
:10C0700001EB630002EBD272A0EB6200ADF8460068
:10C08000581000EB62000844ADF84A0004AA16A953
:10C0900062A8F8F7A1F980B162A90020CBF80810D6
:10C0A0000090A06A11AA20A950F8273058465B1CBE
:10C0B00007F074FF16A9CBF8081037AA1B212046F9
:10C0C0000AF0C8FAC8E60000E4C806082DE9F04FF7
:10C0D0008B46074690881188A9B0401A401C00B2D0
:10C0E00000EBD07046108819ADF8780050883044C5
:10C0F000ADF87A0020A808F025FA4FF4A02420AA71
:10C10000214638460FF07EFD18A807F02DFF18AA2B
:10C11000214638460FF0DEFC002138460FF09DF92D
:10C120008246594602A80EF059F9604803901EA8AD
:10C130000B9007F130002490F9F7B8F9AFE02568CB
:10C1400013942079012801D0A0B3A4E0B5F92030E0
:10C15000E88B18440090D5E90512E0680CF0BCFFAC
:10C16000A98B628A00B211448D19804613F0C8FD74
:10C1700010FB05F147F6FF7991FBF9F0BDF87A1055
:10C180000844ADF89A00404613F0B6FD10FB05F1E7
:10C1900091FBF9F0BDF878100844ADF89800A08A3A
:10C1A000ADF88000208AADF882006079FD2802D9C0
:10C1B000504603E016E010FB0AF0000A8DF88800F4
:10C1C0000120109020A8089026A80C9002AA1A21FD
:10C1D00038460AF03FFA26AB1EAA20A9584608F0B6
:10C1E000A4F953E02069E0B3B5F92030E88B184496
:10C1F0000090D5E90512E0680CF06EFF054625A910
:10C2000020690BF04FFBBDF87800A18A411AADF808
:10C210005810BDF87A00E28A801AADF85A00259AC3
:10C22000C2F38A235B1E1944ADF85C104FF0FF3156
:10C2300001EB52510844ADF85E006079FD2801D948
:10C24000504602E010FB0AF0000A8DF86B00A08A4D
:10C25000ADF86400E08AADF8660005EB85004000AB
:10C2600000E018E0B0F5616F01DDA0F56160ADF8A8
:10C27000600018A8099002AA1A2138460AF0EAF9C3
:10C2800016AA18A95846236907F046FE02AA1B21E0
:10C2900038460AF0DFF921462498F9F704F904003A
:10C2A0007FF44DAF29B0BDE8F08F00005CCA0608EE
:10C2B00030B5054691F82A0089B00C4602285FD9AE
:10C2C000E08C00285CD0114604A805F031FF208DD9
:10C2D000BDF81010401E091AADF81010BDF812106C
:10C2E000091AADF81210BDF814100144ADF814107D
:10C2F000BDF816100844ADF8160004A906A805F00C
:10C3000017FFBDF81810E08CBDF81220091AADF81F
:10C310001810BDF81C100844ADF81C00BDF81A0038
:10C32000E18C401AADF81A00BDF81E00E18C0844FB
:10C33000ADF81E00BDF81400BDF81010401ABDF88D
:10C340001610401C891A491C00B209B2B4F9002029
:10C35000884200DA0146B2EB610F00DD4A10E08C42
:10C36000A178104403B294F82A00CDE90201A08C10
:10C37000ADF80400009204AA06A92846FCF72AFE9C
:10C3800009B030BDF8B504460AF05FF9064620460C
:10C390000AF059F90446406BB0F5A02F51D1A06BBB
:10C3A0000025072805D22069C570206980F8225031
:10C3B00012E081B22022304606F04CFC60B12069C8
:10C3C000C570206980F82250122011F06DF800909D
:10C3D0006069BDF800108181208F4FF4004281B266
:10C3E000304606F037FC98B121696620C8703046A7
:10C3F00013F04AFA00902069BDF8001081803046A1
:10C4000006F026FCA16B884202D12169B220C870D7
:10C41000208F4FF4804281B2304606F01BFC00288A
:10C420000FD02169FF2081F82200304613F02CFA4A
:10C4300000902069BDF80010C1832169088C401C60
:10C440000884F8BD2DE9F0418CB005460AF0FDF8EE
:10C45000044628460AF0C1F88046606A0CF0CEF91E
:10C46000007800283BD1A06A002838D00078002846
:10C4700035D001A808F02EF801AA4FF4002120467B
:10C480000FF071FB94F85C00000705D59DF82100C2
:10C4900040F002008DF82100002120460FF08CF8BA
:10C4A0000746002120460FF028F9064600212046C5
:10C4B0000EF07AFF054604F1140109A805F041FECB
:10C4C000701902B2781901B209A805F08EFE002099
:10C4D000009009AA01A94046A36A07F05FFD0CB0CD
:10C4E000BDE8F0817CB50446806961896D46866847
:10C4F000A08961B1002865D0814203D12289E388F7
:10C500009A427CD302297BD003297AD0AFE010BBBA
:10C51000E088218988421ED2B4F9060013F0F0FBAE
:10C52000B4F90410B4F90E20891A484321684988E7
:10C5300001EBE030ADF80200E0885A3000B213F0B1
:10C54000DFFBA18810FB01F02168098801EBE030D6
:10C55000ADF8040040E020680088ADF800002068D5
:10C56000A18840880844ADF80600B4F9060013F02D
:10C57000C7FBB4F90410B4F90E20891A48432168A6
:10C58000498801EBE030ADF80200E0885A3000B293
:10C5900013F0B6FBA18810FB01F021683246098830
:10C5A00001EBE030ADF8040069460846F7F714FFE8
:10C5B00030B1A0696A4685602169A06908F0EAFC8B
:10C5C000A08970BB2068A18800880844ADF80400E9
:10C5D00020684088ADF80200B4F9080013F090FB21
:10C5E000A18810FB01F02168498801EBE030ADF82B
:10C5F000060020895A3000B213F082FB02E015E0F9
:10C6000012E00FE0B4F90410B4F90E20891A48437F
:10C6100021683246098801EBE030ADF80000694638
:10C620001AE024E0022801D0012820D120683246F7
:10C630000088ADF8000020684088ADF8020020684E
:10C64000A18800880844ADF804002068A1884088CB
:10C650000844ADF8060029460846F7F7BDFE30B19C
:10C66000A0696A4685602169A06908F093FCA06909
:10C6700086607CBD7CB50446806961896D468668AC
:10C68000A08901290CD0012867D0814203D12289D9
:10C69000E3889A427ED300297DD003297CD0B5E07F
:10C6A000012822D1E088218988421ED2B4F90600EF
:10C6B00013F026FBA18810FB01F02168498801EBEB
:10C6C000E030ADF80600E0885A3000B213F018FBF5
:10C6D000B4F90410B4F90E20891A48432168098876
:10C6E00001EBE030ADF8040042E02068A18800884A
:10C6F000401AADF8000020684088ADF80200B4F997
:10C70000060013F0FDFAA18810FB01F021684988AA
:10C7100001EBE030ADF80600E0885A3000B213F0CB
:10C72000EFFAB4F90410B4F90E20891A48432168CD
:10C730003246098801EBE030ADF80400694608464E
:10C74000F7F74AFE30B1A0696A4685602169A069A1
:10C7500008F020FCA089012858D120680088401EDC
:10C76000ADF804002068A18840880844ADF80600B0
:10C77000B4F9080013F0C4FAB4F90410B4F90E20A7
:10C78000891A48432168498801EBE030ADF802007E
:10C79000208902E018E010E014E05A3000B213F0F3
:10C7A000AFFAA18810FB01F021683246098801EB3D
:10C7B000E030ADF8000069461DE0022804D00328EF
:10C7C00002D023E0022821D12068A18832460088C7
:10C7D000401AADF8000020684088ADF802002068DB
:10C7E0000088401EADF804002068A18840880844F5
:10C7F000ADF8060029460846F7F7EEFD30B1A0690E
:10C800006A4685602169A06908F0C4FBA06986605A
:10C810007CBD7CB50446806961896D468668A089C7
:10C8200002290CD002287ED0814203D12289E388DC
:10C830009A4279D3002978D0012977D0D4E0022810
:10C840003FD1E088218988423BD25A3000B213F0B0
:10C8500057FAA18810FB01F02168098801EBE0304C
:10C86000ADF80000B4F9060013F04AFAB4F9041068
:10C87000B4F90E20891A48432168498801EBE03059
:10C88000ADF80600B4F9080013F03AFAA18810FBDD
:10C8900001F02168498801EBE030ADF80200208901
:10C8A0005A3000B213F02CFAB4F90410B4F90E2087
:10C8B000891A48432168098801EBE030ADF804008B
:10C8C00066E020680088401EADF804002068A1885A
:10C8D0004088401AADF80200E0885A3000B213F0E8
:10C8E0000FFAA18810FB01F02168098801EBE03004
:10C8F000ADF80000B4F9060013F002FAB4F9041020
:10C90000B4F90E20891A484321683246498801EB60
:10C91000E030ADF8060069460846F7F75DFD58B10E
:10C92000A069856003E00AE03BE034E036E06A4657
:10C930002169A06908F02EFBA089022854D1206843
:10C94000A1880088401AADF8000020684088401E89
:10C95000ADF8060020895A3000B213F0D1F9B4F9CD
:10C960000410B4F90E20891A48432168098801EBA4
:10C97000E030ADF80400B4F9080013F0C1F9A18863
:10C9800010FB01F02168498801EBE030ADF80200AE
:10C99000324669461DE0032803D025E0032800D075
:10C9A00010BB2068A18832460088401AADF800000C
:10C9B0002068A1884088401AADF802002068294606
:10C9C0000088401EADF8040020684088401EADF885
:10C9D00006000846F7F700FD30B1A0696A46856099
:10C9E0002169A06908F0D6FAA06986607CBD7CB593
:10C9F0000446806961896D468668A08903290ED046
:10CA0000032867D0814203D12289E3889A427ED3EA
:10CA100002297DD001297CD002297BD0B1E00328F6
:10CA20001FD1E088218988421BD25A3000B213F00E
:10CA300067F9B4F90410B4F90E20891A4843216843
:10CA4000098801EBE030ADF80000B4F9060013F0FE
:10CA500057F9A18810FB01F02168498801EBE0300B
:10CA600040E02068A18800880844ADF804002068F0
:10CA70004088401EADF80600E0885A3000B213F03E
:10CA80003FF9B4F90410B4F90E20891A484321681B
:10CA9000098801EBE030ADF80000B4F9060013F0AE
:10CAA0002FF9A18810FB01F021683246498801EB7B
:10CAB000E030ADF8020069460846F7F78DFC30B16A
:10CAC000A0696A4685602169A06908F063FAA089B7
:10CAD000032856D120680088ADF800002068A1889E
:10CAE0004088401AADF8020020895A3000B213F095
:10CAF00007F9A18810FB01F02168098801EBE030FB
:10CB0000ADF80400B4F9080013F0FAF803E016E0F9
:10CB100010E013E00FE0B4F90410B4F90E20891A04
:10CB2000484321683246498801EBE030ADF8060001
:10CB300069461BE018B1012801D022E008BB20683B
:10CB400032460088ADF800002068A1884088401A6D
:10CB5000ADF802002068A18800880844ADF8040000
:10CB6000206829464088401EADF806000846F7F7C1
:10CB700033FC30B1A0696A4685602169A06908F07C
:10CB800009FAA06986607CBD70B5A4B00C46054664
:10CB900020AA22A90EF03CF822A805F0EDFA20B94F
:10CBA00020A805F0E9FA00283ED012A9284616F080
:10CBB00069FA012838D1214668460DF00FFC1B4860
:10CBC00001900220029012A804904FF480300D9042
:10CBD00022A805F0D1FA80B122A803906A461A2152
:10CBE000284609F037FD22AA12A9204608F0D2F9FA
:10CBF0006A461B21284609F02DFD20A805F0BCFA45
:10CC0000002811D020AE6A461A212846039609F062
:10CC100021FD20AA12A92046039608F0BBF96A4616
:10CC20001B21284609F016FD24B070BDF47F0508CD
:10CC30002DE9F74FB1F92E00AAB014460E46002890
:10CC400072D096F8361002296ED9012808D1B6F9AB
:10CC50003400002804DC308E10B9708E0028EFD02C
:10CC60002088318E4218B08E151AADF82850A2884F
:10CC700011440B18ADF82C306088718E0844B18EC9
:10CC8000421AADF82A20E088718E0844B18E014422
:10CC9000ADF82E10B6F92E0000EBD070A5EB6005B4
:10CCA0006D1EADF84C50012505EB60001844ADF841
:10CCB0005000B6F92E0000EBD070A2EB6000401ED1
:10CCC000ADF84E00B6F92E0000EBD07005EB600019
:10CCD0000844ADF8520096F836002990FD2801D995
:10CCE000FF2029902A9813A9826827A8F7F774FBD8
:10CCF0000028A5D021461DA805F01AFA4FF0FF38EC
:10CD0000414642461DA805F063FAB6F900901DA8F9
:10CD100005F052FA04461DA805F022FA84421DA827
:10CD200003DA05F049FA02E0FEE305F019FAB9EB7F
:10CD3000600F01DD4FEA6009B6F900400AA805F06E
:10CD40003BFA05460AA805F00BFA85420AA802DA62
:10CD500005F032FA01E005F003FAB4EB600F00DDF4
:10CD60004410B6F92E00051905FB05F040000CF043
:10CD7000F1F910900146B6F92E2023460AA816F0C4
:10CD8000D9FA13A807F0DEFD012720B9F078FF28B3
:10CD900001D3B07860B1002701234A461DA920A81D
:10CDA00008F03CF8002120A807F0ECFB269001E0F9
:10CDB000CDF8988013A805F0FFF90CF0CBF9834665
:10CDC0001C2115A80CF06EFBCDF854D0CDF860B046
:10CDD000CDF868D0B08DADF85C0096F836008DF8CF
:10CDE0006C00B0788DF86D00BDF85000BDF84C2097
:10CDF000ADF80400811A491C09B201EBD17102EBB4
:10CE000061010FFA81FABDF85220BDF84E10401BA7
:10CE1000521A521C12B202EBD27201EB6202401C97
:10CE200014B200B26A1EADF80000ADF80210114451
:10CE300009B20992ADF806105246504500DC104682
:10CE4000ADF80000A14200DB21462A98ADF806109B
:10CE50006946826806A8F7F7BFFAD0B34A461DA90B
:10CE600006A8F7F7E1FAA0BBBDF81C00BDF9181041
:10CE7000BDF91A20401A401C00B20890BDF94E308E
:10CE80001098D21A02FB0500BDF95020521B891AD6
:10CE90000844401E059047B14A461DA906A8F7F769
:10CEA00033FB10B101200F9000E00F970898002885
:10CEB00027DDBDF81800ADF80000BDF81C00ADF886
:10CEC00004000220CDF860B08DF86400BDF91A802E
:10CED00013E016E0ADF802800F98ADF8068070B34D
:10CEE0000598189015A92A9808F054FA059828442E
:10CEF000059008F101000FFA80F8BDF91E104145B8
:10CF0000E8DABDF85000ADF80400401B401C00B248
:10CF1000ADF80000BDF85220ADF80620511B491CA9
:10CF200009B2ADF802105246504500DC1046ADF88B
:10CF30000000601C1190814216DD084615E0FFE7F5
:10CF40002A46584605990CF0CFF9BDF9181042460B
:10CF50005846089B07F0B8FC8DF864000128C1D141
:10CF600002208DF86400BDE7601CADF802002A982D
:10CF70006946826806A8F7F72FFAD0B34A461DA97A
:10CF800006A8F7F751FAA0BBBDF81C00BDF91810B0
:10CF9000BDF90620401A401C00B20890BDF91E30B1
:10CFA0001098D21A02FB0500BDF95020521B891AB5
:10CFB0000844401E059047B14A461DA906A8F7F748
:10CFC000A3FA10B101200F9000E00F9708980028F5
:10CFD00027DDBDF81800ADF80000BDF81C00ADF865
:10CFE00004000220CDF860B08DF86400BDF91E8009
:10CFF00013E016E0ADF802800F98ADF80680B0B3EC
:10D000000598189015A92A9808F0C4F9059828449D
:10D010000590A8F101000FFA80F8BDF91A104145FA
:10D02000E8DDBDF84C0009992844ADF80000BDF8D2
:10D030005000401BADF80400BDF84E00ADF80200F2
:10D04000084400B2ADF80600A04200DB2046ADF86F
:10D0500006002A986946826806A8F7F7BDF9B0B3BA
:10D060004A461DA906A8F7F7DFF9A8B17CE0FFE75B
:10D070002A46584605990CF037F9BDF91810424672
:10D080005846089B07F020FC8DF864000128B9D1B0
:10D0900002208DF86400B5E7BDF81C00BDF818103B
:10D0A000BDF90220401A401C00B20890BDF91A10C8
:10D0B0001098891A01FB050005904FB14A461DA939
:10D0C00006A8F7F721FA18B101200F9001E04BE014
:10D0D0000F970898002847DD0F9860B1002018903E
:10D0E000BDF81800ADF80000BDF81C00ADF8040054
:10D0F000BDF91A0033E0CDF860B0F1E7ADF8028079
:10D100000F98ADF8068060B12998FF28059800783F
:10D1100004D096F8361010FB01F0000A8DF86C0070
:10D1200013E00598089A017858460CF089F9BDF982
:10D13000181042465846089B07F0C6FB8DF864005D
:10D14000012802D102208DF8640015A92A9808F060
:10D1500021F905982844059008F1010000B2BDF9B5
:10D160001E1080464145C9DA96F836008DF86C00ED
:10D17000BDF84C002844ADF80000BDF85000BDF8E3
:10D180005210401BADF80400481B401CADF80610BF
:10D1900000B21199ADF80200884200DC601CADF8C5
:10D1A00002002A986946826806A8F7F715F978B34D
:10D1B0004A461DA906A8F7F737F948BBBDF81C0079
:10D1C000BDF81810BDF91E20401A401C00B208908E
:10D1D000BDF906101098891A01FB05000590089802
:10D1E000002851DD3FB14A461DA906A8F7F78CF982
:10D1F0000020189001E0CDF860B0BDF81800ADF83F
:10D200000000BDF81C00ADF80400BDF91E0036E0BA
:10D210003AE000BFADF80280ADF806808FB14A4613
:10D220001DA906A8F7F770F92998FF280598007836
:10D2300004D096F8361010FB01F0000A8DF86C004F
:10D2400013E00598089A017858460CF0F9F8BDF9F2
:10D25000181042465846089B07F036FB8DF86400CC
:10D26000012802D102208DF8640015A92A9808F03F
:10D2700091F8059828440590A8F1010000B2BDF985
:10D280001A1080464145C5DD96F836008DF86C00D1
:10D29000BDF85000ADF80400411BBDF84E00491C1C
:10D2A0000AB22844ADF8002000B2ADF80200BDF883
:10D2B0005210119B491B09B2ADF80610984200DBD1
:10D2C000601CADF80200A14200DC2146ADF806105A
:10D2D0005046524500DC02462A98ADF800206946C7
:10D2E000826806A8F7F778F8B8B34A464E461DA9F3
:10D2F00006A8F7F799F880BBBDF81C00BDF9181017
:10D30000099A401A401C00B20890109802FB0500D0
:10D31000BDF95020521B891A0844401E0590EFB1F8
:10D3200032461DA906A8F7F7EFF810B14FF0010833
:10D3300000E0B846059818900898002836DDBDF83A
:10D340001800ADF80000BDF81C00ADF80400022084
:10D350008DF86400BDF91A6024E027E0B84658460D
:10D36000E9E700BFADF80260ADF80660B8F1000F64
:10D3700012D15846089A05990BF0B6FFBDF918105E
:10D3800032465846089B07F09FFA8DF86400012842
:10D3900002D102208DF8640015A92A9807F0FAFF3F
:10D3A000761C36B2BDF91E00B042DBDA00221098BE
:10D3B00017E000BF00EB050EAEF10101002305EB05
:10D3C000D57608E090F800C091F8008000F8018B55
:10D3D00001F801C95B1CB3EB660FF3DB521C70460E
:10D3E00012B2AA42E6DBBDF84C000999ADF8000084
:10D3F000084401B2BDF84E00119B284400B2ADF8BC
:10D400000200BDF85220ADF80410521B12B2ADF864
:10D410000620984200DB601CADF80200A24200DC4E
:10D420002246AAF10100ADF806200C90814200DBF3
:10D4300001462A98ADF804106946826806A8F6F7F6
:10D44000CBFFA8B34A464E461DA906A8F6F7ECFF47
:10D4500070BBBDF81C00BDF91810099A401A401C99
:10D4600000B20890109802FB0500BDF90020891A4F
:10D4700008440590EFB132461DA906A8F7F744F815
:10D4800010B14FF0010800E0B846059818900898D0
:10D49000002835DDBDF81800ADF80000BDF81C000F
:10D4A000ADF8040002208DF86400BDF91A6023E095
:10D4B00026E0B8465846E9E7ADF80260ADF80660E8
:10D4C000B8F1000F12D15846089A05990BF00CFFDD
:10D4D000BDF9181032465846089B07F0F5F98DF84B
:10D4E0006400012802D102208DF8640015A92A9851
:10D4F00007F050FF761C36B2BDF91E00B042DBDAF1
:10D50000BDF84C000999ADF800000844BDF84E1074
:10D51000099AADF80210114400B2ADF8040009B246
:10D52000ADF806100C9A00E05AE1904201DBAAF136
:10D530000100ADF80400A14200DB21462A98ADF8B5
:10D5400006106946826806A8F6F746FFC0B34A4649
:10D550001DA906A8F6F768FF90BBBDF81C00BDF931
:10D560001810BDF91A20401A401C00B20890BDF9ED
:10D5700002301098D21A02FB0500BDF90020891A6A
:10D5800001EB000847B14A461DA906A8F6F7BCFF03
:10D5900010B101200F9000E00F970898CDF860B00F
:10D5A000002822DDBDF81800ADF80000BDF81C0011
:10D5B000ADF8040002208DF86400BDF91A6010E097
:10D5C00013E000BFADF802600F98ADF80660C8B375
:10D5D000CDF8608015A92A9807F0DCFE761CA844D7
:10D5E00036B2BDF91E00B042ECDABDF84C00ADF821
:10D5F00000000999BDF85220084401B2501BADF853
:10D600000410401CADF8062000B2119AADF80200DB
:10D61000904200DC601CADF802000C98814201DBF6
:10D62000AAF101012A98ADF804106946826806A89B
:10D63000F6F7D2FEC8B34A461DA906A8F6F7F4FECF
:10D64000A8B15AE0FFE72A46414658460BF04CFE87
:10D65000BDF9181032465846089B07F035F98DF889
:10D6600064000128B6D102208DF86400B2E7BDF84D
:10D670001C00BDF91810BDF90620401A401C0FFA15
:10D6800080FABDF91E301098D21A02FB0500BDF9D0
:10D690000020891A0E184FB14A461DA906A8F6F7B0
:10D6A00033FF18B14FF0010801E026E0B846CDF88D
:10D6B00060B0BAF1000F20DDBDF81800ADF8000031
:10D6C000BDF81C00ADF8040002208DF86400BDF91F
:10D6D0001E400EE0ADF80240ADF80640B8F1000F74
:10D6E0002FD0189615A92A9807F054FE641E2E44D0
:10D6F00024B2BDF91A00A042ECDDBDF84C00694629
:10D700002844ADF80000BDF85000401BADF80400FF
:10D71000BDF84E00CDF860B02844ADF80200BDF869
:10D720005200401BADF806002A98826806A8F6F75A
:10D7300053FEE8B34A461DA906A8F6F775FEA0B148
:10D7400041E02A46314658460BF0CEFDBDF918108F
:10D7500053462246584607F0B7F88DF86400012872
:10D76000C0D102208DF86400BCE7BDF91C10BDF9E2
:10D7700018000A1A521C15B2002D24DDADF8041051
:10D78000ADF80000BDF91A4019E000BFADF8024045
:10D79000ADF80640294658460BF0B2FEBDF9181008
:10D7A0002B462246584607F08FF88DF8640000E0BB
:10D7B00009E015A92A9807F0EDFD641C24B2BDF913
:10D7C0001E00A042E2DA2FB920A807F09FF82698A1
:10D7D00007F0D0FB10980BF009FD58460BF006FD42
:10D7E0002DB0BDE8F08F00002DE9F74FD8B0589864
:10D7F00049909088B2F90030D4885188C01A401CF2
:10D80000611A00B2491C09B200EBD070401001EB64
:10D81000D171B0EB610F00DB481028901844ADF8CF
:10D820000C00518828980844ADF80E0025A806F091
:10D8300089FE4FF4C02425AA214658980EF0E2F93B
:10D840009DF89D0040F010008DF89D000BA806F09B
:10D8500041FE0BAA214658980EF085F913A8599954
:10D860000CF0BCFDE94814900320159025A81990F0
:10D870004998209424300590F7F718FEBFE12494CE
:10D88000A08B2899BDF80C20084406B2A189A08875
:10D89000711A301A0FFA81FB111AADF82811BDF870
:10D8A0000E1002440B1AADF82C210844ADF82A31B1
:10D8B000ADF82E0147F6FF7501232A464AA943A871
:10D8C00007F0ACFABDF80C200123A2EB0B00ADF879
:10D8D0003001BDF80E00A0EB0B01ADF83211ABF139
:10D8E00001010A44ADF834210844ADF836012A4656
:10D8F0004CA932A807F092FABDF80C100023881B3F
:10D90000ADF83801BDF80E20901BADF83A01701E3D
:10D910000144ADF83C111044ADF83E012A464EA931
:10D920002AA807F07BFA00212AA806F02BFE4190D6
:10D93000608908B1401E01E04FF6FF708046002765
:10D9400049E100BF608908F101084FF0000A404535
:10D9500002D1D0464FF0010AA069009062880021F0
:10D960003846521E63690BF0B7FB81462390BAF12B
:10D97000000F04D0A06839903090E08903E020685F
:10D9800039903090E08800B252900290499830303F
:10D990000890F7F78BFD43E0287902283CD1A9686D
:10D9A000494539DCEA684A4536DB2B8A0298184437
:10D9B00000B20290688AAB8A984203D1688AADF8B7
:10D9C000E40029E0A87D4FF00003C0074FF0FF00FE
:10D9D0000090484601D1D4E905120BF07DFBC0B29E
:10D9E000698A001DB5F814C0C308ADF8241088B2C8
:10D9F00040EA0041864A1FFA8CF040EA004011409C
:10DA00001040401A584301EB5010104040EA1040BB
:10DA1000ADF8000080B2399029460898F7F743FD29
:10DA20000500B9D1E08B784301026088401E91FB6C
:10DA3000F0F108123A90401CC9B209900091218C73
:10DA40003A98084400B212F05BF90546218C099817
:10DA5000084400B212F054F90099C1F5807207929F
:10DA600012FB05F210FB01200512218C3A980844A4
:10DA700000B212F041F90890218C0998084400B2D4
:10DA800012F03AF9DDE9072112FB01F2009910FBCF
:10DA900001200212BDF8E400ADF894000298ADF840
:10DAA0009600409230444243BDF80C107F3201EBA7
:10DAB000E231ADF8C4106843BDF80E107F3001EBC1
:10DAC000E030ADF8C60003A821971C900BA8189071
:10DAD000BAF1000F5BD0419807F04CFAB4F910107E
:10DAE0004098ABEB01014843BDF80C207F3002EBBE
:10DAF000E03040904D43BDF80E007F3500EBE53A35
:10DB000020220BA938A80BF0EFFB38A818904B4641
:10DB100040A2102154A810F081FD54A81E9013AA11
:10DB20001A21589808F096FDBDF93E00002541F6EF
:10DB3000FF718DE82300BDF9403053A80B9A1E9960
:10DB400012F0A2F9BDF94C11409801EBD172A0EB93
:10DB50006202BDF94E01114400EBD07CAAEB6C03CC
:10DB6000ADF81C20ADF820101844ADF81E30ADF80B
:10DB70002200009507AA1E9B1899599806F00EFAE4
:10DB800000212AA806F0FEFC419032A808E00020FF
:10DB900018901E9013AA1A21589808F05BFD43A80C
:10DBA000002106F0EFFC054603AB31AA25A95998E0
:10DBB00006F0BBFC284607F0DDF913AA1621589899
:10DBC00008F048FDBDF8C000ADF8940052987F1CE5
:10DBD000ADF89600FFB26088B8423FF6B3AE43A8F6
:10DBE00006F094FE32A806F091FE2AA806F08EFEFA
:10DBF000419807F0BFF921460598F7F754FC040057
